:1008E800B4AEBFDA31B2E2CAD4B3CCD0F200B4AEFF
:0C08F800BFDA32B2E2CAD4B3CCD0F200B6
:10080000E4F508F50AF509F50B438E011209041207
:10081000091F7E087FE81209377E087FF612094714
:100820007E087FE81209377E087FF6120947E5083F
:10083000650A601C74002508F582E43400F583E045
:10084000FF1209630508E508C394804003E4F50836
:10085000E509650B60CA74802509F582E43400F56A
:1008600083E0FF12096D0509E509C3948040B1E4F6
:04087000F50980AC5A
:0A096300C2008F993000FDC200228F
:0A096D00C2018F9B3001FDC2012280
:100937008F828E83E493FF6006120963A380F522FA
:100947008F828E83E493FF600612096DA380F522E0
:100904004387807598505389BFE58954CF4420F5B7
:0B09140089758DFAD28ED2ACD2AF22D2
:030023000208B11F
:1008B100C0E0C083C082C0D030981CC298740025AB
:1008C1000AF582E43400F583E599F0050AE50AC3E7
:1008D10094804003750A00309904C299D200D0D0A7
:0708E100D082D083D0E03289
:10091F00438E08E59A543F4440F59A439A10438E0C
:08092F0010759CFD43AF01228D
:030043000208743C
:10087400C0E0C083C082C0D0E59A30E01D539AFE28
:100884007480250BF582E43400F583E59BF0050BB9
:10089400E50BC394804003750B00E59A30E10553E2
:0D08A4009AFDD201D0D0D082D083D0E032B6
:030000000209579B
:0C095700787FE4F6D8FD758120020800CE
:00000001FF
