:100D400000000000000000000000000000000000A3
:100D5000000000007E42001C101C101C005C001CE7
:100D6000101C005C00003E2828003E282800203E81
:100D70002000427E00000000000000000000000093
:100D80000000000000000000000000000000000063
:100D90003F800000000000003F7EC56DBDC8B43933
:100DA0003F7B15B5BE47C84B3F74F766BE94A2346F
:100DB0003F6C84B6BEC3F1413F61C433BEF15B57A3
:100DC0003F54DD2FBF0E3BCD3F45E354BF22680AA1
:100DD0003F350481BF3504813F22680ABF45E35493
:100DE0003F0E3BCDBF54DD2F3EF15B57BF61C43397
:100DF0003EC3F141BF6C84B63E94A234BF74F76623
:100E00003E47C84BBF7B15B53DC8B439BF7EC56DE5
:100E100000000000BF800000BDC8B439BF7EC56DB2
:100E2000BE47C84BBF7B15B5BE94A2343F74F7666E
:100E3000BEC3F141BF6C84B6BEF15B57BF61C43322
:100E4000BF0E3BCDBF54DD2FBF22680ABF45E35420
:100E5000BF350481BF350481BF45E354BF22680A12
:100E6000BF54DD2FBF0E3BCDBF61C433BEF15B5716
:100E7000BF6C84B6BEC3F141BF74F766BE94A234A2
:100E8000BF7B15B5BE47C84BBF7EC56DBDC8B43965
:0C13640001080A013645010A03010900D6
:100E900075F008E544A42403F582E5F03400F583F9
:100EA000E0FCA3E0FDA3E0FEA3E0FFE4FBFAF97899
:100EB0004212021FE4FBFA7980783F1200250203F8
:100EC0006775F008A4FF900210E0FBA3E0FAA3E02E
:100ED00022F5831205ED900218E0F8A3E0F9A3E0F3
:100EE000FAA3E0FB0201167E007F081204B8E54970
:100EF0002401FFE433FEEF780322E54475F008A4F3
:100F00002403F582E5F03400F583227413255EF89E
:100F1000E65560F580AF087E001212F1E4F580E539
:100F20006025E0F5602274132544F876FF7461258E
:100F300044F8E622E0FCA3E0FDA3E0FEA3E0FFA866
:100F400004A905AA06FB02011690021CE075F00830
:100F5000A42275F008E544A42407F582E5F03400E6
:100F6000F583227B007E007F080204B8F9E547750F
:100F7000F008A4F5822274132544F8E6F4F605443B
:100F800005442274132544F876FF22E55F25E0F539
:100F90005F055E055E222FF9EA3EA801FCAD032243
:070FA0002FF9EA35F0FA22F7
:1012F100EF1F70011E144E6013E4FCFDC3ED940555
:0C130100EC940050EB0DBD00010C80F0DE
:01130D0022BD
:10130E00EF1F70011E144E6013E4FCFDC3ED940F2D
:0C131E00EC940050EB0DBD00010C80F0C1
:01132A0022A0
:10000300EF4488F5BC00000000E5BC30E4FB53BCC2
:04001300EFAFBD226C
:0F134600759D01E4F5BD75BC807F02FE02132B7F
:10132B00EF1FAA0670011E4A60107C137D88ED1D0D
:0A133B00AA0470011C4A60E880F467
:011345002285
:10125C00E4F55C755B02E4F55DE55BC39423501823
:10126C00E55D255C900D4093FF7413255BF8A60794
:10127C00055B055B055D80E17F1C7E2512130E0569
:08128C005CE55CC3944040CB1B
:011294002237
:1010DF00120F492494F582E4340D120ED1C004C0CE
:1010EF0005C006C007120F492490F582E4340DF5B0
:1010FF00831205ED900214120ED9D003D002D00145
:10110F00D0001200218F0E8E0D8D0C8C0B120F49FB
:10111F002490F582E4340D120ED1C004C005C00630
:10112F00C007120F492494F582E4340DF58312059C
:10113F00ED900214120ED9D003D002D001D00012BC
:0B114F0000258F128E118D108C0F22D6
:0412C600AB05AA07C3
:1012CA00755800755901E4F55AE55AC39B5013AE97
:1012DA0058AF59EAFD7C001204DE8E588F59055A20
:0612EA0080E7AE58AF5989
:0112F00022DB
:0E066A00900210EBF0A3EAF0A3E9F0A3EDF08C
:10067800F546754B01AF467E01EF7801088002C34D
:1006880013D8FCF54664016004054B80E8E4F5499D
:10069800900213E014FFE549D39F40030207448505
:1006A800494CE4F548854B47E547D394004020E59D
:1006B8004714FFE54C5401FEA807088002C333D84D
:1006C800FC2548F548E54CC313F54C154780D9E59A
:1006D80049C395485061E548120EF0C333CE33CE76
:1006E800D8F9120EC52FF9EA3EFA78507C007D0041
:1006F800120EE7C333CE33CED8F9120EC52FF9EA5E
:100708003EFAC003C002C001E548120EF0C333CE62
:1007180033CED8F9120EC5120F96D001D002D003ED
:10072800120EE7C333CE33CED8F9120EC5120F9688
:100738007A007950120F630549020698754A01E557
:100748004AD3954B4003020883AD4A7F021212C672
:100758008F4DE54DC313F54E754801E548D3954EC9
:10076800400302087E854847900213E0FFE547C32F
:100778009F4003020879E547254EF54F120EC11236
:100788000FA078147C027D01120F65E54824FFFF55
:10079800E434FFFE900213E0FD7C001204DEAD4D50
:1007A8001204F090021CEFF01210DF78507C007DEC
:1007B800007A00790B120F63120EC6120F6C85F0C7
:1007C80083120573AB53AA52A951A85012002112E3
:1007D8000EC6F9E54F120F6F85F0831205BDE54788
:1007E80075F008A429F9EA35F0FA900004120573A7
:1007F800AB57AA56A955A854120021C006C007E550
:100808004F120EC1120FA0900004D007D006120597
:10081800BD120EC6120F6CE92582F9EA35F0FAC04E
:1008280003C002C001120553AB53AA52A951A850E4
:10083800120025D001D002D0031205A3E547120EFD
:10084800C1120FA0E92404F9E43AFAC003C002C0B7
:1008580001120553AB57AA56A955A854120025D022
:1008680001D002D0031205A3E54D2547F54702073D
:0B087800700548020763054A020747AD
:010883002252
:100BCF00E4F544754401120F5212060900000000AB
:100BDF000544E544B441EF7B017A0079037D40126F
:100BEF00066A754401120F52120F34C004C005C0BB
:100BFF0006C007120EFA120F34D003D002D001D064
:100C0F0000120025120FAB120EFA1205FD0544E576
:100C1F0044C3944140CFE50964017032754402E545
:100C2F0044C394224003020D3F120E908F45120FC2
:100C3F0083E545C39401401174132544F8C000E6C1
:100C4F0025E0D000F6154580E8120F7680D1E50932
:100C5F006402706E754402E544C394224003020D92
:100C6F003F120E908F45120F2DC395455027120F2F
:100C7F0083E545D39401401174132544F8C000E671
:100C8F0025E0D000F6154580E8120E9074612544DA
:100C9F00F8A6078026120F2DD39401400116120FCC
:100CAF0026F545E545D39401401174132544F8C04A
:100CBF0000E625E0D000F6154580E805440544021E
:100CCF000C66E509706A754402E544C394225060CE
:100CDF00120E908F45120F2DC395455027120F837B
:100CEF00E545C39401401174132544F8C000E6256F
:100CFF00E0D000F6154580E8120E9074612544F897
:100D0F00A6078026120F2DD39401400116120F262D
:100D1F00F545E545C39401401174132544F8C0000F
:100D2F00E625E0D000F6154580E8120F76020CD8C4
:010D3F002291
:0A137100EF1F70011E144E70F722EA
:0D08840090020CEDF0A3EBF090020BEFF0F2
:10089100E4F53A753BFF753CFF753DFFEF1460458C
:1008A10014603C24FE603224FC602824F8601E247D
:1008B100F0601424E0600A24C0702EC291C2B0809E
:1008C10028C292C2B18022C296C2B5801CC285C222
:1008D100A58016C297C2B68010C283C2A7800AC281
:1008E10082C2C48004C294C2B390020CE014603787
:1008F10014603024FE602824FC602024F860182451
:10090100F0601024E0600824C0701ED2C7801AD2A3
:10091100938016D2878012D295800ED280800AD21F
:10092100868006D2818002D28490020DE014603765
:1009310014603024FE602824FC602024F860182410
:10094100F0601024E0600824C0701ED2B7801AD273
:10095100B28016D2A38012D2B4800ED2C6800AD23F
:10096100A48006D2C58002D2A690020EE0FEA3E0CA
:10097100FF12137190020BE014604514603C24FED9
:10098100603224FC602824F8601E24F0601424E006
:10099100600A24C0702ED291D2B08028D292D2B1F6
:1009A1008022D296D2B5801CD285D2A58016D2974C
:1009B100D2B68010D283D2A7800AD282D2C4800458
:1009C100D294D2B390020CE014603714603024FE4C
:1009D100602824FC602024F8601824F0601024E0D2
:1009E100600824C0701EC2C7801AC2938016C287D5
:1009F1008012C295800EC280800AC2868006C281A2
:100A01008002C28490020DE014603014602A24FE3A
:100A1100602324FC601C24F8601524F0600E24E09F
:100A2100600724C07017C2B722C2B222C2A322C279
:0D0A3100B422C2C622C2A422C2C522C2A69F
:010A3E002295
:1011C800753801753901753901753702E539603BA4
:1011D800753801E538602874132537F8E65538FD69
:1011E80074232537F8E65538FB90020EE4F0A37413
:1011F800C8F0AF39120884E53825E0F53880D4E521
:0B1208003925E0F5390537053780C1B6
:0112130022B8
:10115A0075BBFFE4F5937594FF7591017592FEF5E1
:10116A00B375B4FFF5957596F9F5B175B2FF75804B
:10117A00FF7590FE75C0FF75A0FC75B0FFC284C2F2
:10118A00A6C281C2C5C286C2A4C280C2C6C295C254
:10119A00B4C287C2A3C293C2B2C2C7C2B7D294D2E0
:1011AA00B3D282D2C4D283D2A7D297D2B6D285D2B0
:0E11BA00A5D296D2B5D292D2B1D291D2B022A5
:10121400755F01756001755F01755E02E55F6016BB
:10122400F5A0756001E5606005120F0B80F7E4F529
:10123400A0120F8B80E6755F01E55FC394805017A1
:10124400855FB0756001E5606005120F0B80F7E4FF
:07125400F5B0120F8B80E2E0
:01125B002270
:03001B0002129539
:10129500C0E0C083C082C0D075D000C000C003C00C
:1012A50005C006C007758B0085368D1211C8D0079D
:1012B500D006D005D003D000D0D0D082D083D0E0E6
:0112C50032F6
:0F135500758911D2AFE4F58DF58BD2ABD28E2214
:100A3F00E4F542F54312115A121346E4F54074617E
:100A4F002540F876090540E540B428F2C2A01213FC
:100A5F0055E4F54074132540F876FF0540E540B4A2
:100A6F0022F2E4F540E4FF1200037E00EFA80A082B
:100A7F008005C333CE33CED8F9FDAC06EC12032E6E
:100A8F00E540120EFC1205FD0540E540C3944140C0
:100A9F00D4120BCFE54270047F0180027F008F429A
:100AAF00E4FFFEFD7C42900013E0F8A3E0F9A3E021
:100ABF00FAA3E0FB1202BC501E754201053FE53F51
:100ACF007002053E642C7004E53E64016003020B66
:100ADF00C6F53EF53F8070753E00753F010543E555
:100AEF004364AF6003020BC6F5437596FBD2A17F3B
:100AFF00D07E071212F1C2A17596F9E4FBFAF978CC
:100B0F0042900013E0FCA3E0FDA3E0FEA3E0FF1280
:100B1F00021F1203678F417407C3954150047F0171
:100B2F0080027F00D3EF648094885006750A01021B
:100B3F000BC67406C3954150047F0180027F00D31A
:100B4F00EF648094875005750A02806B7405C39516
:100B5F004150047F0180027F00D3EF648094865060
:100B6F0005750A0380517404C3954150047F0180B9
:100B7F00027F00D3EF648094855005750A04803797
:100B8F007403C3954150047F0180027F00D3EF644B
:100B9F008094845005750A05801D7402C3954150D9
:100BAF00047F0180027F00D3EF648094835005752A
:100BBF000A068003750A07E54224FF92A1020A7113
:0300000002105398
:0C105300787FE4F6D8FD75818802109AC1
:10001E000203D3E86480F8E933E83360110460F03A
:10002E00ED33EC337009E8FCE9FDEAFEEBFF220448
:10003E0060DED3EB9FEA9EE99DE8C2E78CF0C2F743
:10004E0095F0400CE8CCF8E9CDF9EACEFAEBCFFB0F
:10005E0012039E85D0F05804700320D5B3E80470C7
:10006E00075002B2D50203DD92D5EC0460F7E4CC62
:10007E00C0E0C398F8603B94186008400DD0E0FBD8
:10008E000203B5E4FBFAC9FC8028E830E406E4C9B3
:10009E00FBE4CAFCE830E305E4C9CACBFCE854072C
:1000AE006010F8C3E913F9EA13FAEB13FBEC13FC37
:1000BE00D8F130F52FC3E49CFCEF9BFFEE9AFEEDDA
:1000CE0099FDD0E0FBEF4E4D4C701222DB03020384
:1000DE00DAEC2CFCEF33FFEE33FEED33FDED30E7C3
:1000EE00EB0203B5EF2BFFEE3AFEED39FDD0E0FB50
:1000FE0050130BBB00030203DDED13FDEE13FEEFF9
:08010E0013FFEC13FC0203B522
:10011600EC4D6011E8497017ED33EC3304600DE4E3
:10012600FCFFFEFD22E933E8330470F80203D31224
:10013600039E58046009E4CC248150062850090225
:1001460003DD2840030203DAC0E0EB4A7044B980BD
:1001560006D0E0FB0203C9EF4E701CBD8008EBFF22
:10016600EAFEE9FD80EBE98DF0A4FEE5F00201FF71
:10017600E9CDF9EAFEEBFFEF89F0A4FCE5F0CE89C4
:10018600F0A42EFFE435F0CD89F0A42DFEE435F081
:100196008067EF4E7005BD80D780C3EF8BF0A4ACAF
:1001A600F0EE8BF0A42CFCE435F0F8EF8AF0A42CEA
:1001B600E5F038FCE433CB8DF0A42CFCE5F03BF8FD
:1001C600EE8AF0A42CFCE5F038F8E433CF89F0A4ED
:1001D6002CFCE5F038CF3400CE89F0A42FFFE5F0F3
:1001E6003EFEE433C98DF0A42EFEE5F039CD8AF04B
:1001F600A42FFFE5F03EFEE43DFD33D0E0FB5007C3
:100206000BBB000F0203DDEC2CFCEF33FFEE33FEDD
:06021600ED33FD0203B50B
:10021C000203DDEC5D046005E8590470030203D3AE
:10022C0012039E580460F6EC4860F2EC7004FDFE7C
:10023C00FF22C860DB2481C85009C39860025006B5
:10024C000203DA9850CAF582E9294B4A7005AB8251
:10025C000203C975F0007C1A7880C3EF9BEE9AED0F
:10026C0099400DC3EF9BFFEE9AFEED99FDE842F02D
:10027C00DC23ACF0D0E0FFD0E0FED0E0FDAB822080
:10028C00E7101BEB60BAEC2CFCEF33FFEE33FEED0A
:10029C0033FD0203B5E803F830E705C0F075F00054
:1002AC00EF2FFFEE33FEED33FD40B830E7C280AAEE
:1002BC0074F8CC6480CCC86480C8F582046043C3F5
:1002CC00EB9FF5F0EA9E42F0E99D42F0E89C45F088
:1002DC0060305018E5825FFFE582F42B5582FB50AD
:1002EC00210ABA001D09B90019088016E5825BFBCA
:1002FC00E582F42F5582FF50090EBE00050DBD009E
:10030C00010CC3EB9FF5F0EA9E42F0E99D42F0E848
:0D031C009C45F06007CC4820E701B3EC22BF
:1003290075F020800E75F010800575F0087D007E4F
:10033900007F003392D530D503120545EC334010C8
:10034900EF33FFEE33FEED33FDEC33FCD5F0ED2258
:0E035900E5F0247EA2D513CC92E7CDCEFF2294
:10036700EDD2E7CD33EC3392D524814006E4FFFE8E
:10037700FDFC22FCE4CFCECDCC24E0501174FF80ED
:10038700EDC3CC13CCCD13CDCE13CECF13CF04708A
:07039700F030D5DE02054540
:100FA7000203D322EDA2E7D2E7F9EC3340F260F374
:100FB700B4FF08ED547F70E80203DDF82481C2E036
:100FC700C0E0F40428FAC313FCED92E7FD90021089
:100FD7001205FDEEA2E7E9BA7F02C31334009400BD
:100FE700FA75F091A4E5F013F494FE8AF0A433E5C2
:100FF700F033248CD313FDE492E7FE7F007C3F752A
:101007008302ECC0E0F8EDC0E0F9EEC0E0FAEFC013
:10101700E0FB8583F09002101205E185F083120250
:101027001FD0E0FBD0E0FAD0E0F9D0E0F8120025BD
:10103700ED6480FD30E7011CD583C7ED33CC33F871
:0C104700D0E0A2E71328C313CC13FD2255
:10039E00E9D2E7C933E833F892D5EDD2E7CD33ECA5
:0703AE0033FC5002B2D5221E
:1003B500EC30E7100FBF000C0EBE00080DBD0004A9
:1003C5000BEB6014A2D5EB13FCED92E7FD2274FF55
:1003D500FCFDFEFF22E480F8A2D574FF13FC7D80AE
:0303E500E480EFC2
:10105F00020A3FE493A3F8E493A34003F68001F25E
:10106F0008DFF48029E493A3F85407240CC8C33392
:10107F00C4540F4420C8834004F456800146F6DF61
:10108F00E4800B0102040810204080901364E47E7A
:10109F00019360BCA3FF543F30E509541FFEE49356
:1010AF00A360010ECF54C025E060A840B8E493A31D
:1010BF00FAE493A3F8E493A3C8C582C8CAC583CA48
:1010CF00F0A3C8C582C8CAC583CADFE9DEE780BE00
:01137000007C
:1003E800E709F608DFFA8046E709F208DFFA803EF7
:1003F80088828C83E709F0A3DFFA8032E309F608E4
:10040800DFFA8078E309F208DFFA807088828C834B
:10041800E309F0A3DFFA806489828A83E0A3F608FF
:10042800DFFA805889828A83E0A3F208DFFA804CD9
:1004380080D280FA80C680D4806980F280338010B0
:1004480080A680EA809A80A880DA80E280CA803319
:1004580089828A83ECFAE493A3C8C582C8CCC58391
:10046800CCF0A3C8C582C8CCC583CCDFE9DEE78061
:100478000D89828A83E493A3F608DFF9ECFAA9F0E0
:10048800EDFB2289828A83ECFAE0A3C8C582C8CC36
:10049800C583CCF0A3C8C582C8CCC583CCDFEADE4F
:1004A800E880DB89828A83E493A3F208DFF980CCB1
:1004B80088F0EF60010E4E60C388F0ED2402B404AA
:1004C8000050B9F582EB2402B4040050AF23234551
:0604D8008223900438733A
:1004DE00EF8DF0A4A8F0CF8CF0A428CE8DF0A42E32
:0204EE00FE22EC
:1004F000BC000BBE0029EF8DF084FFADF022E4CCF0
:10050000F875F008EF2FFFEE33FEEC33FCEE9DECB8
:10051000984005FCEE9DFE0FD5F0E9E4CEFD22EDFE
:10052000F8F5F0EE8420D21CFEADF075F008EF2F48
:10053000FFED33FD4007985006D5F0F222C398FD39
:050540000FD5F0EA22D6
:0E054500C3E49FFFE49EFEE49DFDE49CFC22C7
:10055300BB010789828A830205E15005E9F8020697
:100563003ABBFE05E9F802064689828A830205ED55
:10057300BB010DE58229F582E5833AF5830205E1A6
:100583005007E92582F802063ABBFE07E92582F8FF
:10059300020646E58229F582E5833AF5830205EDF5
:1005A300BB010789828A830205FD5005E9F802062B
:0A05B30052BBFE05E9F802065E22C5
:1005BD00BB010DE58229F582E5833AF5830205FD40
:1005CD005007E92582F8020652BBFE07E92582F89D
:0405DD0002065E2292
:0C05E100E0FCA3E0FDA3E0FEA3E0FF228D
:1005ED00E493FC740193FD740293FE740393FF2254
:0C05FD00ECF0A3EDF0A3EEF0A3EFF02271
:10060900A8828583F0D083D0821206201206201298
:100619000620120620E473E493A3C583C5F0C583BD
:10062900C8C582C8F0A3C583C5F0C583C8C582C83B
:01063900229E
:0C063A00E6FC08E6FD08E6FE08E6FF22EC
:0C064600E2FC08E2FD08E2FE08E2FF22F0
:0C065200ECF608EDF608EEF608EFF622D4
:0C065E00ECF208EDF208EEF208EFF222D8
:00000001FF
