:1059C200DBB66DFEFDFBF7EFDFBF7F0102040810BF
:1059D2002040800FFE0FFD0FFB0FF70FEF0FDF0FC1
:1059E200BF0F7F0EFF0DFF00060C12181E242A3077
:1059F200363B41464B5055595E6266696C70727512
:105A020077797B7C7D7E7E7E7E7E7D7C7B797775E1
:105A120072706C6966625E5955504B46413B363036
:105A22002A241E18120C0600FAF4EEE8E2DCD6D0A4
:105A3200CAC5BFBAB5B0ABA7A29E9A9794908E8BF7
:105A42008987858483828282828283848587898B07
:105A52008E9094979A9EA2A7ABB0B5BABFC5CAD092
:105A6200D6DCE2E8EEF4FA7F7E7E7D7C7B79777588
:105A720072706C6966625E5955504B46413B3630D6
:105A82002A241E18120C0600FAF4EEE8E2DCD6D044
:105A9200CAC5BFBAB5B0ABA7A29E9A9794908E8B97
:105AA2008987858483828282828283848587898BA7
:105AB2008E9094979A9EA2A7ABB0B5BABFC5CAD032
:105AC200D6DCE2E8EEF4FA00060C12181E242A30A4
:105AD200363B41464B5055595E6266696C70727531
:105AE20077797B7C7D7E7E0040206010503070088C
:105AF2004828681858387804442464145434740CC0
:105B02004C2C6C1C5C3C7C02422262125232720AA5
:105B12004A2A6A1A5A3A7A06462666165636760E7F
:105B22004E2E6E1E5E3E7E01412161115131710980
:105B32004929691959397905452565155535750D6F
:105B42004D2D6D1D5D3D7D03432363135333730B55
:105B52004B2B6B1B5B3B7B07472767175737770F2F
:105B62004F2F6F1F5F3F7F837D7D7D83FFFFBD01D1
:105B7200FDFFFFBD79756D9DFF7B7D5D2D73FFE799
:105B8200D7B701F7FF0B6D6D6D73FFC3AD6D6DF38D
:105B9200FF7F716F5F3FFF936D6D6D93FF9F6D6D23
:105BA2006B87FF00000702000103010000020700EB
:105BB20002030200000603000103020000060300C4
:105BC20001030200000306000203010000030600B5
:105BD20002030100000704000301010000010700A5
:105BE2000202030000070100010103000004070094
:105BF2000302020000000F010101010000000F0179
:105C0200010101000003030000030300000303007D
:105C1200000303F1EEE6EAECEEF1FFFBF9FBFBFB1E
:105C2200FBF1FFF1EEEFF7FBFDE0FFF1EEEFF1EF3D
:105C3200EEF1FFF7F3F5F6E0F7F7FFE0FEF0EFEF36
:105C4200EEF1FFF3FDFEF0EEEEF1FFE0EFF7FBFD0C
:105C5200FDFDFFF1EEEEF1EEEEF1FFF1EEEEE1EF22
:105C6200F7F9FF0000000000000000FFFFFFC793EC
:105C72003939393939393993C7FFFFFFFFFFE7E176
:105C8200E7E7E7E7E7E7E7E781FFFFFFFFFF8339A2
:105C920039399F9FCFE7F33901FFFFFFFFFF8339B8
:105CA200399FC79F3F3F3999C3FFFFFFFFFF9F8F78
:105CB2008793939999019F9F07FFFFFFFFFF01F9C8
:105CC200F9F9C1913F3F3999C3FFFFFFFFFF879366
:105CD200F9F9C19139393993C7FFFFFFFFFF0199E4
:105CE20099CFCFE7E7E7E7E7E7FFFFFFFFFF83395A
:105CF200393993C79339393983FFFFFFFFFFC793C0
:105D020039393913073F3F93C3FFFFFFFFFFC793A3
:105D12003939393939393993C7FFFFFFFFFFFFFF9F
:105D2200FFFF83390733393903FFFFFFFFFFF8F91C
:105D3200F9F9C19139393991C1FFFFFFFFFFFFFF27
:105D4200FFFF8733F9F9F93387FFFFFFFFFF1F3F9B
:105D52003F3F07333939391307FFFFFFFFFFFFFFCB
:105D6200FFFF833901F9F93983FFFFFFFFFF0F6757
:105D7200E7E701E7E7E7E7E781FFFFFFFFFFFFFF55
:105D8200FFFF039999C3F983393983FFFFFFF8F9BC
:105D9200F9F981313939393910FFFFFFFFFFE3E3A8
:105DA200FFFFE1E7E7E7E7E781FFFFFFFFFF8F8FF5
:105DB200FFFF879F9F9F9F9F9F99C1FFFFFFF8F95A
:105DC200F9F909C9E1C1C99900FFFFFFFFFFE1E746
:105DD200E7E7E7E7E7E7E7E781FFFFFFFFFFFFFF0F
:105DE200FFFF00494949494900FFFFFFFFFFFFFF4D
:105DF200FFFF80313939393910FFFFFFFFFFFFFF05
:105E0200FFFF83393939393983FFFFFFFFFFFFFF76
:105E1200FFFFC09139393999C1F9F0FFFFFFFFFF48
:105E2200FFFF073339393933073F1FFFFFFFFFFFFA
:105E3200FFFF0023F3F3F3F3C0FFFFFFFFFFFFFFBA
:105E4200FFFF0339F9833F3981FFFFFFFFFFFFFFA8
:105E5200E7E781E7E7E7E7E78FFFFFFFFFFFFFFFE6
:105E6200FFFF18393939391903FFFFFFFFFFFFFF21
:105E7200FFFF10399393C3E7E7FFFFFFFFFFFFFF29
:105E8200FFFF00242400009999FFFFFFFFFFFFFF9F
:105E9200FFFF0193C7C7C79301FFFFFFFFFFFFFF8C
:105EA200FFFF10399393C3C7E7E7F0FFFFFFFFFF40
:105EB200FFFF0199CFE7E73301FFFFFFFFFFE7E7AE
:105EC200C7C3C3938399393910FFFFFFFFFFC099FE
:105ED2009999C19939393999C0FFFFFFFFFF0339F9
:105EE20039FCFCFCFCFC3999C3FFFFFFFFFFC099A2
:105EF2003939393939393999C0FFFFFFFFFF803904
:105F0200C9C9C1C9C9F9393980FFFFFFFFFF80390B
:105F1200C9C9C1C9C9F9F9F9F0FFFFFFFFFF8399A8
:105F220099FCFCFC0C9C9999C3FFFFFFFFFF103901
:105F3200393939013939393910FFFFFFFFFF81E75C
:105F4200E7E7E7E7E7E7E7E781FFFFFFFFFF03CFC9
:105F5200CFCFCFCFCFCFCFCFCFCCE0FFFFFF0099B6
:105F6200C9E1E1E1C9C9999900FFFFFFFFFFF0F91B
:105F7200F9F9F9F9F9F9F93900FFFFFFFFFF00819B
:105F8200818181818181818100FFFFFFFFFF1831C3
:105F9200312121090909191930FFFFFFFFFFC399B8
:105FA2003C3C3C3C3C3C3C99C3FFFFFFFFFF80393B
:105FB20039393981F9F9F9F9F0FFFFFFFFFFC39988
:105FC2003C3C3C3C3C200889C31FFFFFFFFF80395B
:105FD200393981C9C999993930FFFFFFFFFF033968
:105FE20039F9F3C79F3F393981FFFFFFFFFF0024D3
:105FF200E7E7E7E7E7E7E7E7C3FFFFFFFFFF103960
:10600200393939393939393983FFFFFFFFFF1039FF
:1060120039999393C3C3C7E7E7FFFFFFFFFF00244C
:10602200242424000081999999FFFFFFFFFF103972
:106032009393C7C7C793933910FFFFFFFFFF0099E0
:1060420099C3C3E7E7E7E7E7C3FFFFFFFFFF019C51
:106052009FCFCFE7F3F3393980FFFF000000000044
:1060620000000000000000000000007F7F033F9F4F
:10607200CF00FFFF07E7E707FFFFFFFEFEC0FCF9C7
:10608200F300E7E7E4E4E4E4E7E1F33F3F3F3F3FC7
:106092003F03F3F3F303FF933339FCFFFFFF80FF6A
:1060A200FFE0E7E7E7E0FFCC99999FE7E707F3F323
:1060B200F907E7E7E700FFFFFFFFFFFFFF80FCFCB8
:1060C200FCC0FCFCFC00FCFCFCFCFCFF07E7E7E777
:1060D20007E7E7E707E7E7F3F3F9FCFFC0CFCFCF26
:1060E200C0CFCFCFC0CFCFCFCFC3E7FF07E7E7E720
:1060F200E7E707E7E7E7E7E7E707E7FFE0E7E7E7DD
:10610200E7E7E0E7E7E7E7E7E7E0E7FF07E707E7D3
:10611200077F67077379077F7F01FFFFE0E7E0E70B
:10612200E0FEFEC0FEFEE0FEFE80FF3333013333AD
:10613200033333033333009F33793CFF81989999BA
:10614200819999998199989C9C86CFFFFFFFFFFFC7
:10615200FFFF0303FFFFFFFFFFFFFFFFFFFFFFFF45
:10616200FFFFC0C0FFFFFFFFFFFFFFFFFFFF0707AB
:10617200FFFFFFFFFFFF0101FFFFFFFFFFFFE0E067
:10618200FFFFFFFFFFFF8080FFFFFFFFFF0303FF13
:10619200FFFF0707FFFFFF0101FFFFFFFFC0C0FF77
:1061A200FFFFE0E0FFFFFF8080FFFFFFFF01999903
:1061B200999999C9C9E1F1F901F9FFFFFF8099990C
:1061C20099999999839F9F9F809FFFFF013F3F3F2E
:1061D2003F039F9F9F9FCFCFCF00FFFF80FFFFFF17
:1061E200FFE0E7E7E7E7E7E7E700FF3F7FFFFFFFC3
:1061F20000FFBF9F9FCFCFE7F3F9FFFFFEFCFCFF3D
:1062020000FFFDF9F3E7CFCF9F9FFFFF07E7E7E727
:10621200E7E707E7E7E7E7E7E707E7FFE0E7E7E7BB
:10622200E7E7E0E7E7E7E7E7E7E0E7CFCF07F3F9FC
:106232000073737303F3F3F3F307FFFFFFF0F3F954
:10624200C0CECECEC0FF3F3F3F00FFFF0199017F8E
:10625200017F07E707E707E707E700FF809980FE6E
:1062620080FEE0E7E0E7E0E7E0E700FF07E7E707B7
:10627200E7E7079F999387879F00FFFFE0E7E7E043
:10628200E7E7E0F99999C9E1F900FFFF03FFFFFF92
:10629200FF007F7F676773797C1F3FFFC0FFFFFFAF
:1062A200FF00FEFEE6CE9E3E3EFEFF3F9FCF073F33
:1062B20001CFE733887F1FC7FF1FC1FFF9F3E0FF5C
:1062C20080F3E4CE19FCE7F3F8FEFFCF4903CF00D9
:1062D2000349CCE700333991C78338F3F2F30398CB
:1062E200999890C3C3E7E7C3C3993C676707678080
:1062F2002723030121E407E7672787E6E680E6FF15
:10630200C0CFC0CFC0F980F0E6CF1FFFFFFFFF0074
:10631200FFFF03CFCFCFCF0FC1F3FFC99999F90088
:10632200F9F9F9F9F9F333260F1F3FE767E18161C4
:1063320061007F670101019CCF6338FF00F3F980A0
:106342009E929292929298E1CC9E3F3F7913F39F54
:106352003F00F3333333330323333FCFE680F090F0
:10636200C000FFC0CFCFC0CFCFC0CF3F7F7F009F45
:106372009F9F1F9F9F9FCFCFE7F3F9FFFEFE00FF76
:10638200FFFFE0E7E7E7E7E7E7F0F9E7E7E727E717
:1063920080E7E727E7E78770399FCFF9F9F9809916
:1063A20099999900F9F0F0E6CF9F3FFFFF009F9F78
:1063B2009F1F9F9FCFCFE7E7F3F9FCFFFF00FFFF8F
:1063C200FFE0E7E7E7E7E7E7E7F0F9E7E707F3F3F7
:1063D200F907E7E7E700FFFFFFFFFFFFFF80FCFC95
:1063E200FCC0FCFCFC00FCFCFCFCFCFF03F3F3F334
:1063F200F303F3F37373333399C9E4FF00FFFCFC37
:10640200FC809C9C9E9E9F9F9FC3E7FFFF801F1F57
:1064120009034367674313197C7F7FF0E4FC00E6BE
:10642200E680E6E680E6E6E600FEFE7FFF03333323
:1064320003333333F3039339791CC3FEFC00F3F3C4
:1064420080F3F3F0FFE0E7F3F8E30FE7E7739399E4
:10645200C0E7F3F980F9FF87F039FFFFFF80F3F31C
:10646200F3F3F3F3F3F3F3F3F300FFE767F3F34923
:10647200C0E733F90079FF4730F9FFFFC0CFCFC043
:10648200CFCF00F33380C09233F0F97F3F9F4FE3C9
:1064920008FFFF07E76767673F8FE1FEFCF9F2C479
:1064A20010F9FCE0E7E6E6E6F1C79FFFFF41490984
:1064B2008949C9C9C9C1493F3F7FFFFCFCFE00FFB2
:1064C200FFC0CFE7F1FCFE3F3F00FFE7E7E7010136
:1064D20001818181E1E7870730F9FFF3E7E7003EB9
:1064E2009FFCCCE4F0F83C3C3C01FF0000000000C3
:1064F200000000000000000000000000000000009A
:1065020000000000000000000000004F4F014F4F4C
:10651200FF01797C07676767677F7FF2F280F2F29B
:10652200FF003E9EE0E6E6E0F2FEFEFF033F3F3F55
:106532003F019F9F9FCFCFE7F3F9FCFFE0FFFFFFF3
:10654200FF80FCFCFCFCFC9C9C81FFE7CF013387B5
:106552000199C92199C9613999CCE3FF00E6F38118
:1065620098818181818180C393393CCFCF07F3F930
:106572000073737303F3F3F3F307FFFFFFF0F3F911
:0B658200C0CECECEC0FF3F3F3F00FF69
:10B42B00017603013A00012D01023B0000C101012D
:10B43B002A0F014700014200013E0F014A01016042
:10B44B0001017201013300016E000164000155001E
:10B45B00015400015000012F00014E03014F110157
:10B46B002800013101012901015600016300014946
:01B47B0000D0
:10AB9A00439610D2867F027E0012B7DAC286AF339E
:10ABAA00EFB41000400302AC4D90ABBAF8282873FA
:10ABBA0002ABEA02ABEE02ABF402ABFA02AC03025E
:10ABCA00AC0702AC0D02AC1302AC1C02AC2002AC06
:10ABDA002602AC2C02AC3502AC3902AC3F02AC45C1
:10ABEA00C2858002D285C2A6800AC285D2A6800406
:10ABFA00D285D2A6C284C2A522C2858002D285C2CB
:10AC0A00A6800AC285D2A68004D285D2A6D284C2E0
:10AC1A00A522C2858002D285C2A6800AC285D2A692
:10AC2A008004D285D2A6C284D2A522C2858002D24D
:10AC3A0085C2A6800AC285D2A68004D285D2A6D2AF
:04AC4A0084D2A522E9
:10A23900759D01759470E4F5937592087591017592
:10A2490096EFF59553A2FBD2AD75BC08751908F5C3
:10A259001A7B017D2D7F2012357C751408E4F515D4
:10A269007B017D2D7F2012B665751108E4F5127BFF
:10A27900017D2D7F2012B32B751908E4F51A7B0196
:10A289007D2D7F201247B8751408E4F5157B017DF3
:10A299002D7F2012B75B751108E4F5127B017D2D26
:10A2A9007F2012B1A27B01E4FDFF12A5CB7B01E463
:10A2B900FDFF12A6AA12B0BC12B125758912758CC0
:10A2C90070758A70758DF3758BAAD2A9C28CD2ABC1
:10A2D900D28EC2BBD2B943B72043B820E4F5D975B1
:10A2E900D84075DA4275FAFE759CFA438E11439887
:10A2F90050D2ACD2AF857638757602D2A420A403A9
:10A30900128A247FFA7EFF12B7DA12B3D512B25C31
:10A31900E4F56774002567F582E43400F583E4F019
:10A3290074402567F582E43400F583E4F00567E5B8
:10A3390067B440DFE5386401704AF570E57025E0DF
:10A349002488F582E43401F583740CF0A3E4F00564
:10A3590070E570B440E690018E740FF0A374FFF0BD
:10A3690090018C740FF0A374FFF090018A740FF0C0
:10A37900A374FFF0900188740FF0A374FFF0756067
:0BA389000175720185385A8538762274
:03002B0002AFBE63
:10AFBE00C0E0C0F0C083C082C0D075D000C000C059
:10AFCE0004C005C006C00775BC00AFBDEF75F00329
:10AFDE00A4AEF07802C333CE33CED8F9FDAC06AFB3
:10AFEE00BEEF75F005A42DFDE5F03CFCE542905A50
:10AFFE00E993FF3395E0FEEF25E0FFEE33FE748814
:10B00E002FF58274013EF583ECF0A3EDF0E542D30B
:10B01E00947F500405428004C2ADC28CD007D00686
:10B02E00D005D004D000D0D0D082D083D0F0D0E0E4
:01B03E0032DF
:0300230002A93BF4
:10A93B00C0E0C0D075D000C006C007309902C299E4
:10A94B0020980302AA03C298859949E549B44404A7
:10A95B007F0180027F00E549B440047E0180027EC6
:10A96B0000EE4FFFE549B443047E0180027E00EE0A
:10A97B004FFFE549B415047E0180027E00EE4FFFC8
:10A98B00E549B446047E0180027E00EE4F600385EC
:10A99B004963E549B4160CE53A7005753A01800335
:10A9AB00753A00E549B4090DE52DB40105752D0087
:10A9BB008003752D01E549B4450DE5FAD3940F409D
:10A9CB000674F625FAF5FAE549B4470DE5FAC39492
:10A9DB00F05006740A25FAF5FAE549B41909E52988
:10A9EB00D3940240021529E549B40D09E529C39416
:10A9FB000F50020529754900D007D006D0D0D0E002
:01AA0B003218
:03001B0002B47DAF
:10B47D00C0E0C0F0C083C082C0D075D000C000C095
:10B48D0001C002C003C004C005C006C007E5767048
:10B49D0003129EACE576B4010312658DE576D39467
:10B4AD00014003129A90D007D006D005D004D003E6
:10B4BD00D002D001D000D0D0D082D083D0F0D0E057
:01B4CD00324C
:03000B00020003ED
:0400030075BCE832AE
:10B7800012A239E576700312B620E576B4010312F1
:10B7900081C3E576B40203126E48E576B403031262
:0CB7A000A394E576B404DC129C9E80D7D4
:109EAC00758DF3758BAA900001E0900000F0900086
:109EBC0041E0900040F0E4F54CE53A64017062E555
:109ECC003E2410FFE433FE7400254CF582E434008C
:109EDC00F583E0FDD39FEE6480F87480985004D233
:109EEC00A38002C2A3EDD3953E5004D2A18002C23E
:109EFC00A17440254CF582E43400F583E0FFB53EB7
:109F0C0006D2A2C2A0801AE53E2410FDE433FCEF79
:109F1C00B5050AE4B50406C2A2D2A08004D2A2D22E
:109F2C00A0E53A7062E53E2410FFE433FE74002590
:109F3C004CF582E43400F583E0FDD39FEE6480F8A9
:109F4C007480985004D2A28002C2A2EDD3953E50E8
:109F5C0004D2A08002C2A07440254CF582E43400E7
:109F6C00F583E0FFB53E06D2A3C2A1801AE53E24DC
:109F7C0010FDE433FCEFB5050AE4B50406C2A3D228
:109F8C00A18004D2A3D2A1D2A7000000C2A7054C85
:109F9C00E54C64406003029EC5439610C3740F9554
:109FAC003EFF12ABAAD286000000C2865396EFE5A4
:109FBC003ED394004004153E8003753E0FE4F559E2
:109FCC007400252AF582E43400F583E0D394004034
:109FDC000E7400252AF582E43400F583E014F0E5D4
:109FEC002AD394004004152A8003752A3F0559E5AD
:109FFC0059B404CCE4F55930004A74802547F582F5
:10A00C00E43400F583E0702874002547F582E434CD
:10A01C0000F583E0FF74402547F582E43400F583B6
:10A02C00E0D39F401974402547F582E43400800941
:10A03C0074802547F582E43400F583E014F005477D
:10A04C00C2008002D2000559E559B404AAE547C301
:10A05C0094404003E4F547E563B440047F0180027B
:10A06C007F0020B5047E0180027E00EE4F602BE461
:10A07C00F54C054CE54CB464F9E563B440047F0140
:10A08C0080027F0020B5047E0180027E00EE4F60CE
:0BA09C0009E4F563755A0285764D2239
:1076E100756701756101E56714FFE561A807088009
:1076F10002C333D8FCF561E4F568E56114FFE56880
:10770100D39F40030279F1757001C374079567FF38
:10771100E570A807088002C333D8FCF5708568F0CE
:10772100A4F570856869E569C3948040030279EC2A
:10773100E56925E02488F582E43401F583E0F52448
:10774100A3E0F525E56925E02488F582E43402F516
:1077510083E0F521A3E0F522E5692561FF25E02419
:1077610088F582E43401F583E0F544A3E0F545EFC3
:1077710025E02488F582E43401F583E0FCA3E0FDF3
:10778100E570905A6993FF3395E0FE12AC4EEF78A5
:1077910007CEA2E713CE13D8F8FFE56925E02488C8
:1077A100F582E43401F583E0FCA3E02FFBEC3EFA23
:1077B100E5692561F925E02488F582E43402F58341
:1077C100E0FCA3E0FDE5709059E993FF3395E0FEFD
:1077D10012AC4EEF7807CEA2E713CE13D8F82BFFE9
:1077E100EA3EFEE56925E02488F582E43401F5836B
:1077F100EEF0A3EFF0E925E02488F582E43401F509
:1078010083E0FCA3E0FDE5709059E993FF3395E037
:10781100FE12AC4EEF7807CEA2E713CE13D8F8FFD5
:10782100E56925E02488F582E43402F583E0FCA3D0
:10783100E0C39FFBEC9EFAE925E02488F582E4345D
:1078410002F583E0FCA3E0FDE570905A6993FF33F4
:1078510095E0FE12AC4EEF7807CEA2E713CE13D817
:10786100F82BFFEA3EFEE56925E02488F582E43441
:1078710002F583EEF0A3EFF0E925E02488F582E438
:107881003401F583E0FCA3E0FDE570905A6993FFB4
:107891003395E0FE12AC4EEF7807CEA2E713CE137C
:1078A100D8F8FFC3E5259FFBE5249EFAE925E024EE
:1078B10088F582E43402F583E0FCA3E0FDE57090F5
:1078C10059E993FF3395E0FE12AC4EEF7807CEA253
:1078D100E713CE13D8F8FFC3EB9FFFEA9EFEE9251D
:1078E100E02488F582E43401F583EEF0A3EFF0E5BE
:1078F100709059E993FF3395E0FEAC44AD4512AC6D
:107901004EEF7807CEA2E713CE13D8F82522FBE578
:10791100213EFAE925E02488F582E43402F583E08A
:10792100FCA3E0FDE570905A6993FF3395E0FE12E8
:10793100AC4EEF7807CEA2E713CE13D8F8FFC3EB16
:107941009FFFEA9EFEE925E02488F582E43402F5F2
:1079510083EEF0A3EFF0E56925E02488F582E434B5
:1079610001F583C083C082E0A2E713FFA3E013D037
:1079710082D083CFF0A3EFF0E56925E02488F5827A
:10798100E43402F583C083C082E0A2E713FFA3E0E1
:1079910013D082D083CFF0A3EFF0E5692561FD25F7
:1079A100E02488F582E43401F583C083C082E0A23B
:1079B100E713FFA3E013D082D083CFF0A3EFF0ED64
:1079C10025E02488F582E43402F583C083C082E097
:1079D100A2E713FFA3E013D082D083CFF0A3EFF08F
:1079E100E56125E02569F56902772705680276FBDF
:1079F1000567E567640860030276E4E4900288F0B5
:107A0100A3F0900188F0A3F0F568E56825E02488EB
:107A1100F582E43402F583E0FCA3E0FDE56825E0AE
:107A21002488F582E43402F583E0FEA3E0FF12AC82
:107A31004EAA06AB07E56825E02488F582E4340107
:107A4100F583E0FCA3E0FDE56825E02488F582E408
:107A51003401F583E0FEA3E0FF12AC4EEF2BF56697
:107A6100EE3AF565C3E5669408E56594005008E4CF
:107A7100F565F566027CC7C3E566940CE56594007F
:107A81005009756500756601027CC7C3E5669412ED
:107A9100E56594005009756500756602027CC7C3EF
:107AA100E566941CE56594005009756500756603EB
:107AB100027CC7C3E5669428E565940050097565A5
:107AC10000756604027CC7C3E5669431E5659400E0
:107AD1005009756500756605027CC7C3E56694406B
:107AE100E56594005009756500756606027CC7C39B
:107AF100E5669451E5659400500975650075660762
:107B0100027CC7C3E5669464E56594005009756518
:107B110000756608027CC7C3E5669479E565940043
:107B21005009756500756609027CC7C3E5669490C6
:107B3100E5659400500975650075660A027CC7C346
:107B4100E56694A9E5659400500975650075660BB5
:107B5100027CC7C3E56694C4E56594005009756568
:107B61000075660C027CC7C3E56694E1E565940087
:107B7100500975650075660D027CC7C3E565940102
:107B8100500975650075660E027CC7C3E566940EE3
:107B9100E5659401500975650075660F027CC7C3E0
:107BA100E5669444E56594015009756500756610B4
:107BB100027CC7C3E5669469E56594015009756562
:107BC10000756611027CC7C3E5669490E565940172
:107BD1005009756500756612027CC7C3E56694B9E4
:107BE100E56594015009756500756613027CC7C38C
:107BF100E56694E4E56594015009756500756614C0
:107C0100027CC7C3E5669411E56594025009756568
:107C110000756615027CC7C3E5669440E56594026C
:107C21005009756500756616027CC7C3E5669471D7
:107C3100E56594025009756500756617027CC7C336
:107C4100E56694A4E56594025008756500756618AB
:107C51008074C3E56694D9E56594025008756500A2
:107C61007566198061C3E5669410E5659403500853
:107C710075650075661A804EC3E5669449E565949D
:107C810003500875650075661B803BC3E5669484E7
:107C9100E5659403500875650075661C8028C3E589
:107CA1006694C1E5659403500875650075661D808D
:107CB10015C3E5659404500875650075661E800658
:107CC10075650075661F74002568F582E43400F55A
:107CD10083E0FFD3E5669FE5659400400E740025BF
:107CE10068F582E43400F583E566F074402568F5B3
:107CF10082E43400F583E0FFD3E5669FE5659400F7
:107D0100401C74402568F582E43400F583E566F093
:107D110074802568F582E43400F5837408F0056801
:0A7D2100E56864406003027A0B225B
:10B62000E4F542D28CD2ADE542C3948040F9E4F512
:10B6300067E56725E02488F582E43402F583E4F0C9
:10B64000A3F00567E567B480E81276E1E55A657610
:06B65000600312B1F622B6
:04B7D6007F887E13D7
:0FB7DA00EF1FAC0670011E4C6004000080F222CD
:10B7AC00D2D730D724C2827FF07E0012B7DA7FAABC
:10B7BC007E0012B7DAD2827F3C7E0012B7DAA28208
:0AB7CC007FC87E0012B7DA80D92290
:10B6F200E4FDF557EDC313FDC2827F017E0012B750
:10B70200DAD2827F017E0012B7DA308203430580EB
:10B712007F2D7E0012B7DA0557E557C3940840D44F
:02B72200AF0571
:01B724002202
:10B72500AD07E4F557C2827F017E0012B7DAEDC39B
:10B7350013FD92827F327E0012B7DAD2827F017EBC
:0EB745000012B7DA0557E557C3940840D82222
:10B25C003082FD12B7AC7FCC12B7257FBE12B7255A
:10B26C0012B6F28F7112B6F28F6CE56CD394C840A3
:10B27C0006636CFF6371FFE571C4540F75F00AA48B
:10B28C00FDACF0E56C75F0A0A42DFFE5F03CFEE5FF
:10B29C0071540F75F005A4FD131313541F7C002F6C
:10B2AC00F552EC3EF55112B7AC7FCC12B7257F446A
:03B2BC0002B725B1
:0BB5AC00E4FD7F8E12B5B7E4FD7F8048
:10B5B700C283C2B4D283755708C2B4AE07EE1392E2
:10B5C700B3EFC313FFD2B4D557EF755708C2B4AE64
:10B5D70005EE1392B3EDC313FDD2B4D557EFC28373
:01B5E7002241
:10B37F004396107F8D12B3A78F357F8912B3A78F96
:10B38F00537F8712B3A78F587F8B12B3A78F467F38
:08B39F008512B3A78F487F83DC
:10B3A700C283C2B4D283755708C2B4AE07EE1392F4
:10B3B700B3EFC313FFD2B4D557EF755708A2B392B3
:0DB3C700E7D2B4C313C2B4D557F3C283FF5D
:01B3D4002256
:10B3D5007F8112B3A78F707E07EF7807088002C3BD
:10B3E50013D8FCF570C39401403B12B5AC7D447F86
:10B3F5008212B5B77D107F8412B5B77D027F8612A4
:10B40500B5B77D017F8A12B5B77D057F8812B5B7BF
:10B415007D147F8C12B5B77DA37F9012B5B77D8063
:06B425007F8E12B5B72274
:10658D00758DF5758BCAE4F55BE5336003026656D0
:10659D00E55BC394385050C2A3E55B7004C2A18083
:1065AD0002D2A1E55BD394004031E55B1475F00395
:1065BD008425E02490F582E43401F583E0FEA3E028
:1065CD007805CEA2E713CE13D8F85401D3940074F6
:1065DD008094804004C2A08002D2A0E55B64377035
:1065ED0068C2A1C2A38062D2A1D2A3E55BD39437C6
:1065FD004055E55B24C8FFE55475F006A42469F504
:10660D0082E4345BF583E493FEA807088002C3138C
:10661D00D8FC5401D394004004D2A38002C2A3E558
:10662D006475F006A4246DF582E4345BF583E49380
:10663D00FEA807088002C313D8FC5401D394004070
:10664D0004D2A18002C2A1D2A0E4C39533400302BB
:10665D006CCEE533C3940F4003026CCEE55BC3945F
:10666D00384003026765E55B7006C2A1C2A38004D2
:10667D00D2A1D2A3E55BD394005003026751E55B31
:10668D001475F00384FD25E02490F582E43401F5C2
:10669D0083E53314FC75F00384FFE0FEA3E0A80747
:1066AD00088006CEA2E713CE13D8F85401D3940078
:1066BD00748094804004C2A28002D2A2E55BD39480
:1066CD00014026E53324FE75F00384E5F0701AE5EC
:1066DD003364016014E55B24FE75F00384E5F0700E
:1066ED0008D2A2E52D7002C2A3ED25E02490F5821B
:1066FD00E43401F583E53375F003842405FFE0FEF2
:10670D00A3E0A807088006CEA2E713CE13D8F8544D
:10671D0001D39400748094804004C2A08002D2A062
:10672D00EC75F00384E5F0701BE55BD39401401428
:10673D00E55B24FE75F00384E5F07008D2A0E52D2D
:10674D007002C2A1E55B64376003026CCEC2A1C2C8
:10675D00A3D2A0D2A2026CCED2A0D2A2D2A1D2A399
:10676D00E55BD394375003026CCEE533640170556D
:10677D00E55B24C8FFE55475F006A4246AF582E4B0
:10678D00345BF583E493FEA807088002C313D8FC9D
:10679D005401D394004004D2A38002C2A3E56475D2
:1067AD00F006A4246EF582E4345BF583E493FEA831
:1067BD0007088002C313D8FC5401D394004004D2BF
:1067CD00A18002C2A1E53364027055E55B24C8FFC8
:1067DD00E55475F006A4246BF582E4345BF583E48F
:1067ED0093FEA807088002C313D8FC5401D394006C
:1067FD004004D2A38002C2A3E56E75F006A42469FD
:10680D00F582E4345BF583E493FEA807088002C3A8
:10681D0013D8FC5401D394004004D2A18002C2A12C
:10682D00E53364037055E55B24C8FFE55475F00648
:10683D00A4246CF582E4345BF583E493FEA8070889
:10684D008002C313D8FC5401D394004004D2A3801A
:10685D0002C2A3E56E75F006A4246AF582E4345BEA
:10686D00F583E493FEA807088002C313D8FC5401F6
:10687D00D394004004D2A18002C2A1E53364047018
:10688D0055E55B24C8FFE55475F006A4246DF5822B
:10689D00E4345BF583E493FEA807088002C313D8A4
:1068AD00FC5401D394004004D2A38002C2A3E56E30
:1068BD0075F006A4246BF582E4345BF583E493FE56
:1068CD00A807088002C313D8FC5401D394004004D8
:1068DD00D2A18002C2A1E53364057055E55B24C8E1
:1068ED00FFE55475F006A4246EF582E4345BF58360
:1068FD00E493FEA807088002C313D8FC5401D39477
:10690D00004004D2A38002C2A3E56E75F006A42454
:10691D006CF582E4345BF583E493FEA807088002EE
:10692D00C313D8FC5401D394004004D2A18002C2F9
:10693D00A1E53364067055E55B24C8FFE55575F098
:10694D0006A42469F582E4345BF583E493FEA8077D
:10695D00088002C313D8FC5401D394004004D2A381
:10696D008002C2A3E56E75F006A4246DF582E434B1
:10697D005BF583E493FEA807088002C313D8FC548B
:10698D0001D394004004D2A18002C2A1E533640773
:10699D007055E55B24C8FFE55575F006A4246AF52E
:1069AD0082E4345BF583E493FEA807088002C313E9
:1069BD00D8FC5401D394004004D2A38002C2A3E5B5
:1069CD006E75F006A4246EF582E4345BF583E493D2
:1069DD00FEA807088002C313D8FC5401D3940040CD
:1069ED0004D2A18002C2A1E53364087060E55B2486
:1069FD00C8FFE55575F006A4246BF582E4345BF50C
:106A0D0083E493FEA807088002C313D8FC5401D376
:106A1D0094004004D2A38002C2A3EFC313FFE5315B
:106A2D00C454F024A5F582E4345BF58375F004E5D8
:106A3D006212ACEBE5822FF582E43583F583E493A6
:106A4D005401D394004004C2A08002D2A0E5336467
:106A5D00097060E55B24C8FFE55575F006A4246C4C
:106A6D00F582E4345BF583E493FEA807088002C346
:106A7D0013D8FC5401D394004004D2A38002C2A3C6
:106A8D00EFC313FFE531C454F024A5F582E4345B64
:106A9D00F58375F004E56212ACEBE5822FF582E427
:106AAD003583F583E4935401D394004004C2A08050
:106ABD0002D2A0E533640A7063E55B24C8FFE55597
:106ACD0075F006A4246DF582E4345BF583E493FE42
:106ADD00A807088002C313D8FC5401D394004004C6
:106AED00D2A38002C2A3EFC313FFE531C454F02437
:106AFD00A5F582E4345BF58375F004E56212ACEB29
:106B0D00E5822FF582E43583F583E493FFC31354B7
:106B1D0001D394004004C2A08002D2A0E533640BDF
:106B2D007063E55B24C8FFE55575F006A4246EF58A
:106B3D0082E4345BF583E493FEA807088002C31357
:106B4D00D8FC5401D394004004D2A38002C2A3EF19
:106B5D00C313FFE531C454F024A5F582E4345BF58D
:106B6D008375F004E56212ACEBE5822FF582E43516
:106B7D0083F583E493FFC3135401D394004004C2FF
:106B8D00A08002D2A0E533640C7063E55B24C8FFDE
:106B9D00E56475F006A42469F582E4345BF583E4BD
:106BAD0093FEA807088002C313D8FC5401D39400A8
:106BBD004004D2A38002C2A3EFC313FFE531C45436
:106BCD00F024A5F582E4345BF58375F004E56212DB
:106BDD00ACEBE5822FF582E43583F583E493FF1367
:106BED00135401D394004004C2A08002D2A0E53317
:106BFD00640D7063E55B24C8FFE56475F006A4249D
:106C0D006AF582E4345BF583E493FEA807088002FD
:106C1D00C313D8FC5401D394004004D2A38002C204
:106C2D00A3EFC313FFE531C454F024A5F582E4347A
:106C3D005BF58375F004E56212ACEBE5822FF5820E
:106C4D00E43583F583E493FF13135401D39400408B
:106C5D0004C2A08002D2A0E533640E7064E55B240B
:106C6D00C8FFE56475F006A4246BF582E4345BF58A
:106C7D0083E493FEA807088002C313D8FC5401D304
:106C8D0094004004D2A38002C2A3EFC313FFE531E9
:106C9D00C454F024A5F582E4345BF58375F004E566
:106CAD006212ACEBE5822FF582E43583F583E49334
:106CBD00FF1313135401D394004004C2A08002D2D9
:106CCD00A0E533640F6003026DA2E55BC3943850F9
:106CDD0052C2A1D2A0E55B7004C2A38002D2A3E58B
:106CED005BD394004031E55B1475F0038425E024FB
:106CFD0090F582E43401F583E0FEA3E07804CEA2A2
:106D0D00E713CE13D8F85401D394007480948040C7
:106D1D0004C2A28002D2A2E55B64377078C2A1C220
:106D2D00A38072D2A1D2A3D2A1D2A2E55BD3943714
:106D3D004063E55B24C8FFE56475F006A4246CF59B
:106D4D0082E4345BF583E493FEA807088002C31345
:106D5D00D8FC5401D394004004D2A38002C2A3EF07
:106D6D00C313FFE531C454F024A5F582E4345BF57B
:106D7D008375F004E56212ACEBE5822FF582E43504
:106D8D0083F583E4931313135401D394004004C289
:106D9D00A08002D2A0D2A77F027E0012B7DAC2A7CE
:106DAD00055BE55BC39440500302659612AB9A53A5
:106DBD0096EFE533C3940F500405338003E4F533A8
:106DCD00056774FA854AF084B567120568E4F567BE
:106DDD00E568D394034006752801E4F56820B509EC
:106DED0020B6067E007F0180047E007F00E5637C77
:106DFD0000B446047D0180027D00EC4EFEED4F4E49
:106E0D006038E4F55B055BE55BB464F920B50920FA
:106E1D00B6067E007F0180047E007F00E5637C0066
:106E2D00B446047D0180027D00EC4EFEED4F4E60B8
:0B6E3D0009E4F563755A0285764D22CA
:1081C300E572B40103756001E56070030283B3E5F2
:1081D3005A640160030283B3F570E57025E02488D7
:1081E300F582E43401F583740CF0A3E4F00570E543
:1081F30070B440E690018E740FF0A374FFF0900109
:108203008C740FF0A374FFF090018A740FF0A374C1
:10821300FFF0900188740FF0A374FFF0756E01E511
:108223007260A5E55AB401A0E563B444047F0180FC
:10823300027F0020B0047E0180027E00EE4F603496
:108243007FD07E0712B7DAE563B444047F0180026E
:108253007F0020B0047E0180027E00EE4F600EE4BA
:10826300F563056EE56ED394094002156E7F107EAB
:108273002712B7DAE563B443047F0180027F00204D
:10828300B1047E0180027E00EE4F602E7FD07E0718
:1082930012B7DAE563B443047F0180027F0020B1A3
:1082A300047E0180027E00EE4F6008E4F563D56E24
:1082B30002056E7F107E2712B7DAE563B440047FB0
:1082C3000180027F0020B5047E0180027E00EE4F14
:1082D30070030282227FE87E0312B7DAE563B440BB
:1082E300047F0180027F0020B5047E0180027E00AE
:1082F300EE4F700302822220B51AE563B44015E401
:10830300F563052A7F0AFE12B7DAE52AB41EE8757B
:108313002A0580E3E4F560F572856E4AF56E12B5C1
:108323001D7C00EF252FFFEC3EFEEF254EFFEC3EBC
:10833300FEEF254FFFEC3EFEEF252AFFEC3EFE123B
:10834300B55F754E04754F1285315085622F12B596
:108353001D7C007D0612ACB58D3112B51D7C007DF0
:108363000312ACB58D6212B51D7C00EF252FFFEC17
:108373003EFEEF254EFFEC3EFEEF254FFFEC3EFEAB
:10838300EF252AFFEC3EFE12B55F85315085622F43
:1083930012B51D7C007D0612ACB58D3112B51D7C66
:1083A300007D0312ACB58D62E4F565F566028222A9
:1083B30075600112B2BFE56070030285EBE55A6494
:1083C3000160030285EBE563B444047F0180027F0F
:1083D3000020B0047E0180027E00EE4F60407FE803
:1083E3007E0312B7DAE563B444047F0180027F00A1
:1083F30020B0047E0180027E00EE4F601AE4F56334
:10840300E54ED39400401012AEAB154E12AF35BFFC
:108413000102054E12B2BF7FC87E3212B7DAE5639E
:10842300B443047F0180027F0020B1047E018002F7
:108433007E00EE4F60397FE87E0312B7DAE563B45E
:1084430043047F0180027F0020B1047E0180027E0D
:1084530000EE4F6013E4F56312AEAB054E12AF3579
:10846300BF0102154E12B2BF7FC87E3212B7DAE5E2
:1084730063B440047F0180027F0020B5047E018045
:10848300027E00EE4F60467FE87E0312B7DAE563B3
:10849300B440047F0180027F0020B5047E01800286
:1084A3007E00EE4F601DE4F56312AEAB052F12AFF5
:1084B30035BF0102152FE52FD394034003E4F52FB5
:1084C30012B2BF30B5FD7FE87E0312B7DAE563B4BD
:1084D30015047F0180027F0020B6047E0180027EA6
:1084E30000EE4F60617FE87E0312B7DAE563B415EF
:1084F300047F0180027F0020B6047E0180027E009B
:10850300EE4F603B75470120B606E5476401600600
:10851300E5636415702612AEAB154F12AF35BF017C
:108523000AE4F547054F752801F563E547B40103F0
:1085330012B2BF7FDC7E0512B7DA80CB12B2BF7FE7
:10854300E87E0312B7DAE528640160030285DF12CF
:10855300AEAB154F12AF35EF64017072054F12B217
:10856300BF12A0A712B56A12AF35EF6401705F1294
:10857300B2BF30B504E56360F9E4F5637FFE7EFFC7
:1085830012B7DAE4F570E57025E02488F582E43467
:1085930001F583740CF0A3E4F00570E570B440E6D4
:1085A30090018E740FF0A374FFF090018C740FF0A0
:1085B300A374FFF090018A740FF0A374FFF090018D
:1085C30088740FF0A374FFF0E4F56075720112B2C2
:1085D300BFE572B4010312AEABE4F528E5766003A0
:1085E3000283B9F5600283B9E55A6576600312B177
:0285F300F6226E
:10AEAB00E4F570E550C454F024A5F582E4345BF569
:10AEBB008375F004E52F12ACEBE5822570F582E487
:10AECB003583F583E493F54CE4F569E54C5401D3F4
:10AEDB009400403DE54F257025E02488F582E4344D
:10AEEB0001F583C083C082E0FEA3E0FFE54E256938
:10AEFB0025E024D5F582E43459F583E493FC740101
:10AF0B0093FDEE5CFEEF5DFFD082D083EEF0A3EFFE
:10AF1B00F0E54CC313F54C0569E569B404AD057058
:0AAF2B00E5706404600302AEAE227C
:10B2BF00E4F569E550C454F024A5F582E4345BF558
:10B2CF008375F004E52F12ACEBE5822569F582E476
:10B2DF003583F583E493FF7E00A84E088005C333C2
:10B2EF00CE33CED8F9FFE54F256925E02488F582C6
:10B2FF00E43401F583C083C082E04EFDA3E04FD05C
:0FB30F0082D083CDF0A3EDF00569E569B404A405
:01B31E00220C
:10B56A0012B51D7C00EF252FFFEC3EFEEF254EFFA6
:10B57A00EC3EFEEF254FFFEC3EFE12B55F754E0422
:10B58A00754F1285315085622F12B51D7C007D07DB
:10B59A0012ACB58D3112B51D7C007D0412ACB58D8F
:02B5AA0062221B
:10A0A700E4F54C756904E56925E02488F582E43414
:10A0B70001F583E0FEA3E0FFBE0F16BFFF13054CBB
:10A0C700E56925E02488F582E43401F583E4F0A30B
:10A0D700F00569E569B416CE12B7D6756904E56966
:10A0E70025E02488F582E43401F583E0FEA3E04E01
:10A0F7007014E56925E02488F582E43401F583745A
:10A107000FF0A374FFF00569E569B416D112B7D64D
:10A11700756904E56925E02488F582E43401F5834F
:10A12700E0FEA3E0FFBE0F14BFFF11E56925E024A1
:10A1370088F582E43401F583E4F0A3F00569E56965
:10A14700B416D012B7D6756904E56925E02488F5F9
:10A1570082E43401F583E0FEA3E04E704085697028
:10A16700857061E561C394165028E56125E0248A6E
:10A17700F582E43401F583E0FEA3E0FFE56125E025
:10A187002488F582E43401F583EEF0A3EFF005614E
:10A1970080D19001B4740CF0A3E4F015690569E56A
:10A1A70069C3941640A3E54CB401080566E56670DB
:10A1B700020565E54CB4020B74022566F566E435C5
:10A1C70065F565E54CB4030B74052566F566E4355E
:10A1D70065F565E54CB4040B740A2566F566E43548
:10A1E70065F565AE65AF667C007D0A12AC608D6E65
:10A1F700AE65AF667C007D6412AC607E007F0ACFDF
:10A20700CDCFCECCCE12AC608F64AE65AF667C038B
:10A217007DE812AC607E007F64CFCDCFCECCCE126E
:10A22700AC608F55AE65AF667C037DE812AC608F7E
:02A237005422AF
:10AF3500E4F561F544F545F569E550C454F024A5FB
:10AF4500F582E4345BF58375F004E52F12ACEBE58F
:10AF5500822569F582E43583F583E493754400F52C
:10AF650045AE44A84E088005C333CE33CED8F9F597
:10AF7500458E44E54F2569FF25E02488F582E434B4
:10AF850001F583E04544FCA3E04545FDEF25E024BC
:10AF950088F582E43401F583E0FEA3E02545FFE56D
:10AFA500443EFEEF6D7002EE6C600375610105694C
:09AFB500E56964047083AF6122B8
:109A9000758DF5758BCAE4F55B75F008E533A42583
:109AA0005BF582E435F0F583E5822488F582E58371
:109AB0003401F583E0F56775F008E533A4255BF51F
:109AC00082E435F0F583E5822408F582E5833402EB
:109AD000F583E0F56875F008E533A4255BF582E4CD
:109AE00035F0F583E5822488F582E5833402F58339
:109AF000E0F56975F008E533A4255BF582E435F0FF
:109B0000F583E5822408F582E5833403F583E0F5E7
:109B100061E4F54A856770AF4AE570A807088002DE
:109B2000C313D8FC5401D394004004D2A38002C2D2
:109B3000A3856870AF4AE568A807088002C313D8F8
:109B4000FC5401D394004004D2A18002C2A18569D3
:109B500070AF4AE569A807088002C313D8FC540116
:109B6000D394004004D2A28002C2A2856170AF4AA1
:109B7000E561A807088002C313D8FC5401D3940000
:109B80004004D2A08002C2A0D2A77F027E0012B7FA
:109B9000DAC2A7054AE54AC394085003029B14059C
:109BA0005BE55BC394085003029A9912AB9A5396F3
:109BB000EFE533C3940F500405338003E4F5330518
:109BC00037E53770020536648D7004E53664017040
:109BD0000EE5766403700812B37F8F415396EFD37E
:109BE000E53794F5E5369402400EE4F536F5374353
:109BF000961012B25C5396EF0572E572D3946440EE
:109C00000CE4F57243961012ACF75396EF0525E578
:109C10002570020524D39454E52464809481402067
:109C2000E4F524F525E576B40316300113439610C8
:109C300020000512B68A800312B6BE5396EFB2001A
:109C400020B51C20B619E4F54A054AE54AB464F982
:109C500020B50C20B609E4F563755A0285764DE50A
:109C6000766402600EE563B44009E4F563755A0258
:109C700085764DE576B40425053CE53C7002053B50
:109C8000E529FD7C007E017FF412AC60D3E53C9FAA
:0E9C9000E53B9E4008E4F53BF53C755501228E
:106E4800753D0175560112B0BC12B125E4F559E53E
:106E58005990622D93FF74002559F582E43400F5AA
:106E680083EFF0E55990626D93FF74402559F582E0
:106E7800E43400F583EFF0E5599062AD93FF748038
:106E88002559F582E43400F583EFF00559E559B446
:106E980040BDE4F55930B1FD30B5FD754301E55607
:106EA8007003027628128DD2E5436404706112855E
:106EB800F5E563B440047F0180027F0020B5047EBD
:106EC8000180027E00EE4F60DF12B7D6E563B44062
:106ED800047F0180027F0020B5047E0180027E00CD
:106EE800EE4F6023E4F563E53DB40103E4F54DE5B9
:106EF8003DB40203754D01E53DB40303754D03E54B
:106F08003DB40403754D0475430120B59B80FBE532
:106F180043640570891285F5E563B440047F0180F8
:106F2800027F0020B5047E0180027E00EE4F60449F
:106F380012B7D6E563B440047F0180027F0020B514
:106F4800047E0180027E00EE4F6023E4F563E53D98
:106F5800B40103753F06E53DB40203753F07E53DFF
:106F6800B40303753F08E53DB40403753F0930B524
:106F7800FD752301E563B415047F0180027F0020BD
:106F8800B6047E0180027E00EE4F602412B7D6E57B
:106F980063B415047F0180027F0020B6047E01805F
:106FA800027E00EE4F6006E4F56375430130B6FDDE
:106FB800E53F64066003027194E52364017076F589
:106FC80059E55990622D93FF74002559F582E434F0
:106FD80000F583EFF00559E559B420E512B0BC126D
:106FE800B125E4F511F5127B027D177F3212B32B20
:106FF800E4F559E55990646D93FF74002559F582BD
:10700800E43400F583EFF00559E559B420E5E4F5DB
:1070180059E55990644D93FF74202559F582E4345D
:1070280000F583EFF00559E559B420E512AA0C855F
:10703800233D752303E52364027076F559E55990DD
:10704800622D93FF74002559F582E43400F583EF2F
:10705800F00559E559B420E512B0BC12B125E4F5A4
:1070680011F5127B027D177F3212B32BE4F559E537
:107078005990644D93FF74002559F582E43400F566
:1070880083EFF00559E559B420E5E4F559E5599041
:10709800646D93FF74202559F582E43400F583EF7D
:1070A800F00559E559B420E512AA0C85233D75234E
:1070B80003E563B444047F0180027F0020B0047EAE
:1070C8000180027E00EE4F602E12B7D6E563B4440D
:1070D800047F0180027F0020B0047E0180027E00D0
:1070E800EE4F6010E4F563E53DB4010575230280B9
:1070F8000375230130B0FDE563B443047F018002CA
:107108007F0020B1047E0180027E00EE4F602E12C7
:10711800B7D6E563B443047F0180027F0020B10441
:107128007E0180027E00EE4F6010E4F563E53DB419
:107138000105752302800375230130B0FDE563B4B2
:1071480040047F0180027F0020B5047E0180027E1A
:1071580000EE4F7003026FB812B7D6E563B440046F
:107168007F0180027F0020B5047E0180027E00EE50
:107178004F6010E4F563E53DB40105753A018003FD
:10718800E4F53A30B5FD753F01026FB8E53F640795
:107198006003027370E52364017076F559E5599030
:1071A800608D93FF74002559F582E43400F583EF70
:1071B800F00559E559B420E512B0BC12B125E4F543
:1071C80011F5127B027D177F3212B32BE4F559E5D6
:1071D8005990652D93FF74002559F582E43400F524
:1071E80083EFF00559E559B420E5E4F559E55990E0
:1071F800650D93FF74202559F582E43400F583EF7B
:10720800F00559E559B420E512AA0C85233D7523EC
:1072180003E52364027076F559E55990608D93FF74
:1072280074002559F582E43400F583EFF00559E53B
:1072380059B420E512B0BC12B125E4F511F5127B62
:10724800027D177F3212B32BE4F559E55990650D8D
:1072580093FF74002559F582E43400F583EFF005B7
:1072680059E559B420E5E4F559E55990652D93FFA2
:1072780074202559F582E43400F583EFF00559E5CB
:1072880059B420E512AA0C85233D752303E563B4A0
:1072980044047F0180027F0020B0047E0180027ECA
:1072A80000EE4F602E12B7D6E563B444047F018028
:1072B800027F0020B0047E0180027E00EE4F601045
:1072C800E4F563E53DB401057523028003752301E8
:1072D80030B0FDE563B443047F0180027F0020B134
:1072E800047E0180027E00EE4F602E12B7D6E56361
:1072F800B443047F0180027F0020B1047E01800234
:107308007E00EE4F6010E4F563E53DB4010575239A
:1073180002800375230130B0FDE563B440047F01AA
:1073280080027F0020B5047E0180027E00EE4F704F
:107338000302719412B7D6E563B440047F0180025A
:107348007F0020B5047E0180027E00EE4F6010E4CD
:10735800F563E53DB40105E4F52D8003752D013095
:10736800B5FD753F01027194E53F6408600302763C
:107378001AE52364016003027435754B20757305A3
:1073880012A6A4C3743F954BFF7B03AD7312A6AA44
:107398000573E573C3941A40E77F707E1712B7DA56
:1073A800054BE54BC3943C40D4E4F559E55990624C
:1073B800AD93FF74202559F582E43400F583EFF08E
:1073C8000559E559B420E5E4F55974002559F582C5
:1073D800E43400F58374FFF00559E559B420EB7DDA
:1073E800B87C0B7F1E12AA12E4F559E5599062CDBC
:1073F80093FF74202559F582E43400F583EFF005F6
:1074080059E559B420E5E4F55974002559F582E4A5
:107418003400F58374FFF00559E559B420EB7DB8C5
:107428007C0B7F3212AA1285233D752303E5236462
:107438000260030274F1754B2075730512A6A4C38C
:10744800743F954BFF7B03AD7312A6AA0573E573D2
:10745800C3941A40E77F707E1712B7DA054BE54BE5
:10746800C3943C40D4E4F559E55990654D93FF74B5
:10747800202559F582E43400F583EFF00559E559E4
:10748800B420E5E4F55974002559F582E43400F593
:107498008374FFF00559E559B420EB7DB87C0B7F68
:1074A8001E12AA12E4F559E55990656D93FF7420F0
:1074B8002559F582E43400F583EFF00559E559B410
:1074C80020E5E4F55974002559F582E43400F58384
:1074D80074FFF00559E559B420EB7DB87C0B7F3279
:1074E80012AA1285233D752303E563B444047F0182
:1074F80080027F0020B0047E0180027E00EE4F6093
:107508002E12B7D6E563B444047F0180027F0020C1
:10751800B0047E0180027E00EE4F6010E4F563E562
:107528003DB40105752302800375230130B0FDE5E4
:1075380063B443047F0180027F0020B1047E018090
:10754800027E00EE4F602E12B7D6E563B443047F87
:107558000180027F0020B1047E0180027E00EE4F90
:107568006010E4F563E53DB40105752302800375F9
:10757800230130B0FDE563B440047F0180027F0041
:1075880020B5047E0180027E00EE4F603112B7D62E
:10759800E563B440047F0180027F0020B5047E01CA
:1075A80080027E00EE4F6010E4F563E53DB401050E
:1075B800752304800375230530B5FD753201E56335
:1075C800B415047F0180027F0020B6047E0180028A
:1075D8007E00EE4F602412B7D6E563B415047F0130
:1075E80080027F0020B6047E0180027E00EE4F609C
:1075F80006E4F563753F0130B6FDE523B4040512D2
:107608001B7C80F6E5236405600302737075230113
:1076180080F2E53F64096003026F17753F0180F24D
:10762800854D7685765AE576705CF5677400256732
:10763800F582E43400F583E4F074402567F582E4CC
:107648003400F583E4F074802567F582E43400F5AE
:1076580083E4F00567E567B440D2E4F567E567259C
:10766800E02488F582E43401F583E4F0A3F0E567CB
:1076780025E02488F582E43402F583E4F0A3F005DC
:1076880067E567B480D7E576B40145E4F570E57041
:1076980025E02488F582E43401F583740CF0A3E432
:1076A800F00570E570B440E690018E740FF0A37495
:1076B800FFF090018C740FF0A374FFF090018A74AE
:1076C8000FF0A374FFF0900188740FF0A374FFF01B
:0976D800E576B4030312B1F922B6
:08A4E2001313540104FBAF4CFD
:10A4EA008B08EFC39440400302A5C2EDC3942040F9
:10A4FA000302A5C2E508B4012DEF131313541FFE7E
:10A50A00ED75F008A42EF53E2488F582E43401F5B1
:10A51A0083C083C082E0FEEF54079059C593FCEED6
:10A52A005CD082D083F0E508B4022DEF13131354E4
:10A53A001FFEED75F008A42EF53E2488F582E4345A
:10A54A0002F583C083C082E0FEEF54079059C59399
:10A55A00FCEE5CD082D083F0E5086403705AEF13F6
:10A56A001313541FFEED75F008A42EF53E2488F54A
:10A57A0082E43401F583C083C082E0FEEF54079081
:10A58A0059C593FCEE5CD082D083F0EF13131354B9
:10A59A001FFEED75F008A42EF53E2488F582E434FA
:10A5AA0002F583C083C082E0FEEF54079059C59339
:09A5BA00FFEE5FD082D083F02295
:10A862008B08EFC39440400302A93AEDC394204001
:10A872000302A93AE508B4012DEF131313541FFE86
:10A88200ED75F008A42EF53E2488F582E43401F536
:10A8920083C083C082E0FEEF54079059CD93FCEE53
:10A8A2004CD082D083F0E508B4022DEF1313135479
:10A8B2001FFEED75F008A42EF53E2488F582E434DF
:10A8C20002F583C083C082E0FEEF54079059CD9316
:10A8D200FCEE4CD082D083F0E5086403705AEF138B
:10A8E2001313541FFEED75F008A42EF53E2488F5CF
:10A8F20082E43401F583C083C082E0FEEF54079006
:10A9020059CD93FCEE4CD082D083F0EF1313135445
:10A912001FFEED75F008A42EF53E2488F582E4347E
:10A9220002F583C083C082E0FEEF54079059CD93B5
:09A93200FFEE4FD082D083F02229
:08A5C300FFEA75F003A414FD8A
:10A5CB008B11EFC39440400302A6A3EDC39420402C
:10A5DB000302A6A3E511B4012DEF131313541FFEB1
:10A5EB00ED75F008A42EF5472488F582E43401F5C7
:10A5FB0083C083C082E0FEEF54079059C593FCEEF5
:10A60B005CD082D083F0E511B4022DEF13131354F9
:10A61B001FFEED75F008A42EF5472488F582E4346F
:10A62B0002F583C083C082E0FEEF54079059C593B7
:10A63B00FCEE5CD082D083F0E5116403705AEF130B
:10A64B001313541FFEED75F008A42EF5472488F55F
:10A65B0082E43401F583C083C082E0FEEF5407909F
:10A66B0059C593FCEE5CD082D083F0EF13131354D7
:10A67B001FFEED75F008A42EF5472488F582E4340F
:10A68B0002F583C083C082E0FEEF54079059C59357
:09A69B00FFEE5FD082D083F022B3
:06A6A400AD737B03AF4B18
:10A6AA008B11EFC39440400302A782EDC39420406C
:10A6BA000302A782E511B4012DEF131313541FFEF1
:10A6CA00ED75F008A42EF5472488F582E43401F5E7
:10A6DA0083C083C082E0FEEF54079059CD93FCEE0D
:10A6EA004CD082D083F0E511B4022DEF131313542A
:10A6FA001FFEED75F008A42EF5472488F582E43490
:10A70A0002F583C083C082E0FEEF54079059CD93CF
:10A71A00FCEE4CD082D083F0E5116403705AEF133B
:10A72A001313541FFEED75F008A42EF5472488F57F
:10A73A0082E43401F583C083C082E0FEEF540790BF
:10A74A0059CD93FCEE4CD082D083F0EF13131354FF
:10A75A001FFEED75F008A42EF5472488F582E4342F
:10A76A0002F583C083C082E0FEEF54079059CD936F
:09A77A00FFEE4FD082D083F022E3
:10B0BC00755908E559C394F5501774882559F582CC
:10B0CC00E43401F583E044FEF074082559F5598009
:10B0DC00E275590FE559C394FC501774882559F53E
:10B0EC0082E43401F583E0447FF074082559F55966
:10B0FC0080E275590974882559F582E43401F58389
:10B10C0074FFF0E5595407FFBF06040559055905AE
:09B11C0059E559C394F740DD2206
:10B12500755908E559C394F5501774882559F58262
:10B13500E43402F583E044FEF074082559F559809E
:10B14500E275590FE559C394FC501774882559F5D4
:10B1550082E43402F583E0447FF074082559F559FB
:10B1650080E275590974882559F582E43402F5831E
:10B1750074FFF0E5595407FFBF0604055905590545
:09B1850059E559C394F740DD229D
:10ACF7000560E560D394074003E4F560E4F54C7B19
:10AD070003E4FDAF4C12A862E54C2407C39560121B
:10AD1700A4E2054CE54CC3944040E4E4F54C7B03C6
:10AD2700AD4C7F3F12A862E54C2407C3956013130F
:10AD3700540104FBAD4C7F3F12A4EA054CE54CC31C
:10AD4700941F40DAE4F54C7B037D1FAF4C12A862D9
:10AD5700E54C2560240512A4E2054CE54CC394405C
:10AD670040E5E4F54C7B03AD4CE4FF12A862E54CEB
:10AD7700256024051313540104FBAD4CE4FF12A412
:0BAD8700EA054CE54CC3941F40DB22A2
:0C357000AF01751901E4F51A7B01AD0DE7
:10357C008F168D178B18E51864016003023A0EE55F
:10358C0017C39408400302371DE516C3940850690D
:10359C00E4F559E559C39517505FE55975F008A442
:1035AC002488F582E43401F583C083C082E0FDE514
:1035BC001975F008A4FFE5597A002FFFEA35F0FEE3
:1035CC00E51A2FFFEA3EFEE517FBC3EF9BFFEE9AD1
:1035DC00FE74082FF58274003EF583E0F4FFC3748B
:1035EC00089516FEEFA806088002C313D8FCF45DFC
:1035FC00D082D083F00559809AE516D394075003F6
:10360C0002371DE5169448400302371DE4F559E5D1
:10361C0059C395175071E516131313541FFF75F00A
:10362C0008E559A42FF582E435F0F583E58224876B
:10363C00F582E5833401F583C083C082E0FDE51992
:10364C0075F008A4FFE5597A002FFFEA35F0FEE586
:10365C001A2FFFEA3EFEE517FBC3EF9BFFEE9AFE27
:10366C0074082FF58274003EF583E0F4FFE51654E0
:10367C0007FEEFA806088002C333D8FCF45DD082A5
:10368C00D083F005598088E516C394404003023777
:10369C001DE4F559E559C395175076E51613131328
:1036AC00541FFF75F008E559A42FF582E435F0F5A9
:1036BC0083E5822488F582E5833401F583C083C0D9
:1036CC0082E0FDE51975F008A4FFE5597A002FFF9B
:1036DC00EA35F0FEE51A2FFFEA3EFEE517FBC3EFD5
:1036EC009BFFEE9AFE74082FF58274003EF583E082
:1036FC00F4FFE5165407FEC374089EFEEFA80608F7
:10370C008002C313D8FCF45DD082D083F0055980BD
:10371C0083E517D394075003023888E517942140AA
:10372C0003023888E516C39408505CE4F55975F02B
:10373C0008E559A4F58285F08375F008E51712ACFD
:10374C00EBE5822448F582E5833401F583C083C020
:10375C0082E0FFE51975F008A42559251A2400F517
:10376C0082E43400F583E0F4FEC374089516FDEE94
:10377C00A805088002C313D8FCF45FD082D083F074
:10378C000559E559B408A7E516D394075003023838
:10379C0088E51694484003023888E4F559E55975D4
:1037AC00F008A4FDACF0E51775F008A42DFFE5F0CA
:1037BC003CFEE51624F8131313541F7C002FFFEC6A
:1037CC003EFE74482FF58274013EF583C083C0829F
:1037DC00E0FFE51975F008A42559251A2400F58297
:1037EC00E43400F583E0F4FEE5165407FDEEA8057D
:1037FC00088002C333D8FCF45FD082D083F0055923
:10380C00E559B40898E516C394405070E4F559E5B1
:10381C005975F008A4FDACF0E51775F008A42DFF60
:10382C00E5F03CFEE51624F8131313541F7C002F0F
:10383C00FFEC3EFE74492FF58274013EF583C08384
:10384C00C082E0FFE51975F008A42559251A24005B
:10385C00F582E43400F583E0F4FEE5165407FDC36D
:10386C0074089DFDEEA805088002C313D8FCF45F14
:10387C00D082D083F00559E559B40893E517D39459
:10388C00205003023A0EE51794294003023A0EE544
:10389C0016C394085065E4F559C374289517FFE5D1
:1038AC0059C39F505675F008E559A4F58285F083ED
:1038BC0075F008E51712ACEBE5822448F582E58338
:1038CC003401F583C083C082E0FFE51975F008A4CC
:1038DC002559251A2400F582E43400F583E0F4FE22
:1038EC00C374089516FDEEA805088002C313D8FC16
:1038FC00F45FD082D083F00559809EE516D39407EF
:10390C005003023A0EE51694484003023A0EE4F5D1
:10391C0059C374289517FFE559C39F5065E5597530
:10392C00F008A4FDACF0E51775F008A42DFFE5F048
:10393C003CFEE51624F8131313541F7C002FFFECE8
:10394C003EFE74482FF58274013EF583C083C0821D
:10395C00E0FFE51975F008A42559251A2400F58215
:10396C00E43400F583E0F4FEE5165407FDEEA805FB
:10397C00088002C333D8FCF45FD082D083F00559A1
:10398C00808FE516C394405079E4F559C37428959B
:10399C0017FFE559C39F506AE55975F008A4FDACB3
:1039AC00F0E51775F008A42DFFE5F03CFEE51624B4
:1039BC00F8131313541F7C002FFFEC3EFE74492F99
:1039CC00F58274013EF583C083C082E0FFE5197572
:1039DC00F008A42559251A2400F582E43400F58357
:1039EC00E0F4FEE5165407FDC374089DFDEEA80532
:1039FC00088002C313D8FCF45FD082D083F0055941
:103A0C00808AE51864026003023E9AE517C39408A5
:103A1C004003023BA9E516C394085069E4F559E547
:103A2C0059C39517505FE55975F008A42488F582A1
:103A3C00E43402F583C083C082E0FDE51975F0081B
:103A4C00A4FFE5597A002FFFEA35F0FEE51A2FFFA7
:103A5C00EA3EFEE517FBC3EF9BFFEE9AFE74082FC0
:103A6C00F58274003EF583E0F4FFC374089516FEEE
:103A7C00EFA806088002C313D8FCF45DD082D08373
:103A8C00F00559809AE516D394075003023BA9E53B
:103A9C001694484003023BA9E4F559E559C3951720
:103AAC005071E516131313541FFF75F008E559A454
:103ABC002FF582E435F0F583E5822487F582E583E2
:103ACC003402F583C083C082E0FDE51975F008A4CB
:103ADC00FFE5597A002FFFEA35F0FEE51A2FFFEAD1
:103AEC003EFEE517FBC3EF9BFFEE9AFE74082FF525
:103AFC008274003EF583E0F4FFE5165407FEEFA850
:103B0C0006088002C333D8FCF45DD082D083F00564
:103B1C00598088E516C394404003023BA9E4F5594B
:103B2C00E559C395175076E516131313541FFF75FB
:103B3C00F008E559A42FF582E435F0F583E58224ED
:103B4C0088F582E5833402F583C083C082E0FDE50D
:103B5C001975F008A4FFE5597A002FFFEA35F0FE3D
:103B6C00E51A2FFFEA3EFEE517FBC3EF9BFFEE9A2B
:103B7C00FE74082FF58274003EF583E0F4FFE51621
:103B8C005407FEC374089EFEEFA806088002C313F8
:103B9C00D8FCF45DD082D083F005598083E517D32F
:103BAC0094075003023D14E51794214003023D1481
:103BBC00E516C39408505CE4F55975F008E559A472
:103BCC00F58285F08375F008E51712ACEBE58224DD
:103BDC0048F582E5833402F583C083C082E0FFE5BB
:103BEC001975F008A42559251A2400F582E434002F
:103BFC00F583E0F4FEC374089516FDEEA805088065
:103C0C0002C313D8FCF45FD082D083F00559E55978
:103C1C00B408A7E516D394075003023D14E5169497
:103C2C00484003023D14E4F559E55975F008A4FD2C
:103C3C00ACF0E51775F008A42DFFE5F03CFEE51699
:103C4C0024F8131313541F7C002FFFEC3EFE744812
:103C5C002FF58274023EF583C083C082E0FFE51924
:103C6C0075F008A42559251A2400F582E43400F5D2
:103C7C0083E0F4FEE5165407FDEEA805088002C3A8
:103C8C0033D8FCF45FD082D083F00559E559B408E1
:103C9C0098E516C394405070E4F559E55975F00851
:103CAC00A4FDACF0E51775F008A42DFFE5F03CFE83
:103CBC00E51624F8131313541F7C002FFFEC3EFE63
:103CCC0074492FF58274023EF583C083C082E0FFF5
:103CDC00E51975F008A42559251A2400F582E43459
:103CEC0000F583E0F4FEE5165407FDC374089DFD52
:103CFC00EEA805088002C313D8FCF45FD082D083F1
:103D0C00F00559E559B40893E517D39420500302F4
:103D1C003E9AE51794294003023E9AE516C394088F
:103D2C005065E4F559C374289517FFE559C39F50A6
:103D3C005675F008E559A4F58285F08375F008E511
:103D4C001712ACEBE5822448F582E5833402F58347
:103D5C00C083C082E0FFE51975F008A42559251A27
:103D6C002400F582E43400F583E0F4FEC374089576
:103D7C0016FDEEA805088002C313D8FCF45FD082B0
:103D8C00D083F00559809EE516D394075003023E6C
:103D9C009AE51694484003023E9AE4F559C37428F8
:103DAC009517FFE559C39F5065E55975F008A4FDBB
:103DBC00ACF0E51775F008A42DFFE5F03CFEE51618
:103DCC0024F8131313541F7C002FFFEC3EFE744891
:103DDC002FF58274023EF583C083C082E0FFE519A3
:103DEC0075F008A42559251A2400F582E43400F551
:103DFC0083E0F4FEE5165407FDEEA805088002C327
:103E0C0033D8FCF45FD082D083F00559808FE5164F
:103E1C00C394405079E4F559C374289517FFE559BC
:103E2C00C39F506AE55975F008A4FDACF0E5177511
:103E3C00F008A42DFFE5F03CFEE51624F81313134F
:103E4C00541F7C002FFFEC3EFE74492FF582740248
:103E5C003EF583C083C082E0FFE51975F008A42508
:103E6C0059251A2400F582E43400F583E0F4FEE5CC
:103E7C00165407FDC374089DFDEEA805088002C307
:103E8C0013D8FCF45FD082D083F00559808AE518F2
:103E9C00640360030247A9E517C39408400302407A
:103EAC0035E516C394085069E4F559E559C39517DF
:103EBC00505FE55975F008A42488F582E43401F5C7
:103ECC0083C083C082E0FDE51975F008A4FFE559B5
:103EDC007A002FFFEA35F0FEE51A2FFFEA3EFEE5E9
:103EEC0017FBC3EF9BFFEE9AFE74082FF58274004C
:103EFC003EF583E0F4FFC374089516FEEFA80608A0
:103F0C008002C313D8FCF45DD082D083F0055980B5
:103F1C009AE516D394075003024035E516944840B1
:103F2C0003024035E4F559E559C395175071E51670
:103F3C00131313541FFF75F008E559A42FF582E4F1
:103F4C0035F0F583E5822487F582E5833401F5832A
:103F5C00C083C082E0FDE51975F008A4FFE5597A2D
:103F6C00002FFFEA35F0FEE51A2FFFEA3EFEE517BB
:103F7C00FBC3EF9BFFEE9AFE74082FF58274003E94
:103F8C00F583E0F4FFE5165407FEEFA8060880025F
:103F9C00C333D8FCF45DD082D083F005598088E51A
:103FAC0016C394404003024035E4F559E559C395D6
:103FBC00175076E516131313541FFF75F008E559C7
:103FCC00A42FF582E435F0F583E5822488F582E5AB
:103FDC00833401F583C083C082E0FDE51975F008D8
:103FEC00A4FFE5597A002FFFEA35F0FEE51A2FFF02
:103FFC00EA3EFEE517FBC3EF9BFFEE9AFE74082F1B
:10400C00F58274003EF583E0F4FFE5165407FEC319
:10401C0074089EFEEFA806088002C313D8FCF45D5A
:10402C00D082D083F005598083E517D394075003D1
:10403C000241A0E517942140030241A0E516C39468
:10404C0008505CE4F55975F008E559A4F58285F043
:10405C008375F008E51712ACEBE5822448F582E590
:10406C00833401F583C083C082E0FFE51975F00845
:10407C00A42559251A2400F582E43400F583E0F4D4
:10408C00FEC374089516FDEEA805088002C313D86C
:10409C00FCF45FD082D083F00559E559B408A7E54C
:1040AC0016D3940750030241A0E51694484003022E
:1040BC0041A0E4F559E55975F008A4FDACF0E517FD
:1040CC0075F008A42DFFE5F03CFEE51624F813135B
:1040DC0013541F7C002FFFEC3EFE74482FF58274A6
:1040EC00013EF583C083C082E0FFE51975F008A49A
:1040FC002559251A2400F582E43400F583E0F4FEFA
:10410C00E5165407FDEEA805088002C333D8FCF46D
:10411C005FD082D083F00559E559B40898E516C3F1
:10412C0094405070E4F559E55975F008A4FDACF0D5
:10413C00E51775F008A42DFFE5F03CFEE51624F814
:10414C00131313541F7C002FFFEC3EFE74492FF504
:10415C008274013EF583C083C082E0FFE51975F0DF
:10416C0008A42559251A2400F582E43400F583E0CF
:10417C00F4FEE5165407FDC374089DFDEEA8050872
:10418C008002C313D8FCF45FD082D083F00559E5CC
:10419C0059B40893E517D394205003024326E5172E
:1041AC0094294003024326E516C394085065E4F5B0
:1041BC0059C374289517FFE559C39F505675F008DD
:1041CC00E559A4F58285F08375F008E51712ACEB80
:1041DC00E5822448F582E5833401F583C083C082EF
:1041EC00E0FFE51975F008A42559251A2400F5827D
:1041FC00E43400F583E0F4FEC374089516FDEEA8D4
:10420C0005088002C313D8FCF45FD082D083F0057C
:10421C0059809EE516D394075003024326E5169465
:10422C00484003024326E4F559C374289517FFE56B
:10423C0059C39F5065E55975F008A4FDACF0E5171E
:10424C0075F008A42DFFE5F03CFEE51624F81313D9
:10425C0013541F7C002FFFEC3EFE74482FF5827424
:10426C00013EF583C083C082E0FFE51975F008A418
:10427C002559251A2400F582E43400F583E0F4FE78
:10428C00E5165407FDEEA805088002C333D8FCF4EC
:10429C005FD082D083F00559808FE516C3944050CF
:1042AC0079E4F559C374289517FFE559C39F506AF3
:1042BC00E55975F008A4FDACF0E51775F008A42DD0
:1042CC00FFE5F03CFEE51624F8131313541F7C0095
:1042DC002FFFEC3EFE74492FF58274013EF583C02E
:1042EC0083C082E0FFE51975F008A42559251A242E
:1042FC0000F582E43400F583E0F4FEE5165407FD86
:10430C00C374089DFDEEA805088002C313D8FCF405
:10431C005FD082D083F00559808AE517C39408409A
:10432C00030244B8E516C394085069E4F559E559FD
:10433C00C39517505FE55975F008A42488F582E4FD
:10434C003402F583C083C082E0FDE51975F008A442
:10435C00FFE5597A002FFFEA35F0FEE51A2FFFEA48
:10436C003EFEE517FBC3EF9BFFEE9AFE74082FF59C
:10437C008274003EF583E0F4FFC374089516FEEFDB
:10438C00A806088002C313D8FCF45DD082D083F059
:10439C000559809AE516D3940750030244B8E516E4
:1043AC00944840030244B8E4F559E559C3951750B5
:1043BC0071E516131313541FFF75F008E559A42F5C
:1043CC00F582E435F0F583E5822487F582E58334C4
:1043DC0002F583C083C082E0FDE51975F008A4FFE7
:1043EC00E5597A002FFFEA35F0FEE51A2FFFEA3E79
:1043FC00FEE517FBC3EF9BFFEE9AFE74082FF582C8
:10440C0074003EF583E0F4FFE5165407FEEFA806B2
:10441C00088002C333D8FCF45DD082D083F00559F8
:10442C008088E516C3944040030244B8E4F559E58E
:10443C0059C395175076E516131313541FFF75F0D7
:10444C0008E559A42FF582E435F0F583E58224883C
:10445C00F582E5833402F583C083C082E0FDE51963
:10446C0075F008A4FFE5597A002FFFEA35F0FEE558
:10447C001A2FFFEA3EFEE517FBC3EF9BFFEE9AFEF9
:10448C0074082FF58274003EF583E0F4FFE51654B2
:10449C0007FEC374089EFEEFA806088002C313D85B
:1044AC00FCF45DD082D083F005598083E517D3945A
:1044BC00075003024623E51794214003024623E5E7
:1044CC0016C39408505CE4F55975F008E559A4F549
:1044DC008285F08375F008E51712ACEBE582244871
:1044EC00F582E5833402F583C083C082E0FFE519D1
:1044FC0075F008A42559251A2400F582E43400F53A
:10450C0083E0F4FEC374089516FDEEA8050880023E
:10451C00C313D8FCF45FD082D083F00559E559B4AD
:10452C0008A7E516D394075003024623E5169448D2
:10453C004003024623E4F559E55975F008A4FDAC97
:10454C00F0E51775F008A42DFFE5F03CFEE5162408
:10455C00F8131313541F7C002FFFEC3EFE74482FEE
:10456C00F58274023EF583C083C082E0FFE51975C5
:10457C00F008A42559251A2400F582E43400F583AB
:10458C00E0F4FEE5165407FDEEA805088002C333DF
:10459C00D8FCF45FD082D083F00559E559B4089863
:1045AC00E516C394405070E4F559E55975F008A42C
:1045BC00FDACF0E51775F008A42DFFE5F03CFEE529
:1045CC001624F8131313541F7C002FFFEC3EFE74BB
:1045DC00492FF58274023EF583C083C082E0FFE56B
:1045EC001975F008A42559251A2400F582E4340025
:1045FC00F583E0F4FEE5165407FDC374089DFDEE4B
:10460C00A805088002C313D8FCF45FD082D083F0D5
:10461C000559E559B40893E517D394205003024784
:10462C00A9E517942940030247A9E516C39408503D
:10463C0065E4F559C374289517FFE559C39F505687
:10464C0075F008E559A4F58285F08375F008E51737
:10465C0012ACEBE5822448F582E5833402F583C085
:10466C0083C082E0FFE51975F008A42559251A24AA
:10467C0000F582E43400F583E0F4FEC3740895166B
:10468C00FDEEA805088002C313D8FCF45FD082D0DD
:10469C0083F00559809EE516D3940750030247A971
:1046AC00E516944840030247A9E4F559C3742895CC
:1046BC0017FFE559C39F5065E55975F008A4FDAC8B
:1046CC00F0E51775F008A42DFFE5F03CFEE5162487
:1046DC00F8131313541F7C002FFFEC3EFE74482F6D
:1046EC00F58274023EF583C083C082E0FFE5197544
:1046FC00F008A42559251A2400F582E43400F5832A
:10470C00E0F4FEE5165407FDEEA805088002C3335D
:10471C00D8FCF45FD082D083F00559808FE516C3A6
:10472C0094405079E4F559C374289517FFE559C3A3
:10473C009F506AE55975F008A4FDACF0E51775F0CB
:10474C0008A42DFFE5F03CFEE51624F813131354D2
:10475C001F7C002FFFEC3EFE74492FF58274023E45
:10476C00F583C083C082E0FFE51975F008A42559D4
:10477C00251A2400F582E43400F583E0F4FEE516F6
:10478C005407FDC374089DFDEEA805088002C313F1
:0E479C00D8FCF45FD082D083F00559808A22C9
:0FB65600E55F25E0F514E4F5157D1D7B027F28E7
:10B665008F118D12A903E51224F8FD85141985158E
:10B675001A12357CAB01E51404F51985151AAD12BE
:05B68500AF1102357C4D
:0CB31F0075110CE4F5127B02AD4B7F3F72
:10B32B008F0E8D0FA903E50E24F8FFE50F24F8FD12
:10B33B0085111985121A12357CE50E24F8FFAB0125
:10B34B00E51104F51985121AAD0F12357CE50F24A2
:10B35B00F8FDAB01E5112402F51985121AAF0E1297
:10B36B00357CAB01E5112403F51985121AAD0FAF2E
:04B37B000E02357C0D
:0E47AA00E50904FF751904E4F51A7B02AD0C55
:1047B8008F168D178B18E51864016003024C41E5CC
:1047C80017C394084003024956E516C39408506875
:1047D800E4F559E559C39517505EE55975F008A4F5
:1047E8002488F582E43401F583C083C082E0FDE5C6
:1047F8001975F008A4FFE5597A002FFFEA35F0FE95
:10480800E51A2FFFEA3EFEE517FBC3EF9BFFEE9A82
:10481800FE74082FF58274003EF583E0F4FFC3743C
:10482800089516FEEFA806088002C313D8FC4DD0E1
:1048380082D083F00559809BE516D3940750030274
:104848004956E51694484003024956E4F559E55996
:10485800C395175070E516131313541FFF75F0080E
:10486800E559A42FF582E435F0F583E5822487F530
:1048780082E5833401F583C083C082E0FDE51975C4
:10488800F008A4FFE5597A002FFFEA35F0FEE51A93
:104898002FFFEA3EFEE517FBC3EF9BFFEE9AFE747F
:1048A800082FF58274003EF583E0F4FFE5165407FF
:1048B800FEEFA806088002C333D8FC4DD082D0830F
:1048C800F005598089E516C394404003024956E42F
:1048D800F559E559C395175075E516131313541F69
:1048E800FF75F008E559A42FF582E435F0F583E566
:1048F800822488F582E5833401F583C083C082E091
:10490800FDE51975F008A4FFE5597A002FFFEA358F
:10491800F0FEE51A2FFFEA3EFEE517FBC3EF9BFF0B
:10492800EE9AFE74082FF58274003EF583E0F4FFDA
:10493800E5165407FEC374089EFEEFA80608800219
:10494800C313D8FC4DD082D083F005598084E51775
:10495800D394075003024ABEE51794214003024A44
:10496800BEE516C39408505BE4F55975F008E5599F
:10497800A4F58285F08375F008E51712ACEBE582A3
:104988002448F582E5833401F583C083C082E0FFC3
:10499800E51975F008A42559251A2400F582E43490
:1049A80000F583E0F4FEC374089516FDEEA805082B
:1049B8008002C313D8FC4FD082D083F00559E55943
:1049C800B408A8E516D394075003024ABEE5169426
:1049D800484003024ABEE4F559E55975F008A4FDBC
:1049E800ACF0E51775F008A42DFFE5F03CFEE516E0
:1049F80024F8131313541F7C002FFFEC3EFE744859
:104A08002FF58274013EF583C083C082E0FFE5196B
:104A180075F008A42559251A2400F582E43400F518
:104A280083E0F4FEE5165407FDEEA805088002C3EE
:104A380033D8FC4FD082D083F00559E559B4089992
:104A4800E516C39440506FE4F559E55975F008A48C
:104A5800FDACF0E51775F008A42DFFE5F03CFEE588
:104A68001624F8131313541F7C002FFFEC3EFE741A
:104A7800492FF58274013EF583C083C082E0FFE5CB
:104A88001975F008A42559251A2400F582E4340084
:104A9800F583E0F4FEE5165407FDC374089DFDEEAA
:104AA800A805088002C313D8FC4FD082D083F00534
:104AB80059E559B40894E517D394205003024C41A2
:104AC800E51794294003024C41E516C39408506445
:104AD800E4F559C374289517FFE559C39F505575D8
:104AE800F008E559A4F58285F08375F008E51712FA
:104AF800ACEBE5822448F582E5833401F583C08375
:104B0800C082E0FFE51975F008A42559251A24008C
:104B1800F582E43400F583E0F4FEC374089516FDCD
:104B2800EEA805088002C313D8FC4FD082D083F0CA
:104B38000559809FE516D394075003024C41E516AA
:104B480094484003024C41E4F559C374289517FF73
:104B5800E559C39F5064E55975F008A4FDACF0E52C
:104B68001775F008A42DFFE5F03CFEE51624F813B0
:104B78001313541F7C002FFFEC3EFE74482FF58260
:104B880074013EF583C083C082E0FFE51975F00823
:104B9800A42559251A2400F582E43400F583E0F4AD
:104BA800FEE5165407FDEEA805088002C333D8FCBD
:104BB8004FD082D083F005598090E516C3944050B9
:104BC80078E4F559C374289517FFE559C39F5069D0
:104BD800E55975F008A4FDACF0E51775F008A42DAB
:104BE800FFE5F03CFEE51624F8131313541F7C0070
:104BF8002FFFEC3EFE74492FF58274013EF583C009
:104C080083C082E0FFE51975F008A42559251A2408
:104C180000F582E43400F583E0F4FEE5165407FD60
:104C2800C374089DFDEEA805088002C313D8FC4F85
:104C3800D082D083F00559808BE5186402600302A6
:104C480050C4E517C394084003024DD9E516C39430
:104C5800085068E4F559E559C39517505EE559754C
:104C6800F008A42488F582E43402F583C083C08266
:104C7800E0FDE51975F008A4FFE5597A002FFFEA71
:104C880035F0FEE51A2FFFEA3EFEE517FBC3EF9B62
:104C9800FFEE9AFE74082FF58274003EF583E0F467
:104CA800FFC374089516FEEFA806088002C313D840
:104CB800FC4DD082D083F00559809BE516D394072C
:104CC8005003024DD9E51694484003024DD9E4F546
:104CD80059E559C395175070E516131313541FFF60
:104CE80075F008E559A42FF582E435F0F583E582DF
:104CF8002487F582E5833402F583C083C082E0FD12
:104D0800E51975F008A4FFE5597A002FFFEA35F098
:104D1800FEE51A2FFFEA3EFEE517FBC3EF9BFFEE09
:104D28009AFE74082FF58274003EF583E0F4FFE5DF
:104D3800165407FEEFA806088002C333D8FC4DD0EE
:104D480082D083F005598089E516C3944040030258
:104D58004DD9E4F559E559C395175075E516131360
:104D680013541FFF75F008E559A42FF582E435F0B8
:104D7800F583E5822488F582E5833402F583C083D0
:104D8800C082E0FDE51975F008A4FFE5597A002F07
:104D9800FFEA35F0FEE51A2FFFEA3EFEE517FBC3F2
:104DA800EF9BFFEE9AFE74082FF58274003EF583A0
:104DB800E0F4FFE5165407FEC374089EFEEFA8064C
:104DC800088002C313D8FC4DD082D083F0055980E7
:104DD80084E517D394075003024F41E51794214007
:104DE80003024F41E516C39408505BE4F55975F08A
:104DF80008E559A4F58285F08375F008E51712AC2B
:104E0800EBE5822448F582E5833402F583C083C04C
:104E180082E0FFE51975F008A42559251A2400F544
:104E280082E43400F583E0F4FEC374089516FDEEC1
:104E3800A805088002C313D8FC4FD082D083F005A0
:104E480059E559B408A8E516D394075003024F4111
:104E5800E51694484003024F41E4F559E55975F0C9
:104E680008A4FDACF0E51775F008A42DFFE5F03CAB
:104E7800FEE51624F8131313541F7C002FFFEC3E95
:104E8800FE74482FF58274023EF583C083C082E029
:104E9800FFE51975F008A42559251A2400F582E4C0
:104EA8003400F583E0F4FEE5165407FDEEA8050886
:104EB8008002C333D8FC4FD082D083F00559E5591E
:104EC800B40899E516C39440506FE4F559E559754F
:104ED800F008A4FDACF0E51775F008A42DFFE5F087
:104EE8003CFEE51624F8131313541F7C002FFFEC27
:104EF8003EFE74492FF58274023EF583C083C0825A
:104F0800E0FFE51975F008A42559251A2400F58253
:104F1800E43400F583E0F4FEE5165407FDC3740895
:104F28009DFDEEA805088002C313D8FC4FD082D09F
:104F380083F00559E559B40894E517D39420500334
:104F48000250C4E517942940030250C4E516C394DF
:104F5800085064E4F559C374289517FFE559C39FB1
:104F6800505575F008E559A4F58285F08375F00869
:104F7800E51712ACEBE5822448F582E5833402F5A7
:104F880083C083C082E0FFE51975F008A425592580
:104F98001A2400F582E43400F583E0F4FEC37408B3
:104FA8009516FDEEA805088002C313D8FC4FD082E1
:104FB800D083F00559809FE516D39407500302501B
:104FC800C4E516944840030250C4E4F559C3742854
:104FD8009517FFE559C39F5064E55975F008A4FD7E
:104FE800ACF0E51775F008A42DFFE5F03CFEE516DA
:104FF80024F8131313541F7C002FFFEC3EFE744853
:105008002FF58274023EF583C083C082E0FFE51964
:1050180075F008A42559251A2400F582E43400F512
:1050280083E0F4FEE5165407FDEEA805088002C3E8
:1050380033D8FC4FD082D083F005598090E516C351
:1050480094405078E4F559C374289517FFE559C37F
:105058009F5069E55975F008A4FDACF0E51775F0A7
:1050680008A42DFFE5F03CFEE51624F813131354AD
:105078001F7C002FFFEC3EFE74492FF58274023E20
:10508800F583C083C082E0FFE51975F008A42559AF
:10509800251A2400F582E43400F583E0F4FEE516D1
:1050A8005407FDC374089DFDEEA805088002C313CC
:1050B800D8FC4FD082D083F00559808BE518640363
:1050C80060030259C1E517C39408400302525CE526
:1050D80016C394085068E4F559E559C39517505E0E
:1050E800E55975F008A42488F582E43401F583C0F5
:1050F80083C082E0FDE51975F008A4FFE5597A0040
:105108002FFFEA35F0FEE51A2FFFEA3EFEE517FB12
:10511800C3EF9BFFEE9AFE74082FF58274003EF5EC
:1051280083E0F4FFC374089516FEEFA80608800212
:10513800C313D8FC4DD082D083F00559809BE51667
:10514800D39407500302525CE51694484003025278
:105158005CE4F559E559C395175070E51613131318
:10516800541FFF75F008E559A42FF582E435F0F5D2
:1051780083E5822487F582E5833401F583C083C003
:1051880082E0FDE51975F008A4FFE5597A002FFFC4
:10519800EA35F0FEE51A2FFFEA3EFEE517FBC3EFFE
:1051A8009BFFEE9AFE74082FF58274003EF583E0AB
:1051B800F4FFE5165407FEEFA806088002C333D8AB
:1051C800FC4DD082D083F005598089E516C3944000
:1051D800400302525CE4F559E559C395175075E54B
:1051E80016131313541FFF75F008E559A42FF58201
:1051F800E435F0F583E5822488F582E5833401F50A
:1052080083C083C082E0FDE51975F008A4FFE55965
:105218007A002FFFEA35F0FEE51A2FFFEA3EFEE599
:1052280017FBC3EF9BFFEE9AFE74082FF5827400FC
:105238003EF583E0F4FFE5165407FEC374089EFEAE
:10524800EFA806088002C313D8FC4DD082D083F0A3
:1052580005598084E517D3940750030253C4E51712
:10526800942140030253C4E516C39408505BE4F547
:105278005975F008E559A4F58285F08375F008E5BD
:105288001712ACEBE5822448F582E5833401F583F7
:10529800C083C082E0FFE51975F008A42559251AD6
:1052A8002400F582E43400F583E0F4FEC374089525
:1052B80016FDEEA805088002C313D8FC4FD082D093
:1052C80083F00559E559B408A8E516D394075003A7
:1052D8000253C4E516944840030253C4E4F559E563
:1052E8005975F008A4FDACF0E51775F008A42DFF7A
:1052F800E5F03CFEE51624F8131313541F7C002F29
:10530800FFEC3EFE74482FF58274013EF583C0839E
:10531800C082E0FFE51975F008A42559251A240074
:10532800F582E43400F583E0F4FEE5165407FDEE5B
:10533800A805088002C333D8FC4FD082D083F0057B
:1053480059E559B40899E516C39440506FE4F559E6
:10535800E55975F008A4FDACF0E51775F008A42D23
:10536800FFE5F03CFEE51624F8131313541F7C00E8
:105378002FFFEC3EFE74492FF58274013EF583C081
:1053880083C082E0FFE51975F008A42559251A2481
:1053980000F582E43400F583E0F4FEE5165407FDD9
:1053A800C374089DFDEEA805088002C313D8FC4FFE
:1053B800D082D083F00559E559B40894E517D39401
:1053C800205003025547E51794294003025547E545
:1053D80016C394085064E4F559C374289517FFE57B
:1053E80059C39F505575F008E559A4F58285F08397
:1053F80075F008E51712ACEBE5822448F582E583E1
:105408003401F583C083C082E0FFE51975F008A474
:105418002559251A2400F582E43400F583E0F4FECA
:10542800C374089516FDEEA805088002C313D8FCBE
:105438004FD082D083F00559809FE516D39407504A
:1054480003025547E51694484003025547E4F559C9
:10545800C374289517FFE559C39F5064E55975F043
:1054680008A4FDACF0E51775F008A42DFFE5F03CA5
:10547800FEE51624F8131313541F7C002FFFEC3E8F
:10548800FE74482FF58274013EF583C083C082E024
:10549800FFE51975F008A42559251A2400F582E4BA
:1054A8003400F583E0F4FEE5165407FDEEA8050880
:1054B8008002C333D8FC4FD082D083F00559809046
:1054C800E516C394405078E4F559C374289517FF3E
:1054D800E559C39F5069E55975F008A4FDACF0E59E
:1054E8001775F008A42DFFE5F03CFEE51624F81327
:1054F8001313541F7C002FFFEC3EFE74492FF582D6
