:0300000002002BD0
:10002B00759D0375A20475815F7530007531007580
:10003B0080381202737580381202737580011202B8
:10004B007375800C12027375801C12027375BCC918
:10005B00120137E5BDB5330AE5BEB5320575300083
:10006B00801005307414B5300975300085BD3385AB
:10007B00BE3285330A85320B12014085180C851967
:10008B000D851A0EE50A13F50AE50B13F50BE50AB8
:10009B0013E50B13F50975BCC8120137E5BDB53572
:1000AB000AE5BEB53405753100801005317414B501
:1000BB00310975310085BD3585BE3485350A8534EA
:1000CB000B120140851810851911851A12E50A13B8
:1000DB00F50AE50B13F50BE50A13E50B13F508858C
:1000EB0009F0A4AAF0FB7C617DA8120174EF243007
:1000FB00F5137C097DC4120174EF2430F5147C00D8
:10010B007DFA120174EF2430F5157C007D19120174
:10011B0074EF2430F516EBC333C333FB7D0A1201A6
:10012B0074EF2430F5171201CC020058E5BC30E413
:10013B00FBC2E4F5BCAA0AAB0B7C007D0212017476
:10014B00EEFAEFFB7C007D641201748F187430257E
:10015B0018F5187D0A1201748F1974302519F519C9
:09016B008B1A7430251AF51A22D2
:10017400C0D0C0E079007E007F001201B74042EC9D
:1001840020E711C3ED33FDEC33FC091201B750EF46
:100194001201BD19C3EB9DFBEA9CFA0FB900028062
:1001A400201201BDEFC333FFEE33FE191201B74035
:1001B400EB80E1C3EB9DEA9C22C3EC13FCED13FD41
:1001C40022D2D2D0E0D0D022758080120273758002
:1001D4005512028175803D1202817430B510057587
:1001E4008020800385108012028185118012028193
:1001F40075802E120281851280120281758076121A
:1002040002817580201202817580491202817580F5
:100214003D120281850C8012028175802E120281AA
:10022400850D80120281850E801202817580411233
:1002340002817580C012027375805012028175802C
:100244003D1202818513801202818514801202817D
:1002540085158012028175802E1202818516801206
:10026400028185178012028175805712028122C291
:10027400A5C2A6D2A70000C2A712028F22D2A5C28D
:10028400A6D2A70000C2A712028F22D2A6C2A5D26C
:0A029400A77580FF2087FDC2A72296
:00000001FF
