:03000000020A07EA
:0C0A0700787FE4F6D8FD7581120209DE4C
:1009DE00D2B275A8814388017F647E00EF1F70013B
:0709EE001EEF4E70F780F1CF
:03000300020800F0
:0D080000C0E0C0F0C083C082C0D075D00041
:10080D00751100751200C2A87F0F1209F530B205DF
:10081D00D2A80209AD20B2077F011209F580F67545
:10082D000F0075100030B2077F011209F580F62018
:10083D00B2077F011209F580F630B2137F0112095C
:10084D00F50511E511C3941E40EFD2A80209AD7450
:10085D0008250FF8C000E6FFC313D000F6E511C35D
:10086D00940840097408250FF8E64480F6751100C8
:10087D000510E510C3940840AC050FE50FC39404B3
:10088D0040A0E50BF4650A6005D2A80209ADE50AA2
:10089D00540FF50DE50AC4540FF50EE50DD394096B
:1008AD004004743780027430250DF50DE50ED39498
:1008BD00094004743780027430250EF50EE50E5490
:1008CD000FC454F0FFE50D540F2FF5121209B8099E
:1008DD001304093F070957080949090965130985D3
:1008ED0015099B16094318092619092B40092F4391
:1008FD00093344092645093746093B470973510910
:10090D008952000009ABD290C291D292C293D29477
:10091D00C295D296C2970209ABC2900209ABC2949E
:10092D00807CC2958078C2938074C2918070C2928F
:10093D00806CC2968068C290C2918020C290C29194
:10094D00C292C293C294C2958028D290D291D29273
:10095D00D293C294C2958030D290D291D292D2933A
:10096D00D294D2958022D290D291D292D293D29417
:10097D00D295C296C2978026C2978022D290D291EC
:10098D00C292C293D294D295D296D2978010C29031
:10099D00D291C292D293C294D295C296D297D2A836
:0B09AD00D0D0D082D083D0F0D0E03258
:1009F500AD071FED600BE4FEEEC3940D50F20E80C3
:010A0500F7F9
:010A060022CD
:1009B800D083D082F8E4937012740193700DA3A3CE
:1009C80093F8740193F5828883E4737402936860E2
:0609D800EFA3A3A380DFE2
:00000001FF
