:020000040800F2
:10000000D01900207913000885060008870600082B
:100010008B0600088F060008930600080000000009
:10002000000000000000000000000000970600082B
:1000300099060008000000009B0600089D060008C5
:1000400093130008931300089313000893130008F8
:1000500093130008931300089313000893130008E8
:1000600093130008931300089313000893130008D8
:1000700093130008931300089313000893130008C8
:1000800093130008931300089313000893130008B8
:1000900093130008931300089313000893130008A8
:1000A0009313000893130008931300089313000898
:1000B0005B060008931300089313000893130008CD
:1000C0009313000893130008931300089313000878
:1000D00093130008EF12000893130008931300080D
:1000E00093130008931300089313000800F002F81C
:1000F00000F03AF80AA090E8000C82448344AAF188
:100100000107DA4501D100F02FF8AFF2090EBAE885
:100110000F0013F0010F18BFFB1A43F0010318473B
:10012000E070000000710000103A24BF78C878C168
:10013000FAD8520724BF30C830C144BF04680C60ED
:10014000704700000023002400250026103A28BF35
:1001500078C1FBD8520728BF30C148BF0B60704739
:100160001FB51FBD10B510BD03F080FC1146FFF791
:10017000F7FF00F033F903F09EFC03B4FFF7F2FF42
:1001800003BC01F059F8000038B50224002517E03F
:1001900000200090E01CC2B240230221204600F063
:1001A0003AFE01200090FE4810F81530E01CC2B263
:1001B0000021204600F02FFE601DC4B2681CC5B2AD
:1001C000192DE5DB00F092FB642001F002F838BD48
:1001D0003FB5F4A53CCD8DE83C00002008E0F54B90
:1001E000421C33F82220EE4B23F81020421CD0B2E0
:1001F0000C28F4DB00200CE01DF80010ED4A32F86A
:10020000212093B2E64C00F10C0224F81230421C7B
:10021000D0B20F28F0DB012064E0E14A32F8102070
:100220004FF6FF7303EA8202DD4B23F810201A46D3
:1002300032F810201AB9022223F8102050E0D84AD0
:1002400032F81020052A0CDAD54A32F81020002A9C
:1002500007DDD34A32F81020D21DD14B23F81020ED
:100260003EE0CF4A32F81020052A0CDBCC4A32F8A7
:1002700010200A2A07DACA4A32F81020521DC84B49
:1002800023F810202CE0C64A32F810200A2A0CDB92
:10029000C34A32F810200F2A07DAC14A32F8102078
:1002A000121DBF4B23F810201AE0BD4A32F810206F
:1002B000402A04DB3F22BA4B23F8102010E0B84A52
:1002C00032F81020372A0BDBB54A32F810203F2ACB
:1002D00006DCB34A32F81020083AB14B23F810205C
:1002E000421CD0B21A2898DB3FBD2DE9F04F8BB0ED
:1002F0000546002453E0B04830F8240006B2AE486A
:1003000050F824004FEA2049304604F049F880466E
:100310004FF0854104F05CF807464FF08E4103F042
:1003200061FF8246484604F03BF880464FF0854125
:1003300004F04EF807464FF08E4103F053FF83461A
:10034000284603F06FFDCDE906015946584604F0F2
:100350003FF851460290504604F03AF80190029955
:1003600003F0DEFE039003F0AFFECDE9040103F0DD
:10037000A8FB0746DDE9062303F0FCFBCDE90801F5
:1003800003F0C6FB0A904FF08F410A9804F020F862
:10039000074603F0E9FF874941F82400641CAC429A
:1003A000A9D30BB0BDE8F08F0021844A1170844AB4
:1003B000117007E0A0F10A0188B280490978491C50
:1003C0007E4A11700A28F5DA7D4A10707B49097857
:1003D0007C4A11707A4909785170704700F0BCFE70
:1003E00000F024FF00F032FD00F077FE00F09CFEEC
:1003F00000F0F0FD00F0FDFD00F007FE00F02AFE29
:100400000121880702F0FAF900216F4802F091FEFD
:1004100000F0C3FA00221146122000F07BFB0122FB
:100420000021242000F076FB02220021362000F07B
:1004300071FB03220021482000F06CFB0422002104
:100440005A2000F067FB05220221122000F062FB17
:1004500006220221242000F05DFB5CA202213A204A
:1004600000F03DFB5AA20221502000F038FB59A2B7
:100470000421122000F033FB59A20621002000F0D5
:100480002EFB40F2DC5000F0A4FE00F086FA55206E
:100490005849087008460078FFF786FF43E0564841
:1004A000007800283FD00020534908705348006866
:1004B000FF281ED80121444802F03BFE00BF022065
:1004C00002F062FD0028FAD0022002F071FD002146
:1004D0003D4802F02EFE4A48008800044949474A38
:1004E000126841F8220045480068401C43490860F2
:1004F00019E000214FF0804002F080F900203F49D0
:1005000008604FF480723F492B4802F0A7FF4FF478
:100510008070FFF7EAFEFFF75BFEFFF735FE012173
:10052000880702F06BF9BAE7F8B5022501248BE0E1
:1005300000204023052202210090084600F06BFCB9
:10054000012000901648037805220021022000F0C7
:1005500062FC134830F814002B4931F8141088421B
:1005600019DD0F4810F81400274911F81410401A2B
:10057000C6B201200090244810F814003044C3B2E1
:10058000E81CC2B2204810F81410284600F043FCC2
:10059000642000F0FAFD024830F814001A4935E0F2
:1005A000440E00200D1013171A1D20262D33404D28
:1005B0005A7300004400002044060020050000207B
:1005C0000600002007000020002401403A0000003F
:1005D000524A5800323031372F31302F3236000036
:1005E0006E6F76615F303037403136332E636F6D1A
:1005F000000000000900002004000020000000208E
:1006000020000020440A0020760E002031F814104B
:1006100088420CDA00200090174810F81430E81CCB
:10062000C2B2164810F81410284600F0F4FB6420FB
:1006300000F0ABFD681DC5B2104830F814000E493B
:1006400021F81400601CC4B21A2CFFF671AF00F040
:100650004DF9322000F0BDFDF8BD10B5012188072D
:1006600002F095FB012806D10121800702F0A0FBD2
:1006700001200349087010BD760E0020440E0020B2
:1006800004000020704700BFFEE700BFFEE700BF88
:10069000FEE700BFFEE770477047704770470000F5
:1006A0000CB50020019000906C48006840F4803048
:1006B0006A49086000BF6948006800F40030009093
:1006C0000198401C0190009818B90198B0F5A06FEE
:1006D000F1D16248006800F4003010B101200090B0
:1006E00001E0002000900098012843D15C48006898
:1006F00040F010005A4908600846006820F00300E6
:1007000008600846006840F00200086053484068EE
:10071000524948600846406848600846406840F4CE
:10072000806048600846406820F47C1048600846B5
:10073000406840F4E81048600846006840F0807067
:10074000086000BF4548006800F000700028F9D03C
:100750004248406820F0030040494860084640682D
:1007600040F00200486000BF3C48406800F00C00C8
:100770000828F9D10CBD10B5FFF792FF10BD10B5D8
:100780003648006840F00100344908600846406877
:1007900034490840314948600846006832490840F9
:1007A0002E4908600846006820F48020086008464A
:1007B000406820F4FE0048604FF41F008860FFF797
:1007C000DAFF4FF000602949086010BD10B5002124
:1007D00000200022214B5B6803F00C0121B10429A9
:1007E00006D0082928D107E0214B224C236027E0BE
:1007F0001F4B204C236023E0184B5B6803F4701000
:10080000164B5B6803F48032022303EB904022B95D
:10081000194B4343174C23600DE0104B5B6803F406
:10082000003323B1144B4343124C236003E0104BBD
:100830004343104C236003E00D4B0E4C236000BF7C
:1008400000BF064B5B68C3F303130C4CE15C094B20
:100850001B68CB40074C236010BD00000010024015
:10086000002002400000FFF8FFFFF6FE08ED00E068
:1008700000127A000C00002000093D00100000204A
:1008800070B504460E4626B10221F84800F00FFF6D
:1008900003E00221F54800F00CFF1021F44800F0BD
:1008A00008FF002517E02021F14800F002FF04F0C6
:1008B000800020B18021EE4800F0F9FE03E08021A5
:1008C000EB4800F0F6FE2021E94800F0F0FE60065B
:1008D000040E681CC5B2082DE5DB1021E44800F0C9
:1008E000E6FE0221E14800F0E2FE70BD70B5002492
:1008F0001CE004F1B001C8B20021FFF7C1FF0021E4
:100900000846FFF7BDFF00211020FFF7B9FF0025C3
:1009100008E0D84901EBC501085D0121FFF7B0FFF0
:10092000681CC5B2802DF4DB601CC4B2082CE0DB6F
:1009300070BD70B504460D4605F1B001C8B2002186
:10094000FFF79EFFA11CC1F3031141F0100000212D
:10095000FFF796FFA11C01F00F000021FFF790FFA9
:1009600070BD10B500218D20FFF78AFF00211420F3
:10097000FFF786FF0021AF20FFF782FF10BD10B503
:1009800000218D20FFF77CFF00211020FFF778FF6A
:100990000021AE20FFF774FF10BD70B5002419E0F0
:1009A00004F1B001C8B20021FFF76AFF0021022064
:1009B000FFF766FF00211020FFF762FF002505E02A
:1009C00001210020FFF75CFF681CC5B2802DF7DB1A
:1009D000601CC4B2082CE3DB70BD2DE9F041074672
:1009E0000E46904600250024A8F12000C5B27F2FB6
:1009F00002DD0027B01CC6B231463846FFF799FF2A
:100A0000002408E004EB05119B4A505C0121FFF72C
:100A100037FF601CC4B2082CF4DB701CC1B238462E
:100A2000FFF787FF002409E004EB05110831924A23
:100A3000505C0121FFF724FF601CC4B2082CF3DBDB
:100A4000BDE8F08110B50246012000E050430B00E4
:100A5000A1F10104E1B2F9D110BD2DE9FF5F074614
:100A600091461D460E9E4FF0000A002433E0281BDD
:100A7000401EC1B20A20FFF7E5FFB9FBF0F00A21E2
:100A8000B0FBF1F201FB1208BAF1000F13D1681E9E
:100A9000A04210DDB8F1000F0BD1B34606EBDB71BD
:100AA000491001FB0471C8B220220199FFF795FF9C
:100AB0000FE04FF0010AB34606EBDB71491001FB72
:100AC0000471C8B208F13001CAB20199FFF785FF7D
:100AD00000BF601CC4B2AC42C9DBBDE8FF9F2DE97A
:100AE000F04104460F46154600260EE0AA5D394641
:100AF0002046FFF772FF04F10800C4B2782C02DD33
:100B00000024B81CC7B2701CC6B2A85D0028EDD185
:100B1000BDE8F0812DE9F04180460E4615460027DC
:100B200031464046FFF705FF00240AE0534A02EB36
:100B30008511085D0121FFF7A3FE781CC7B2601C78
:100B4000C4B2102CF2DB701CC1B24046FFF7F1FEBC
:100B500000240CE06900491C484A02EB4111085D81
:100B60000121FFF78DFE781CC7B2601CC4B2102CA7
:100B7000F0DBBDE8F081F0B5144600267F2801DCEB
:100B80003F2900DDF0BD0B46CF1701EB5777FF1073
:100B9000C7F10707FAB2CF1701EB5777FF10A1EBA8
:100BA000C707FDB2C5F107070123BB40DEB24CB158
:100BB000304B03EBC0039B5C33432E4F07EBC00766
:100BC000BB5408E02B4B03EBC0039B5CB343294FA2
:100BD00007EBC007BB5400BFD4E72DE9F84F8046B0
:100BE0000D4617461C46AA462046E31704EB5373EE
:100BF000DB1021464FEAE47C04EB5C7C4FEAEC0C12
:100C0000A4EBCC0CBCF1000F02D04FF0010C01E0C2
:100C10004FF0000C6344224604EBD27C4FEA6C0C8C
:100C200003FB0CF303F0FF0BA7F12000C7B2002673
:100C300048E0182C07D107EBC700114901EB8000F1
:100C4000805D009001E0BDE8F88F4FF0000933E0CF
:100C5000009800F0800028B1294640460A9AFFF724
:100C60008AFF15E00A9868B901200CE0000C0140E9
:100C700000080140A80E002052460008424C00081F
:100C8000C24E00080020024629464046FFF773FF87
:100C900000984006000E0090681CC5B2A5EB0A0043
:100CA000A04205D1554608F1010000F0FF0806E01A
:100CB00009F1010000F0FF09B9F1080FC8DB00BF1E
:100CC000701CC6B25E45B4DB00BFBCE72DE9F04145
:100CD00080460E461746002416E03019C1B2404641
:100CE000FFF727FE00250BE0B54901EBC7112022D5
:100CF00002FB0452885C0121FFF7C2FD681CC5B2EB
:100D0000202DF1DB601CC4B2042CE6DBBDE8F081D1
:100D10002DE9F04180460E461746002418E03019B0
:100D2000C1B24046FFF705FE00250DE007EBC70105
:100D3000A44A02EB4111302202FB0452885C0121DB
:100D4000FFF79EFD681CC5B2302DEFDB601CC4B2FE
:100D5000062CE4DBBDE8F0812DE9F04180460E462B
:100D60001746002418E03019C1B24046FFF7E1FDF4
:100D700000250DE007EBC701934A02EB0111182291
:100D800002FB0452885C0121FFF77AFD681CC5B2A2
:100D9000182DEFDB601CC4B2062CE4DBBDE8F0814B
:100DA0002DE9F05F06460F4690461C46DDF828A068
:100DB0004FF0000BE11704EB5171C910A4EBC10116
:100DC00031B92046E11704EB5171C1F3C70506E0C4
:100DD0002046E11704EB5171C910491CCDB23D46C4
:100DE00015E029463046FFF7A4FDB1460BE0594611
:100DF0000BF1010B1AF801000121FFF741FD09F188
:100E0000010000F0FF09C145F1DB681CC5B2A54235
:100E1000E7DBBDE8F09F2DE9F04706460F46904618
:100E20009946DDF820A034460CE03D4606E05246E7
:100E300029462046FFF79FFE681CC5B24D45F6DDEA
:100E4000601CC4B24445F0DDBDE8F08708B501215F
:100E5000042000F03BFEB020ADF8000010208DF81B
:100E6000030003208DF802006946584800F072FB29
:100E7000B021564800F01BFC0121082000F026FE9E
:100E800040F20310ADF8000010208DF8030003209D
:100E90008DF8020069464E4800F05CFB40F20311F9
:100EA0004B4800F004FC0121494800F000FC64209C
:100EB00000F08FF90121464800F0FBFBC82000F04C
:100EC00088F90121424800F0F2FB0021AE20FFF733
:100ED000D7FC00210220FFF7D3FC00211020FFF7F0
:100EE000CFFC00214020FFF7CBFC00218120FFF741
:100EF000C7FC0021CF20FFF7C3FC0021A120FFF792
:100F0000BFFC0021C820FFF7BBFC0021A620FFF793
:100F1000B7FC0021A820FFF7B3FC00213F20FFF71A
:100F2000AFFC0021D320FFF7ABFC00210846FFF700
:100F3000A7FC0021D520FFF7A3FC00218020FFF7AC
:100F40009FFC0021D920FFF79BFC0021F120FFF737
:100F500097FC0021DA20FFF793FC00211220FFF715
:100F60008FFC0021DB20FFF78BFC00214020FFF7E6
:100F700087FC00212020FFF783FC00210220FFF7DF
:100F80007FFC00218D20FFF77BFC00211420FFF760
:100F900077FC0021A420FFF773FC0021A620FFF7B7
:100FA0006FFC0021AF20FFF76BFC0021AF20FFF7A3
:100FB00067FCFFF7F2FC00210846FFF7BAFC08BD0A
:100FC0001E5C00081E6100085E6C000800080140FD
:100FD000000C014010B54FF4004000F0DBFC012193
:100FE000084600F066FD01214FF4017000F06EFD2F
:100FF00010BD08B50220ADF8000000208DF80300F8
:101000006946514800F0A6FA08BD00B58BB04F48BC
:1010100001F0D2FE4E4800904E4801900020029010
:10102000012003900020049005904FF480700690FA
:1010300080000790202008900002099000200A906C
:101040006946424801F05AFF0121404801F081FF02
:101050000BB000BD00B585B0002000908DF80400F5
:101060008DF805004FF460200290002003900120CD
:101070008DF81000694636484C3801F0EEFF022327
:101080000122114632484C3802F07FF801213048E5
:101090004C3802F019F801212D484C3802F009F8BB
:1010A0002B484C3802F027F800BF29484C3802F092
:1010B00027F80028F9D126484C3802F02BF800BF59
:1010C00023484C3802F02BF80028F9D100212048A1
:1010D0004C3802F02EF805B000BD0EB501210846CF
:1010E00000F001FD4FF0804000F058FF1920ADF8EE
:1010F00004004720ADF800000020ADF80600ADF870
:10110000020069464FF0804001F01CF80121880779
:1011100001F03AFE01221146900701F08AFB0121FD
:10112000880701F06BFB0EBD08B51C208DF8000090
:1011300000208DF8010001208DF802008DF80300D9
:10114000684600F03EF908BD000801400800024072
:101150004C2401402000002010B56FF0040000F086
:101160007AF92E4800682E49B0FBF1F02D4908703D
:101170000846007800EB4001C1EBC0104FF6FF714C
:1011800001EAC0002849088010BD0146254A1278AE
:101190004A434FF0E0235A6100229A611A461269CD
:1011A00042F001021A6100BF4FF0E022106900F026
:1011B00001021AB100F48032002AF5D04FF0E0228B
:1011C000126922F001024FF0E0231A6100229A61B5
:1011D00070470146144A12884A434FF0E0235A618F
:1011E00000229A611A46126942F001021A6100BF98
:1011F0004FF0E022106900F001021AB100F48032D1
:10120000002AF5D04FF0E022126922F001024FF0DF
:10121000E0231A6100229A61704700000C00002050
:1012200000127A00220000202400002010B54FF4A4
:10123000A06000F0C1F810BD014600BF704700BFBC
:10124000494A128802F04002002AF9D0C2B2464B45
:101250001B1D1A80704710B586B00446012144F268
:10126000050000F033FC4FF40070ADF814000320CB
:101270008DF8160018208DF8170005A93B4800F0DE
:1012800069F94FF48060ADF8140004208DF8170060
:1012900005A9364800F05EF925208DF800000320EE
:1012A0008DF801008DF8020001208DF803006846DA
:1012B00000F087F801940020ADF80800ADF80A00AE
:1012C000ADF80C00ADF810000C20ADF80E0001A92F
:1012D000254800F0A2FC012240F22551224800F0EE
:1012E00034FD0121204800F024FD06B010BD10B5EA
:1012F00040F225511C4800F00DFE10B31A4800F0D2
:1013000089FDC4B21A48008800F40040C8B91848E2
:10131000008800F4804060B10A2C03D000201449FA
:10132000088020E01248008840F4004010490880FE
:1013300019E00D2C06D10E48008840F480400C497D
:10134000088010E00A480088C0F30D0009490C54D9
:1013500007480088401C0649088008460088C728BE
:1013600001DD0020088010BD003801400008014068
:101370002C000020A8120020094880470948004797
:10138000FEE7FEE7FEE7FEE7FEE7FEE7FEE7FEE735
:10139000FEE7FEE704480549054A064B7047000092
:1013A0007F070008ED000008D0130020D0190020AE
:1013B000D0150020D015002031490143314A116079
:1013C000704770B5002100230F22C47804B32D4C60
:1013D000246804F4E064C4F5E064210AC1F1040364
:1013E000CA40447804FA03F1847814402143090187
:1013F000254C0678A155047804F01F050124AC4063
:1014000005786D11AD0005F1E025C5F8004109E052
:10141000047804F01F050124AC401C4D06787611B9
:1014200045F8264070BD1A4A0A400243154B1B1F5F
:101430001A60704739B1134A121D12680243114BEA
:101440001B1D1A6006E00F4A121D126882430D4BE5
:101450001B1D1A607047042808D14FF0E02109696C
:1014600041F004014FF0E022116107E04FF0E0216C
:10147000096921F004014FF0E0221161704700007A
:101480000000FA050CED00E000E400E080E100E07F
:1014900080FFFF1F10B50446CC48844208D10121CB
:1014A000042000F02DFB0021042000F029FB46E081
:1014B000C748844208D10121082000F021FB002107
:1014C000082000F01DFB3AE0C248844208D1012107
:1014D000102000F015FB0021102000F011FB2EE081
:1014E000BD48844208D10121202000F009FB0021E1
:1014F000202000F005FB22E0B848844208D10121F9
:10150000402000F0FDFA0021402000F0F9FA16E03A
:10151000B348844208D10121802000F0F1FA002173
:10152000802000F0EDFA0AE0AE48844207D10121A4
:10153000801500F0E5FA0021A01500F0E1FA10BDD9
:1015400010B50121084600F0DBFA0021012000F06F
:10155000D7FA10BD2DE9F0410246002500260020F3
:1015600000230024002791F803C00CF00F0591F828
:1015700003C00CF0100CBCF1000F03D091F802C0B6
:101580004CEA050591F800C0BCF1000F31D0146899
:1015900000202BE04FF0010C0CFA00F3B1F800C072
:1015A0000CEA03069E4220D183004FF00F0C0CFA88
:1015B00003F7BC4305FA03FC4CEA040491F803C0AA
:1015C000BCF1280F06D14FF0010C0CFA00FCC2F858
:1015D00014C00AE091F803C0BCF1480F05D14FF0E8
:1015E000010C0CFA00FCC2F810C0401C0828D1D332
:1015F0001460B1F800C0BCF1FF0F34DD5468002066
:101600002EE000F1080C4FF0010808FA0CF3B1F8D5
:1016100000C00CEA03069E4221D183004FF00F0C5C
:101620000CFA03F7BC4305FA03FC4CEA040491F8F6
:1016300003C0BCF1280F05D100F1080C08FA0CF822
:10164000C2F8148091F803C0BCF1480F07D100F133
:10165000080C4FF0010808FA0CF8C2F81080401C82
:101660000828CED35460BDE8F0814FF6FF710180A9
:10167000022181700421C1707047024600209368E6
:101680000B400BB1012000E0002070470146886844
:1016900080B2704702460020D3680B400BB1012096
:1016A00000E0002070470146C86880B270470161C1
:1016B0007047416170470AB1016100E041617047C4
:1016C000C16070474FF480320A4382618161826158
:1016D00082698269704702460020434B18684FF6C2
:1016E0008073184040EA021008433F4B186070476F
:1016F0003E49C8617047F0B50A4600230024002126
:10170000002500F00046B6F1004F02D1364EF169D7
:1017100001E0354E7168C0F3034583B200F4401612
:10172000B6F5401F08D121F070612F4E766826F083
:1017300070662D4F7E6012E000F48016B6F5801FB3
:1017400006D1032606FA05F4A14341F0706106E0D4
:10175000460D360103FA06F6B14341F0706122B13D
:10176000460D360103FA06F6314300F00046B6F1A5
:10177000004F02D11C4EF16101E01B4E7160F0BDC3
:1017800030B500228B071C0F0F2303FA04F2164B0F
:1017900008338C1053F824309343134C08348D10C5
:1017A00044F8253023468C1053F824308C07240F3E
:1017B00000FA04F423430C4C08348D1044F825300F
:1017C00030BD0A49DC310860704700000008014064
:1017D000000C0140001001400014014000180140BD
:1017E000001C014000200140000001400000204298
:1017F000DF48006840F00100DD49086008464068A5
:10180000DC490840DA49486008460068DA4908407F
:10181000D74908600846006820F480200860084620
:10182000406820F4FE0048604FF41F008860704755
:10183000CF49096821F48031CD4A11601146096809
:1018400021F480211160B0F5803F03D0B0F5802FE6
:101850000ED106E0C649096841F48031C44A1160DE
:1018600007E0C349096841F4A021C14A116000E0C2
:1018700000BF00BF704710B50146002200230020C2
:101880004A11012A02D1BA4C236806E0022A02D189
:10189000B74C236A01E0B64C636A01F01F020124D1
:1018A00094401C400CB1012000E0002010BD38B570
:1018B000002000900024002500BF3120FFF7DBFF4F
:1018C00005460098401C00900098B0F5A06F01D02C
:1018D000002DF2D03120FFF7CEFF08B1012400E047
:1018E0000024204638BD01460020A14A106820F09F
:1018F000F80040EAC10010607047A04908607047D6
:10190000024600209A4B586820F47C1042EA0103FA
:101910001843974B586070479849086670470146CE
:101920000020934A506820F003000843506070473D
:101930008F48406800F00C007047014600208C4A38
:10194000506820F0F00008435060704701460020C6
:10195000874A506820F4E0600843506070470146B1
:101960000020834A506820F4605040EAC100506073
:10197000704729B17E4A527A02437D4B5A7204E085
:101980007B4A527A82437A4B5A7270477B49D831EC
:101990000860704701460020754A506820F44040B6
:1019A0000843506070470021714A20321170704A1C
:1019B00082F82010012802D004280AD104E0012175
:1019C0006B4A2032117005E00521694A20321170FE
:1019D00000E000BF00BF7047694908607047644974
:1019E000096A0143624A11627047654944390860D7
:1019F000704730B500210022002400235C4D6D6843
:101A000005F00C0121B1042905D0082923D105E0F6
:101A10005C4D056022E05B4D05601FE0544D6D6834
:101A200005F47012524D6D6805F48034022505EB03
:101A300092421CB9544D554305600BE04C4D6D6806
:101A400005F400351DB1504D5543056002E04D4D84
:101A50005543056002E04B4D056000BF00BF444D9B
:101A60006D6805F0F0010909484D6B5C0568DD40C3
:101A700045603F4D6D6805F4E061090A434D6B5CBC
:101A80004568DD4085603A4D6D6805F46051C90ACE
:101A90003E4D6B5C4568DD40C560354D6D6805F4B5
:101AA0004041890B3A4D6B5CC568B5FBF3F50561A8
:101AB00030BD29B12E4A526902432D4B5A6104E0D0
:101AC0002B4A526982432A4B5A61704729B1284AEE
:101AD00092690243264B9A6104E0254A9269824347
:101AE000234B9A61704729B1214AD2690243204BA6
:101AF000DA6104E01E4AD26982431D4BDA61704705
:101B000029B11B4AD2680243194BDA6004E0184A33
:101B1000D2688243164BDA60704729B1144A1269C1
:101B20000243134B1A6104E0114A12698243104BBD
:101B30001A61704712494039086070470F49C864FC
:101B400070470B49C87170470948406A40F080707F
:101B500007494862704701460020054A92680A40DA
:101B60000AB1012000E000207047014988727047E7
:101B7000001002400000FFF8FFFFF6FE00004242A6
:101B80008004424200127A0000093D002E0000202D
:101B90003E00002010B50446FB48844209D10121D3
:101BA0008803FFF7ADFF00214FF48040FFF7A8FF47
:101BB00032E0F648844209D101214804FFF7ADFF25
:101BC00000214FF40030FFF7A8FF25E0F0488442E1
:101BD00009D101218804FFF7A0FF00214FF48020E4
:101BE000FFF79BFF18E0EB48844209D10121C804AC
:101BF000FFF793FF00214FF40020FFF78EFF0BE06B
:101C0000E548844208D101210805FFF786FF00213D
:101C10004FF48010FFF781FF10BD2DE9F04786B02B
:101C200005460E460024A24600BFA1460027B08903
:101C300000B100BF2F462C8A4CF6FF700440F0889C
:101C400004432C82AC894EF6F3100440B0883189ED
:101C50000843718908430443AC81AC8A4FF6FF40C6
:101C60000440B0890443AC8201A8FFF7C2FEC64815
:101C7000874202D1DDF810A001E0DDF80CA0A889B0
:101C800000F4004040B10AEBCA0000EB0A103168D2
:101C90004900B0FBF1F807E00AEBCA0000EB0A10BC
:101CA00031688900B0FBF1F86420B8FBF0F0040162
:101CB0002009642101FB1089A88900F4004040B18B
:101CC000322000EBC900B0FBF1F000F00700044344
:101CD00008E0322000EB09106421B0FBF1F000F0C5
:101CE0000F0004432C8106B0BDE8F0874FF4165175
:101CF000016000218180C18001810C21418100218E
:101D00008181704710B502460020108A4FF2FF0310
:101D100018400B884C8823438C882343CC8823436A
:101D20001843108210BD0021018041808180C18054
:101D3000704721B1828942F40052828104E0828995
:101D40004DF6FF731A4082817047F0B503460024B8
:101D500000260025002040F66A17B94200D100BFD6
:101D60001846C1F3421401F01F06012707FA06F5D1
:101D7000012C01D10C3004E0022C01D1103000E024
:101D800014301AB107682F43076002E00768AF43B9
:101D90000760F0BD1AB1838A0B43838202E0838A15
:101DA0008B4383827047028A4FF6F0731A40028297
:101DB000028A0A430282704782894FF2FF731A40F7
:101DC000828182890A438281704721B1828942F0EF
:101DD0000202828104E082894FF6FD731A408281FB
:101DE0007047028A4FF6DF731A400282028A0A4362
:101DF0000282704721B1028A42F48042028204E0EA
:101E0000028A4BF6FF731A4002827047C1F3080240
:101E10008280704701468888C0F308007047818936
:101E200041F0010181817047028BD2B20283028BA3
:101E300042EA012202837047028B02F47F4202834E
:101E4000028B0A430283704721B1828A42F020024A
:101E5000828204E0828A4FF6DF731A4082827047E2
:101E600021B1828A42F01002828204E0828A4FF617
:101E7000EF731A408282704721B1828A42F00802D1
:101E8000828204E0828A4FF6F7731A40828270479A
:101E900021B1828942F40042828103E08289C2F347
:101EA0000E028281704721B1828A42F400628282EE
:101EB00004E0828A4FF2FF731A4082827047828A5E
:101EC0004FF6FB731A408282828A0A4382827047ED
:101ED00021B1828A42F00202828204E0828A4FF6B5
:101EE000FD731A408282704702460020B1F5007FE0
:101EF00000D100BF13880B400BB1012000E000208F
:101F0000704701F40072B2F5007F00D100BFCA43F0
:101F10000280704770B5024600240023002500208F
:101F200040F66A16B14200D100BFC1F3421501F07C
:101F30001F03012606FA03F3012D02D196893340CF
:101F400006E0022D02D1168A334001E0968A334022
:101F50000C12012606FA04F41688344013B10CB1B1
:101F6000012000E0002070BD10B50022002340F6E3
:101F70006A14A14200D100BF0A1201249440A3B206
:101F8000DC43048010BD00000038014000440040E4
:101F900000480040004C00400050004010B504468E
:101FA000FE48844208D10121C014FFF7A9FD002199
:101FB000E014FFF7A5FDC4E0B4F1804F08D1012182
:101FC0000846FFF7AAFD00210120FFF7A6FDB8E0B3
:101FD000F348844208D101210220FFF79EFD002131
:101FE0000220FFF79AFDACE0EE48844208D10121BF
:101FF0000420FFF792FD00210420FFF78EFDA0E0F2
:10200000E948844208D101210820FFF786FD00211C
:102010000820FFF782FD94E0E448844208D10121C2
:102020001020FFF77AFD00211020FFF776FD88E0F1
:10203000DF48844208D101212020FFF76EFD0021F6
:102040002020FFF76AFD7CE0DA48844208D10121B4
:102050004014FFF755FD00216014FFF751FD70E0BB
:10206000D548844209D10121C804FFF749FD002168
:102070004FF40020FFF744FD63E0D048844209D1CB
:1020800001210805FFF73CFD00214FF48010FFF708
:1020900037FD56E0CA48844209D101214805FFF7BF
:1020A0002FFD00214FF40010FFF72AFD49E0C5483D
:1020B000844208D101214020FFF72FFD002140205C
:1020C000FFF72BFD3DE0C048844208D1012180206C
:1020D000FFF723FD00218020FFF71FFD31E0BB4803
:1020E000844208D101218015FFF717FD0021A015BA
:1020F000FFF713FD25E0B648844209D10121080409
:10210000FFF7FEFC00214FF48030FFF7F9FC18E0E8
:10211000B048844209D101214804FFF7F1FC0021B5
:102120004FF40030FFF7ECFC0BE0AB48844208D1E1
:1021300001218804FFF7E4FC00214FF48020FFF721
:10214000DFFC10BD00220288944B98420ED0994BC0
:1021500098420BD0B0F1804F08D0914B984205D0F7
:10216000904B984202D0904B984204D14FF68F7317
:102170001A404B881A438D4B984207D08C4B98429B
:1021800004D04FF6FF431A40CB881A4302808B8855
:1021900083850B880385814B98420BD0854B9842F1
:1021A00008D08B4B984205D08A4B984202D08A4B7C
:1021B000984201D10B7A038601238382704770B560
:1021C000002400220023058C4FF6FE76354005845E
:1021D000028C8388048B4FF68F752C40B51E2C40E3
:1021E0000D882C43751E2A400D892A434D882A43A9
:1021F0006A4DA8420BD06F4DA84208D0744DA8423A
:1022000005D0744DA84202D0734DA84213D14FF6A9
:10221000F7752A404D892A434FF6FB752A408D8871
:102220002A434FF6FF652B404FF6FF552B408D8913
:102230002B43CD892B4383800483CD8885860284FC
:1022400070BD70B5002400220023058C4FF6EF7698
:1022500035400584028C8388048B48F6FF752C403A
:102260004FF6FF452C400D884FF6FF7606EA052510
:102270002C434FF6DF752A400D8906EA05152A43DF
:102280004D8806EA05152A43444DA84202D0494D1F
:10229000A8421DD14FF67F752A404D894FF6FF7633
:1022A00006EA05152A434FF6BF752A408D8806EACF
:1022B00005152A434FF6FF352B404FF2FF752B4093
:1022C0008D8906EA85052B43CD8906EA85052B43D2
:1022D00083800483CD880587028470BD70B5002497
:1022E00000220023058C4FF6FF6635400584028CE2
:1022F0008388848B4FF68F752C404FF6FC752C40ED
:102300000D882C434FF6FF552A400D894FF6FF7676
:1023100006EA05252A434D8806EA05252A431F4D6E
:10232000A84202D0234DA8421DD14FF2FF752A408A
:102330004D894FF6FF7606EA05252A434FF6FF350D
:102340002A408D8806EA05252A434EF6FF752B4064
:102350004DF6FF752B408D8906EA05152B43CD8977
:1023600006EA05152B4383808483CD888587028404
:1023700070BD70B5002200230024058C4EF6FF7658
:1023800035400584038C8488828B48F6FF752A408B
:102390004FF6FF452A400D8820E00000002C014048
:1023A0000004004000080040000C00400010004005
:1023B0000014004000340140004C01400050014036
:1023C0000054014000180040001C00400020004064
:1023D0000040014000440140004801404FF6FF76B4
:1023E00006EA05252A434DF6FF752B400D8906EABE
:1023F00005352B434D8806EA05352B43FA4DA84297
:1024000002D0FA4DA84208D14BF6FF752C408D89B9
:102410004FF6FF7606EA85152C4384808283CD88AB
:10242000A0F84050038470BD828B4FF2FF331A40F6
:102430008283828B4FF6FF7303EA01231A43828360
:102440007047F0B50C461546002200210026078C87
:102450004EF6FF7C07EA0C070784828B018C4FF64F
:10246000FF7707EA043640F6FF473A404FF6FF771A
:1024700007EA05273A434FF6FF7707EA03373A435F
:10248000D94FB8420ED0D94FB8420BD0B0F1804FDF
:1024900008D0D74FB84205D0D64FB84202D0D64F59
:1024A000B84206D14DF6FF77394046F4805739439C
:1024B00005E047F6FF57394044F48057394382839B
:1024C0000184F0BD828B4FF6F3731A408283828BB6
:1024D0000A4382837047F0B50C461546002200215E
:1024E0000026078C4FF6FF6C07EA0C070784828BE7
:1024F000018C4FF6FF7707EA04264FF60C773A4037
:102500004FF6FF7707EA03172F433A43B64FB84217
:102510000ED0B64FB8420BD0B0F1804F08D0B44FB8
:10252000B84205D0B34FB84202D0B34FB84206D13B
:102530004FF6FF57394046F48077394305E04FF2B4
:10254000FF57394044F48077394382830184F0BDDA
:10255000028B4FF2FF331A400283028B4FF6FF7358
:1025600003EA01231A4302837047F0B50C4615466F
:10257000002200210026078C4FF6EF7C07EA0C07AB
:102580000784028B018C4FF6FF7707EA041640F6AA
:10259000FF473A404FF6FF7707EA03373A434FF6D3
:1025A000FF7707EA05273A438F4FB8420ED08F4F87
:1025B000B8420BD0B0F1804F08D08D4FB84205D053
:1025C0008C4FB84202D08C4FB84206D14FF6DF771D
:1025D000394046F01007394305E04FF65F77394040
:1025E00044F01007394302830184F0BD028B4FF69B
:1025F000F3731A400283028B0A4302837047F0B5DB
:102600000C46154600220021068C4FF6FE773E4010
:102610000684028B018C4FF60C7632407E1C06EA53
:1026200003162E433243704EB0420ED06F4EB0426E
:102630000BD0B0F1804F08D06D4EB04205D06D4E3A
:10264000B04202D06C4EB04206D14FF6FD7631401A
:1026500044F00106314305E04FF6F576314044F091
:102660000106314302830184F0BD70B505460C4676
:102670005D4885420ED05D4885420BD0B5F1804F54
:1026800008D05B48854205D05A48854202D05A4856
:10269000854200D100E000BF208850B92389A2887C
:1026A00061882846FFF7ABFFE1882846FFF79EFFC9
:1026B00025E0208804280AD12389A2886188284639
:1026C000FFF753FFE1882846FFF742FF17E0208815
:1026D00008280AD12389A28861882846FFF7FBFED3
:1026E000E1882846FFF7EEFE09E02389A288618889
:1026F0002846FFF7A6FEE1882846FFF795FE70BD45
:102700002DE9F04105460C4600260127608808B9EE
:10271000022600E00026A088012801D1022700E05F
:1027200001272088A0B92389A28861882846FFF75D
:1027300066FFE1882846FFF759FF23893A4631466C
:102740002846FFF712FFE1882846FFF701FF13E054
:102750002389A28861882846FFF707FFE188284679
:10276000FFF7F6FE23893A4631462846FFF747FF32
:10277000E1882846FFF73AFFBDE8F0810A884B88D8
:102780001A438B881A43CB881A430B891A434B8907
:102790001A438B891A43A0F8442070474FF6FF7103
:1027A000818000210180C180418001727047002139
:1027B000018041808180C180018141818181C1810D
:1027C0007047002101804180012181800021C1806A
:1027D000018170470021018041808180C180018199
:1027E0004181818170470000002C0140003401408C
:1027F0000004004000080040000C004021B10288A5
:1028000042F00102028004E002884FF6FE731A4093
:102810000280704731B1B0F8442042F40042A0F881
:10282000442005E0B0F84420C2F30E02A0F8442092
:1028300070471AB183890B43838102E083898B43FC
:10284000838170478182704741EA0203A0F84830D3
:1028500070471AB183890B43838102E083898B43DC
:102860008381704701894FF6F872114001817047EA
:102870000A46002101894FF68F73194011430181E7
:10288000704730B504460D4629462046FFF7F0FF55
:10289000208940F00700208130BD2DE9F041044639
:1028A0000D4616461F46602D06D13B460122314695
:1028B0002046FFF75AFE05E03B46012231462046FE
:1028C000FFF79DFE29462046FFF7D2FF208940F002
:1028D00007002081BDE8F08130B50C460021018958
:1028E000C9B24FF6FF7505EA032515432543294371
:1028F000018130BD2DE9F04105460E461746984648
:10290000002443463A4631462846FFF7E5FF2C8926
:102910004FF6F870044044F007044FF68F700440FF
:1029200044F070042C81BDE8F081F0B504460D46FA
:1029300016461F463B46324629462046FFF7CCFF47
:10294000208940F480402081F0BD0185828270475B
:102950000A46002101884FF68F7319401143018008
:102960007047F0B50C4615461E4600210022002394
:102970000189028B038C4FF6F877394021434FF6DB
:10298000FC473A4040F201173A434FF6DD773B40AF
:102990004FF6FF7707EA06172F433B430181028377
:1029A0000384F0BD0A460021018B4FF68F73194056
:1029B0001143018370470A460021018B48F6FF73DB
:1029C00019404FF6FF7303EA02231943018370474E
:1029D0000A460021818B4FF68F7319401143818382
:1029E00070470A460021818B48F6FF7319404FF665
:1029F000FF7303EA022319438183704721B10288E0
:102A000042F08002028004E002884FF67F731A4091
:102A10000280704721B1828842F00402828004E083
:102A200082884FF6FB731A408280704721B18288FA
:102A300042F00802828004E082884FF6F7731A4061
:102A40008280704721B1828842F00102828004E0D6
:102A500082884FF6FE731A40828070470A46002132
:102A6000018B4FF6F77319401143018370470A46F3
:102A70000021018B4FF2FF7319404FF6FF7303EAF9
:102A800002231943018370470A460021818B4FF6C8
:102A9000F77319401143818370470A460021818BE7
:102AA0004FF2FF7319404FF6FF7303EA02231943F5
:102AB000818370470A460021018B4FF6FB73194052
:102AC0001143018370470A460021018B4FF6FF3303
:102AD00019404FF6FF7303EA02231943018370473D
:102AE0000A460021818B4FF6FB7319401143818305
:102AF00070470A460021818B4FF6FF3319404FF68D
:102B0000FF7303EA02231943818370470A460021B9
:102B1000018B4FF67F7319401143018370470A46BA
:102B20000021018BC1F30E014FF6FF7303EA02236C
:102B30001943018370470A460021818B4FF67F734A
:102B400019401143818370470A460021818BC1F3EC
:102B50000E014FF6FF7303EA022319438183704786
:102B60000A460021018C4FF6FD7319401143018480
:102B700070470A460021018C4FF6F7731940114344
:102B8000018470470A460021018C4FF6DF7319401B
:102B90004FF6FF7303EA02131943018470470A4694
:102BA0000021018C4FF67F7319404FF6FF7303EA43
:102BB00002131943018470470A460021018C4FF625
:102BC000FF5319404FF6FF7303EA022319430184B0
:102BD00070470A460021018C4FF2FF7319404FF6EF
:102BE000FF7303EA02231943018470470A46002158
:102BF000018C4DF6FF7319404FF6FF7303EA023361
:102C000019430184704730B5002301248C40A3B2DE
:102C1000048C9C430484048C02FA01F5ADB22C436D
:102C2000048430BD30B5002304248C40A3B2048C4E
:102C30009C430484048C02FA01F5ADB22C43048455
:102C400030BD70B503460020002418461830012519
:102C50008D40ACB21D8CA5431D8409B1082909D152
:102C600000EB6100056825F07005056005681543F7
:102C700005600EE00D1FC5F34E052844056825F4D8
:102C8000E045056005684FF6FF7606EA0226354303
:102C9000056070BD21B1028842F00202028004E0AA
:102CA00002884FF6FD731A400280704721B10288F6
:102CB00042F00402028004E002884FF6FB731A40DF
:102CC0000280704721B1828842F08002828004E055
:102CD00082884FF67F731A408280704702884FF6D1
:102CE000F7731A40028002880A4302807047828884
:102CF0004FF68F731A40828082880A438280704721
:102D000002894FF6F8731A40028102890A43028150
:102D1000704702894FF67F731A40028102890A4385
:102D20000281704781847047818570478186704732
:102D30000187704781877047A0F84010704702886C
:102D40004FF6FF431A40028002880A430280704710
:102D50000146888E70470146088F70470146888F6C
:102D600070470146B1F8400070470146888C7047B3
:102D70000146088D704702460020138A0B400BB1B4
:102D8000012000E000207047CA430282704730B53E
:102D90000246002000230024158A05EA01039589D4
:102DA00005EA010413B10CB1012000E0002030BDA0
:102DB000CA4302827047000001684FF6FE7211405C
:102DC00001600021016041608160C1608D498842DD
:102DD00008D18C490839496841F00F01894A083AFD
:102DE00051608AE087491431884208D18549083901
:102DF000496841F0F001834A083A51607DE0814919
:102E00002831884208D17F490839496841F4706106
:102E10007C4A083A516070E07A493C31884208D1D6
:102E200078490839496841F47041764A083A516056
:102E300063E074495031884208D1724908394968C1
:102E400041F470216F4A083A516056E06D4964318F
:102E5000884208D16B490839496841F47001694AD0
:102E6000083A516049E067497831884208D165499C
:102E70000839496841F07061624A083A51603CE0A3
:102E80006149884206D1011F096841F00F01021F04
:102E9000116032E05C491431884208D15A49091F57
:102EA000096841F0F001584A121F116025E05649A7
:102EB0002831884208D15449091F096841F47061DA
:102EC000514A121F116018E04F493C31884208D125
:102ED0004D49091F096841F470414B4A121F1160A6
:102EE0000BE049495031884207D14749091F096819
:102EF00041F47021444A121F1160704710B500223E
:102F0000026847F6F0739A430C6A8B6823430C6996
:102F100023434C6923438C692343CC6923434C6A84
:102F200023438C6A23431A430260CB6843600B68D7
:102F300083604B68C36010BD002101604160816007
:102F4000C160016141618161C1610162416281626F
:102F5000704721B1026842F00102026004E0026899
:102F60004FF6FE731A40026070471AB103680B43B4
:102F7000036002E003688B43036070474160704761
:102F80000146486880B2704701460020002201F0E7
:102F900080531BB11C4B083B1A6802E0194B083BDD
:102FA0001A6802EA01030BB1012000E0002070471B
:102FB00000F0805119B11449091F086002E011495D
:102FC00008394860704701460020002201F0805314
:102FD0001BB10D4B083B1A6802E00A4B083B1A680C
:102FE00002EA01030BB1012000E00020704700F06D
:102FF000805119B10449091F086002E001490839EC
:1030000048607047080002400804024010B50446BA
:10301000FA48844208D101214015FEF771FD0021D4
:103020006015FEF76DFD17E0F548844208D10121D7
:103030000015FEF765FD00212015FEF761FD0BE090
:10304000F048844208D10121C803FEF759FD002150
:103050004FF40040FEF754FD10BD30B5024600208D
:1030600000235068E84C20400D790C6844EA0524A0
:10307000204350609068E54C2040D1E902542C4335
:103080004D7944EA450420439060D06A20F47000F2
:103090000C7C641EE4B2234340EA0350D06230BD8E
:1030A00000210160017141718160C16001210174E1
:1030B000704721B1826842F00102826003E08268B9
:1030C00022F001028260704721B1826842F480726E
:1030D000826003E0826822F480728260704710B5DB
:1030E0000023CBB21AB144681C43446002E0446838
:1030F0009C43446010BD816841F0080181607047C5
:10310000014600208A6802F008020AB1012000E0AE
:1031100000207047816841F00401816070470146DA
:1031200000208A6802F004020AB1012000E00020B9
:10313000704721B1826842F4A002826003E0826895
:1031400022F4A00282607047014600208A6802F4DF
:1031500080020AB1012000E00020704710B50A4645
:1031600000210023416821F46041531E41EA4331AC
:10317000416010BD21B1426842F40062426003E048
:10318000426822F4006242607047F0B504460D4682
:1031900000200021092D11DDE068A5F10A0606EBEB
:1031A0004607072606FA07F18843A5F10A0606EB4B
:1031B000460603FA06F10843E0600CE0206905EBDF
:1031C0004507072606FA07F1884305EB450603FA8B
:1031D00006F108432061072A0FDA606B561E06EBE2
:1031E00086071F2606FA07F18843561E06EB860659
:1031F00005FA06F10843606322E00D2A0FDA206B1E
:10320000D61F06EB86071F2606FA07F18843D61F4E
:1032100006EB860605FA06F10843206310E0E06A33
:10322000A2F10D0606EB86071F2606FA07F1884372
:10323000A2F10D0606EB860605FA06F10843E062E8
:10324000F0BD21B1826842F48012826003E082689E
:1032500022F48012826070470146C86C80B27047C9
:1032600066484C300068704721B1426842F4806281
:10327000426003E0426822F480624260704721B1FC
:10328000426842F48052426003E0426822F4805275
:10329000426070470A460021816821F4E0411143F1
:1032A0008160704721B1826842F40042826003E08D
:1032B000826822F400428260704721B1826842F441
:1032C0000212826003E0826822F402128260704778
:1032D000014600208A6802F400120AB1012000E0D1
:1032E00000207047F0B50446154600200022002655
:1032F000092911DDE068A1F10A0707EB470C072750
:1033000007FA0CF29043A1F10A0707EB470703FA0B
:1033100007F21043E0600CE0206901EB410C072745
:1033200007FA0CF2904301EB410703FA07F210434E
:103330002061A06BC0F30156EF1C06F1010CA7EB56
:103340000C0707EB870C1F2707FA0CF29043EF1CC2
:1033500006F1010CA7EB0C0707EB870701FA07F250
:103360001043A063F0BD10B50A4600210023816B15
:1033700021F44011531E41EA0351816310BD08B589
:10338000002300930090009B0B440093009B1A6065
:1033900008BD08B5024600200090009201F1280007
:1033A000009B184400900098006880B208BD0A464F
:1033B00000214168164B194011434160704741623A
:1033C000826270470A460021416821F01F011143C3
:1033D0004160704740B109490831096841F4000172
:1033E000064A0832116007E004490831096821F4EF
:1033F0000001024A083211607047000000240140B9
:1034000000280140003C0140FFFEF0FFFDF7F1FF06
:10341000FFFD3FFF0246002013680B400BB1012067
:1034200000E000207047CA430260704770B5024652
:103430000020002300240B125568CEB205EA0604D2
:1034400015681D4015B10CB1012000E0002070BDD1
:1034500000220A12D3430360704700002DE9F04FA9
:103460004FF0000C4FF0000301EB1C6EBEF9025050
:10347000BEF900400EF5807EBEF90290BEF90080D4
:103480000EF5807EBEF90270BEF900600EF5807EFA
:10349000BEF902B0BEF900A00EF5807ED044D9443A
:1034A000A8EB4A0AA9EB4B0B4FEAA4044FEAA50587
:1034B00004EBA60405EBA705A4EB6606A5EB6707DE
:1034C00004EBA80405EBA905A4EB6808A5EB6909C2
:1034D00006EBAB06A7EBAA07A6EB6B0B07EB6A0A9A
:1034E000458020F8044B478020F8046BA0F8029038
:1034F00020F8048BA0F802A020F804BB03F101031C
:1035000093FAA3FC402BAFD1A0EB82014FF0100344
:1035100012090FF2361000F1000006B403EB430C61
:103520006144A2F5803202EB8332B1F90250B1F965
:103530000040A1EB0301B0F902B0B0F900A000F126
:103540000400A5EB040E0EFB0BFC0AEB4B0E05FB77
:103550000ACB04FB0ECAB1F90250B1F90040A1EB4D
:103560000301B0F90290B0F9008000F10400A5EB6E
:10357000040E0EFB09FC08EB490E05FB08C904FB11
:103580000EC8B1F90250B1F90040A1EB0301B0F946
:103590000270B0F9006000F10400A5EB040E0EFB10
:1035A00007FC06EB470E05FB06C704FB0EC6B1F988
:1035B0000250B1F9004001F10001D044D944A8EB18
:1035C0004A0AA9EB4B0B4FEAA4044FEAA50504EB0A
:1035D000264405EB2745A4EBE636A5EBE73704EBDD
:1035E000284405EB2945A4EBE838A5EBE93906EBBF
:1035F0002B46A7EB2A47A6EBEB3B07EBEA3A4D80BD
:103600000C8019444F800E801944A1F80290A1F853
:1036100000801944A1F802A021F804BBB2F5803261
:1036200083DA03EB430C6144A2F101025FEA024E2C
:1036300018BFA0EB0C007FF476AF06BC4FEA830303
:1036400092087FF46AAFBDE8F08F004000000040B0
:103650000000004000005DDD213BA3227E18000039
:10366000412D7EA5412D0000412D00C000405DDDB3
:1036700082E75DDD213B7EA5412D0040000000403A
:10368000000000400000AA2A94126B394606493215
:103690007C0CA8118E2349327C0CA3227E1821F7C2
:1036A0007931AA2A9412A8118E235DDD213BA32231
:1036B0007E180000412D95C6B13F461A2B1E58EECC
:1036C0003735BEB4C53EA8118E235DDD213B63A90D
:1036D0007138DF089A28B7CDC53E7EA5412D000080
:1036E000412D00C0004063A92B1E21F77931BEB4E3
:1036F000C53EBEB47C0C58EE373561AC213B95C657
:10370000BAF9BAE571383BA737355DDD82E75DDD93
:10371000213B7EA5412D21F766D756D53F3D3BA7DE
:103720008E23A811C9CAB7CDC53E61AC7E18AA2A9E
:10373000C1C295C6B13FBEB47C0C00400000004041
:103740000000004000001E3BB504693E9201C83CE9
:103750002403EB356409C83C24036B3946066C30FE
:10376000060E1E3BB504EB356409AA2A94126B3988
:10377000460649327C0CAE240917AF37D607882E8F
:103780008D0F7E1E5D1BEB356409AA2A9412241846
:103790008C1F1E34F10AB3269015A8118E234932CE
:1037A0007C0CA3227E18140B60276C30060E7E1E44
:1037B0005D1B7104FB2A882E8D0F461A2B1EC7FD38
:1037C0005A2E9D2C1211FE15E72021F77931AA2AD5
:1037D0009412A8118E2387F05334B2281314480D85
:1037E000202602EAE536B3269015DF089A289CE3E6
:1037F0002B39AE2409177104FB2A5DDD213BA3227E
:103800007E180000412D4ED7C53C9320EF198FFB49
:103810006C2F78D1153E7E1E5D1B21F77931E2CBEE
:103820000F3F641CC61CB8F2683395C6B13F461AF8
:103830002B1E58EE373597C1FB3F24188C1F02EA28
:10384000E536F0BCEC3FFE15E720BAE57138A6B8C6
:10385000853FD5133D2282E1DB39BEB4C53EA811B8
:103860008E235DDD213B40B1AF3D790FDA244DD988
:10387000423C2EAE423C480D202656D53F3D8EABF5
:10388000823A140B602778D1153E63A97138DF089E
:103890009A28B7CDC53EB1A71236A906CE2915CABA
:1038A0004F3F78A668337104FB2A95C6B13FBCA58B
:1038B00076303902212C38C3EC3F7EA5412D000023
:1038C000412D00C00040BCA5CE29C7FD5A2EF0BC3A
:1038D000EC3F78A620268FFB6C2F09BAB13FB1A729
:1038E0003D2257F976304DB74F3F63A92B1E21F784
:1038F0007931BEB4C53E8EABEF19ECF474325EB2D2
:10390000153E2EAE9015B8F268332DB03F3D40B154
:10391000121187F053342EAE423CBEB47C0C58EEEC
:10392000373561AC213BA6B8D6072BEC1236C8AAB6
:10393000DB39F0BC240302EAE53663A9713897C18C
:103940006EFEDCE7B03734A8E53695C6BAF9BAE5BD
:1039500071383BA73735E2CB0FF59CE32B3978A6BE
:10396000683378D173F082E1DB39EDA579314ED738
:10397000EDEB6DDF823A99A56C2F5DDD82E75DDDB1
:10398000213B7EA5412D9CE33AE352DBB63B99A552
:10399000FB2A02EA19DF4DD9423CEDA59A2887F0AF
:1039A00026DB4ED7C53C78A6202621F766D756D50C
:1039B0003F3D3BA78E23C7FDDFD363D3AF3D34A884
:1039C000E720710494D078D1153E63A92B1E140B07
:1039D0008CCD94CF723EC8AA5D1BA811C9CAB7CDC1
:1039E000C53E61AC7E18241850C8E2CB0F3F2EAE06
:1039F00090157E1E25C615CA4F3F2DB09412AE24D9
:103A00004AC451C8853F5EB28D0FAA2AC1C295C66D
:103A1000B13FBEB47C0C6C308EC1E2C4D43F4DB714
:103A20006409EB35B1C038C3EC3F09BA46061E3B0A
:103A30002CC097C1FB3FF0BC240370477047704710
:103A40007047704710B500F009F8006810BD10B558
:103A5000044600F003F8046010BD00000048704701
:103A60007013002000487047701300207546FFF760
:103A7000F9FFAE4605006946534620F0070085462B
:103A800018B020B5FDF786FCBDE820404FF00006D9
:103A90004FF000074FF000084FF0000B21F0070136
:103AA000AC46ACE8C009ACE8C009ACE8C009ACE879
:103AB000C0098D4670470446AFF300802046FCF7EE
:103AC0005CFB2DE9F04106460F4600F017FA0400B2
:103AD0000D4618BF0120284320F00040C0F17F6050
:103AE00000F1E040C00F0ED0301C18BF0120384359
:103AF00020F00040C0F17F6000F1E040C00F04BF43
:103B00000120FFF7A4FF20462946BDE8F081000010
:103B100021F00042A2F16052B2F5801F01F0004393
:103B200028BFD2F17F6C0BD95FEA001C43EAC202C6
:103B300042EB507018BF704728BF20F0010070475B
:103B4000B2F5801FBCBF184670474FEA410C1CF508
:103B5000001F02D2084600F002BD70B500F079F9EE
:103B600000000089FFF7F6BF4FF00040A0F580008D
:103B7000704700002DE9C04130B4DFF8A0C23CEA34
:103B8000111418BF3CEA131400F0EC8081EA03051D
:103B90001CEA111444EAD57418BF1CEA131500F08E
:103BA000C780A4EB05044FF0004545EAC12145EA72
:103BB000C32341EA505143EA525304F17F749942BE
:103BC00004F500344FEAC0204FEAC22208BF9042F9
:103BD00000F09C804FEA13650FF24016765D4FEAC5
:103BE000134506FB05F7C7F1807706FB07F74FEA99
:103BF000D737A7FB03687642C8F58038A7FB06CE07
:103C000038BFA8F1010807FB08E64FF0000EA6FB3D
:103C1000028CE6FB03CEDCF1000CCEF1004E38BF87
:103C2000AEF1010EA6FB0C584FF000074FF0000557
:103C3000E6FB0E87A1FB08C6A0FB07CE16EB0E061F
:103C400045F10005E1FB076515F1E04E7EBFA4F5E7
:103C500080345FEA46066D4116F1800745F10005A4
:103C60004FEA17274FEA066647EA0567A6F1DE46E0
:103C7000B6F1805F4FEA15251FD9384624F0010CB4
:103C800005EBC471BCF1FE6F01EB0C1102D8F0BC66
:103C9000BDE8008124425CBF01F5801E9EEAC47F1E
:103CA00002D4F0BCBDE80081244238D4F0BCA1F1BC
:103CB000C041BDE8004100F01AB94FEAD22242EA01
:103CC00043524FEAD323A7FB02864FEAD02040EAB3
:103CD000415007FB03661EEA0E0F4FEAD12105FB98
:103CE000026658BFA6EB0056B6EB00564FEA520EDE
:103CF0004EEAC37E18EB0E0E56EB530EBDD518EBF5
:103D000002085E417F1C55F10005B6E74FF48015AF
:103D10004FF000074FF000064FF00008ADE7F0BC91
:103D20004FF0000001F1C04101F00041BDE8008109
:103D300011EA0C1F0CEA131500D00CE013EA0C1F5B
:103D400000F025804FF00000F0BC81EA030101F093
:103D50000041BDE80081F0BCBDE8004181EA0301FB
:103D600000F0C5B8F0BCBDE8004170B500F071F8D6
:103D7000097EFC3E00F007B881EA03014FF0000025
:103D800001F00041704781EA030100F0B0B8F0BCD7
:103D9000BDE800414FF0000021497047FFFDFBF9ED
:103DA000F7F5F4F2F0EEEDEBE9E8E6E4E3E1E0DE6E
:103DB000DDDBDAD8D7D5D4D3D1D0CFCDCCCBCAC8E0
:103DC000C7C6C5C4C2C1C0BFBEBDBCBBBAB9B8B707
:103DD000B6B5B4B3B2B1B0AFAEADACABAAA9A8A8FA
:103DE000A7A6A5A4A3A3A2A1A09F9F9E9D9C9C9BC8
:103DF0009A99999897979695959493939291919073
:103E00008F8F8E8E8D8C8C8B8B8A89898888878703
:103E10008685858484838382828181800000FF0778
:103E20000000F87F10F0004248BF4042B0FA80F333
:103E300010FA03F10AD0C3F11D0303F580634FEAC2
:103E4000415002EB035202EBD12170474FF00000CA
:103E500070470EF1020E2EF0030E5EF8046B364230
:103E600005D4012A43EB030515F5001F12D80128DC
:103E700041EB010C1CF5001F0CD80ED14FEAD17C90
:103E800015F5001F0CEB4C0C0CF1020C08BF4CEBB1
:103E9000D37C04E04FF0080C01E04FEAD37C0CEB3C
:103EA0004C0526FA05F606F00706B6F1040C06D214
:103EB0000EEB860CBDE870404CF0010C6047DFE86B
:103EC0000CF0090B02024FF000414FF00000A1F589
:103ED000002170BD19461046012851EB010418BF9E
:103EE000D4F5001484BF002001F0004170BD080823
:103EF000A0F500114FEA3101704700002DE9F041B3
:103F000001F5801CBCF5001FC0F2C3804FEA115CB4
:103F100021EA0C510CF1FD0C41F480115FEA5C0CBC
:103F20000CF5C07C01D3400049413DA4890241EA1F
:103F3000905187028E0E0A0CA45D04FB04F602FB6E
:103F400006F6C6F14046A4FB0662F60D46EA422696
:103F500006FB06F4A4FB01235242C3F1404338BFE1
:103F60005B1EA6FB02420024E6FB0324D20B42EABE
:103F70004446A6FB0623A1FB02E2A3FB07E4A41828
:103F80004FF0000252F10002E3FB01426442C2F131
:103F9000404E38BFAEF1010EA6FB04234FF00002E5
:103FA000E6FB0E32A2FB03464FF00004B61954F1B3
:103FB0000004E2FB0264A1FB06E6A4FB07E816EBA3
:103FC00008064FF0000858F10008E4FB016876424B
:103FD000C8F1405838BFA8F10108A2FB06E4A3FBD2
:103FE00008E52D194FF0000454F10004E2FB0854D9
:103FF000A1FB05E6A7FB04E818EB06084FF0000656
:1040000056F10006E1FB048618F1200556F1000682
:10401000A809A8F11B08B10908F03F08B8F10A0F78
:1040200040EA86601CD901EB0C51BDE8F08100BF6D
:10403000FCF5EEE8E2DDD8D3CFCBC7C3C0BDB9B63F
:10404000B4B1AEACA9A7A5A3A19F9D9B9A98969544
:104050009392908F8D8C8B898887868584838281CB
:10406000A0FB006800FB01F208EB4208B8EB8728D0
:1040700007D5341858EB0104D5D5401C51F1000187
:10408000D1E7341A78EB0104CDD4401E71F1000160
:10409000C9E75FEA4C0C5FEA9C5C0DD105D34FF099
:1040A000000001F00041BDE8F081BDE8F04170B5CD
:1040B000FFF7CFFE6DDBFFBEBDE8F0414FF0000023
:1040C000004970470000F87F43004FEAD30C4FEAE5
:1040D0003C0C43401FBF40070CF1605113F0FE4FF2
:1040E00070471CF0006F03D100200CF000417047B6
:1040F0000CF0004343EA507010B540EACC0000F0E9
:10410000E8F900BF000000924FEA0001FFF7EFBEA0
:104110004FF000414FF00000A1F500217047000072
:1041200090EA010F48BF81F0004100F12482421A59
:104130003CBF801A89184FEAD0524FF07F4C1CEADE
:10414000410FA2EBD15318BF9CEA026F00F03B80F5
:104150004FF0004C4CEA00204CEA012121FA03FC0C
:1041600010EB0C0C1ED202F1FF325FEA1C2040EB78
:10417000C25038BF70471CF07F0F4FEA400C18BF89
:10418000BCF17F4F38BF7047C3F12003994008BF8F
:1041900020F00100BCF17F4F38BF7047A0F1C04054
:1041A00000F0DDB94FEA3C00000A40EBC25028BFE6
:1041B0001CF0FF0F4FEA400CE6D018BFBCF17F4F58
:1041C00038BF7047EAE79CEA026F05D010EA5C0F3F
:1041D00008BF00F00040704710B500F07AF900BF4A
:1041E00064FBBE3E4FF47F0C1CEAD0121EBF1CEADB
:1041F000D11392EA0C0F93EA0C0F00F0858090EA3D
:10420000010F48BF42F4807240F4000C41F40000FA
:104210002CF07F4120F07F4000B58142A2EB0302E9
:104220000FF2081CACEB504EC0F100009EF800E00D
:104230004FEA4E0E00FB0EFC38BF49004FEA2C1C23
:1042400002F5FA020CFB0EF34FEACE1E4FEA112CD8
:104250004FEAC1210EEB635E42EB22420EFB0CFCE7
:104260004FEA1C5300FB03114FEA112C4FEA0131B6
:104270000EFB0CFC4FEADC4C00FB0C11C14228BFCA
:1042800009184CEB03335DF804EB10EB410143EBF1
:10429000C250B2F57C0F38BF704729D512F0F00F2D
:1042A0001CBF00F1C04000F00040704700818283D5
:1042B0008485868788898B8C8D8E8F919293959635
:1042C00097999A9C9D9FA0A2A3A5A7A8AAACAEB0BF
:1042D000B2B3B5B7B9BCBEC0C2C5C7C9CCCED1D4C4
:1042E000D7D9DCDFE2E6E9ECF0F3F7FAFE000000F4
:1042F0004FEA400C0CF1807CBCF17E4F28BF704728
:10430000B0F1C04000F02BB990EA010F0CEAD113D4
:1043100048BF42F48072624538BF634507D213F448
:104320007F0F16D080EA010000F00040704710B502
:1043300000F0CFF8097EFC3E00F005B880EA0100ED
:1043400000F00040704780EA010000F0004000F0FB
:1043500006B912F47F0F04BF0248704780EA0100DB
:1043600000F0FDB80000C07F41000B0ED3F19E02AB
:1043700008D950F400034FEA032323FA02F048BFA0
:104380004042704710B500F0A4F800BF4992248065
:10439000002070476FF0004282EA20007047000062
:1043A00010F0004148BF4042B0FA80F310FA03F227
:1043B000C3F19D030BD051EAC35101EB1220530608
:1043C00038BF704700F1010008BF20F001007047BE
:1043D0004FF47F0C1CEAD0121EBF1CEAD11392EAE4
:1043E0000C0F93EA0C0F00F0478090EA010F48BFD2
:1043F00042F480724FF0004C4CEA00204CEA01215C
:1044000002EB0302A0FB0113A2F50002002918BF72
:1044100043F001035B0028BF4FEA330342EB224223
:104420005FEA132C4CEBC2502EBFBCEB436FB2F5CE
:104430007C0F70474FEA036CBCF1004F08BF20F0BF
:104440000100B2F57C0F38BF70470BD582F0FF0238
:1044500012F5803FC8BF704700F1C040D8BF00F0E0
:104460000040704700F5000C5FEA4C0C48BF7047F5
:10447000B0F1C04000F073B890EA010F0CEAD1131C
:1044800048BF42F48072624538BF634504D280EA77
:10449000010000F00040704710B500F01AF800BFAE
:1044A0008900013E00F007B800F009B85FEA410C4E
:1044B0005FEA1C6C08D080EA010000F050B85FEAA7
:1044C000400C5FEA1C6CF6D14FF00040A0F5800074
:1044D00070470EF1020E2EF0030E5EF8044B2442DC
:1044E00004D44FEA4102B2F17F4F11D84FEA4003A2
:1044F000B3F17F4F0CD80ED14FEAD07CB2F17F4F91
:104500000CEB4C0C0CF1020C08BF4CEBD17C04E022
:104510004FF0080C01E04FEAD17C0CEB4C0324FA7D
:1045200003F404F00704B4F1040C06D20EEB840C7F
:10453000BDE810404CF0010C6047DFE80CF00708C4
:1045400002024FF00040A0F5800010BD0846420076
:1045500018BFD2F1807288BF00F0004010BDFF216B
:1045600041EAD050C005704790EA010F48BF81F082
:1045700000413FF5DCAD421A04D882F00042A0EBC6
:10458000020011444FEAD0524FF07F4C1CEA410F19
:10459000A2EBD15318BF9CEA026F4AD04FF0004CF7
:1045A0004CEA00204CEA012121FA03FCB0EB0C0C90
:1045B0000FD412F0FE0F36D05FEA4C001DD500126A
:1045C00040EBC25038BF70471CF03F0F18BF704718
:1045D0000BE0A2F101025FEA1C2040EBC25038BFA1
:1045E00070471CF07F0F18BF7047C3F1200399403C
:1045F00014BF401E20F00100704780084FEA1223CC
:1046000008BF7047B0FA80FCA2EB0C02CCF1280C7A
:1046100060FA0CF093EA122F04BF00EBC25070470F
:104620004FEAC3707047130A5FEADC1008BF704797
:10463000F6E79CEA026F04D010EA5C0F08BF002086
:10464000704710B5FFF745FF40DFF63E81F00040B0
:1046500070470000000000000000000000000000A3
:104660000000000000F800000000000000333000EF
:10467000000000100C06100C0600000000000000F6
:10468000000040C07840C0784000043F04043F046C
:104690000400007088FC08300000001820FF211E74
:1046A0000000F008F000E018000000211C031E21AB
:1046B0001E0000F00888700000001E212324192726
:1046C000211010160E000000000000000000000085
:1046D0000000000000E0180402000000000718209D
:1046E000400000020418E00000000040201807000D
:1046F0000000404080F0804040000202010F0102B3
:104700000200000000F0000000000101011F010193
:104710000100000000000000000080B070000000F8
:104720000000000000000000000000010101010184
:104730000101000000000000000000303000000017
:1047400000000000000080601804006018060100EE
:10475000000000E010080810E000000F10202010FA
:104760000F00001010F8000000000020203F202063
:1047700000000070080808887000003028242221FA
:1047800030000030088888483000001820202011B0
:104790000E000000C02010F8000000070424243F91
:1047A000240000F80888880808000019212020113A
:1047B0000E0000E0108888180000000F1120201162
:1047C0000E0000380808C83808000000003F00004C
:1047D00000000070880808887000001C2221212237
:1047E0001C0000E010080810E00000003122221137
:1047F0000F00000000C0C0000000000000303000CA
:104800000000000000800000000000008060000048
:104810000000000080402010080000010204081081
:104820002000404040404040400004040404040490
:10483000040000081020408000000020100804023E
:104840000100007048080808F00000000030360140
:104850000000C030C828E810E000071827242314FF
:104860000B000000C038E0000000203C23020227BB
:10487000382008F8888888700000203F2020201108
:104880000E00C03008080808380007182020201043
:10489000080008F808080810E000203F2020201039
:1048A0000F0008F88888E8081000203F2020232007
:1048B000180008F88888E8081000203F200003004E
:1048C0000000C03008080838000007182020221E09
:1048D000020008F808000008F808203F2101012123
:1048E0003F20000808F8080800000020203F202092
:1048F000000000000808F8080800C08080807F00E1
:10490000000008F888C028180800203F2001263839
:10491000200008F8080000000000203F2020202090
:10492000300008F8F800F8F80800203F003F003F8A
:10493000200008F830C00008F808203F20000718C1
:104940003F00E01008080810E0000F1020202010A1
:104950000F0008F808080808F000203F21010101B5
:104960000000E01008080810E0000F182424385058
:104970004F0008F8888888887000203F2000030CCA
:1049800030200070880808083800003820212122D3
:104990001C00180808F8080818000000203F200034
:1049A000000008F808000008F808001F2020202058
:1049B0001F000878880000C83808000007380E017A
:1049C0000000F80800F80008F800033C0700073C66
:1049D0000300081868808068180820302C03032C16
:1049E00030200838C800C83808000000203F2000E8
:1049F000000010080808C8380800203826212020A8
:104A00001800000000FE020202000000007F40408B
:104A10004000000C30C0000000000000000106381B
:104A2000C00000020202FE000000004040407F0083
:104A30000000000004020202040000000000000068
:104A40000000000000000000000080808080808066
:104A5000808000020204000000000000000000004E
:104A600000000000808080800000001924222222A3
:104A70003F2008F8008080000000003F1120201136
:104A80000E000000008080800000000E1120202019
:104A90001100000000808088F800000E1120201016
:104AA0003F200000808080800000001F2222222200
:104AB0001300008080F0888888180020203F202084
:104AC00000000000808080808000006B94949493AC
:104AD000600008F8008080800000203F2100002056
:104AE0003F2000809898000000000020203F2020F8
:104AF0000000000000809898000000C08080807F47
:104B0000000008F8000080808000203F24022D3043
:104B10002000000808F8000000000020203F2020AE
:104B200000008080808080808000203F20003F2027
:104B3000003F8080008080800000203F2100002016
:104B40003F200000808080800000001F2020202067
:104B50001F00808000808000000080FFA1202011C5
:104B60000E000000008080808000000E112020A038
:104B7000FF80808080008080800020203F212000F6
:104B800001000000808080808000003324242424E1
:104B90001900008080E0808000000000001F2020BD
:104BA00000008080000000808000001F2020201076
:104BB0003F20808080000080808000010E30080649
:104BC000010080800080008080800F300C030C305A
:104BD0000F0000808000808080000020312E0E3188
:104BE0002000808080000080808080818E70180688
:104BF000010000808080808080000021302C2221F4
:104C0000300000000000807C020200000000003F35
:104C1000404000000000FF00000000000000FF0016
:104C200000000002027C800000000040403F0000C5
:104C30000000000601010202040400000000000060
:104C40000000404044445464454644645444444055
:104C50004000000000000000000000000000000014
:104C60000000000000FF49494949494949FF000047
:104C70000000000000000000000000000000000034
:104C80000000202020BEAAAAAAAAAAAAAABE202062
:104C900020000000000000000000000000000000F4
:104CA0000000008080AFAAAAAAFFAAAAAAAF8080AB
:104CB00000000000000000000000000000000000F4
:104CC0000000101010FF9020984828090E2848A8CE
:104CD00018000000000000000000000000000000BC
:104CE00000000242817F0040404242427E424242F6
:104CF0004000000000000000000000000000000074
:104D0000000040504E4848FF48484840F80000FF27
:104D10000000000000000000000000000000000093
:104D2000000000003E0202FF12221E000F40807FA2
:104D30000000000000000000000000000000000073
:104D4000000080809E9292929EE0809EB2D2929EBF
:104D500080000000000000000000000000000000D3
:104D600000000808F4949292F10001F2929494F8F1
:104D7000080000000000000000000000000000002B
:104D80000000404042CC0040A09E8282829EA02033
:104D900020000000000000000000000000000000F3
:104DA00000000000003F908840432C1028464180BE
:104DB0008000000000000000000000000000000073
:104DC0000000404042CC0040404040FF4040404056
:104DD0004000000000000000000000000000000093
:104DE00000000000007F2010000000FF0000000015
:104DF00000000000000000000000000000000000B3
:104E00000000008060F88780848484FE8283828032
:104E10008000000000000000000000000000000012
:104E20000000010000FF00404040407F4040404003
:104E30000000000000000000000000000000000072
:104E40000000008060F847404444447F44444444A8
:104E50004000000000000000000000000000000012
:104E60000000010000FF40404444447F4444444467
:104E700040000000000000000000000000000000F2
:104E80000000000000BE2A2A2AEA2A2A2A3E000040
:104E90000000000000000000000000000000000012
:104EA0000000004442494949497F49494949414034
:104EB00000000000000000000000000000000000F2
:104EC00000000000000000000000000000000000E2
:104ED00000000000000000000000000000000000D2
:104EE00000000000000000000000000000000000C2
:104EF00000000000000F80380FFE380F80380000DF
:104F000000000000000000000000000000000000A1
:104F10000100000600000C0000380000310000060F
:104F200000000C000038000030000000000000000D
:104F3000000061800067F807F980006180006180EF
:104F40000061800061800067F807F98000618000DF
:104F5000000000000000000001C0E003E0F00630A7
:104F6000080418081FFFFE040E080787F00381E0FD
:104F700000000000000001F000060C000404080618
:104F80000C7001F9C0000E00003BE000EC180708AF
:104F900008040C180003E00000000001E00007F026
:104FA00003F818041C0804170807E1D003C0E00048
:104FB00023B0003C080020080000100000000000A2
:104FC000000100003100003200001C000000000061
:104FD00000000000000000000000000000000000D1
:104FE00000000000000000000000000000000000C1
:104FF00000007F0001FFC00780F00C0018100004C3
:105000002000020000000000002000021000040C3C
:1050100000180780F001FFC0007F000000000000C2
:10502000000000000000000000000000000042003E
:10503000006600006600003C0000180003FFC0008E
:105040001800003C000066000066000042000000FE
:105050000000080000080000080000080000080028
:1050600001FFC00008000008000008000008000060
:1050700008000000000000010000310000320000C4
:105080001C00000000000000000000000000000004
:105090000000000000000000000008000008000000
:1050A00008000008000008000008000008000008D0
:1050B00000000800000800000000000000000000E0
:1050C0000000380000380000380000000000000038
:1050D00000000000000000000000000000000000D0
:1050E0000000000600001C000070000180000E009F
:1050F00000380000C0000700001C00003000000065
:105100000000000000007F8001FFE00380700600C7
:105110001804000804000806001803807001FFE06E
:10512000007F800000000000000000000100080176
:10513000000801000803FFF807FFF800000800005E
:105140000800000800000000000000000001C03856
:1051500002C0580400980401180402180404180638
:105160001C1803F81801E0F800000000000000001F
:105170000001C0E003C0F0040008040808040808A7
:1051800006180803F41801E7F00001E00000000031
:105190000000000000000300000D0000110000618D
:1051A0000000810803010807FFF80FFFF80001085D
:1051B0000001080000000000000000E007FCD0062D
:1051C0000808061008061008061008061838060F0A
:1051D000F00607C0000000000000000000003F8053
:1051E00001FFE003843002081804100804100804CA
:1051F0001008071810030FF00007C000000000009F
:105200000000000003C0000700000600000600F8D0
:105210000607F806180006E0000700000600000078
:10522000000000000001E1E003F7F006341004186C
:1052300008041808040C08040C0806161803F3F0F8
:1052400001C1E000000000000000F80003FC300392
:1052500006380402080402080402080404100308C3
:10526000F001FFC0007F000000000000000000000F
:1052700000000000000000000000703800703800DE
:105280007038000000000000000000000000000076
:105290000000000000000000000000000000301AC4
:1052A00000301C00000000000000000000000000B2
:1052B00000000000000000000008000014000022B0
:1052C0000000410000808001004002002004001026
:1052D000080008000000000000002100002100007C
:1052E00021000021000021000021000021000021F8
:1052F000000021000021000000000000000000006C
:105300000800080400100200200100400080800016
:10531000410000220000140000080000000000000E
:105320000003C00004C000040000080038080F3863
:105330000808380810000C300007E00003C0000027
:105340000000000000003F8000FFE0038070020FBB
:105350001006708804C088048308047F8802C09007
:1053600003012000FE400000080000180001F800C2
:105370003E0801C20007020007E20000FE00001F15
:10538000C80001F800003800000804000807FFF812
:1053900007FFF804080804080804080804080806B9
:1053A000180803F41801E7F00001E0000000000015
:1053B00000003F8001FFE003807002001804000835
:1053C0000400080400080400100600200780C00044
:1053D000000004000807FFF807FFF80400080400B5
:1053E0000804000804001802001003807001FFE0A8
:1053F000007F8000000004000807FFF807FFF804A2
:105400000808040808040808040808043E08040002
:105410000806001801006000000004000807FFF8FB
:1054200007FFF80408080408000408000408000442
:105430003E000600000600000180000000000000A1
:1054400000003F8001FFE0038070060018040008A0
:105450000402080402080203F00783F000020000BF
:10546000020004000807FFF807FFF8040808000816
:105470000000080000080000080004080807FFF802
:1054800007FFF80400080000000000000400080402
:10549000000804000807FFF807FFF80400080400EC
:1054A00008040008000000000000000000000006E2
:1054B00000000700000104000104000104000307CC
:1054C000FFFE07FFFC0400000400000400000400CD
:1054D0000807FFF807FFF8040C08001800003E005A
:1054E00004C7800503C80600F8040038040018004B
:1054F000000804000807FFF807FFF8040008000090
:10550000080000080000080000080000080000185B
:1055100000006000000004000807FFF8078008078B
:10552000FC00007FC00003F80007C000780007807F
:105530000807FFF807FFF804000804000807FFF851
:1055400007000803C00000E000003800001E000053
:1055500007000001C00400F007FFF804000000008D
:1055600000007F8001FFE00380700600180400083F
:1055700004000806001803003001FFE0007F8000EF
:10558000000004000807FFF807FFF80404080404FB
:1055900000040400040400040400060C0003F800E6
:1055A00001F000000000000000007F8001FFE00328
:1055B00080700600880400880400C806003C0300D0
:1055C0003E01FFE6007F8400000004000807FFF8AA
:1055D00007FFF8040808040800040C00040F000486
:1055E0000BC00610F003F03801E0080000080000CE
:1055F0000001E0F803F03006301004180804180821
:10560000040C08040C080206180207F00781E000E9
:1056100000000180000600000400000400000400F7
:105620000807FFF807FFF804000804000004000062
:1056300006000001800004000007FFE007FFF004FF
:105640000018000008000008000008000008000022
:105650000804001007FFE00400000400000600003A
:1056600007E00007FE00041FE00001F8000038001A
:1056700001E0043E0007C000060000040000040032
:105680000007E00007FFC0041FF80007C007F8008C
:1056900007FF80043FF80007C004F800070000047B
:1056A000000000000004000806001807C07805F19B
:1056B000C8003E00001F800463E80780F806001859
:1056C0000400080000000400000600000780000736
:1056D000E008047C08001FF80007F800180804E040
:1056E0000807000006000004000000000001000898
:1056F0000600380400F80403E8040F08047C0805D9
:10570000F00807C00807001804006000000000004F
:10571000000000000000000000000000003FFFFE4D
:1057200020000220000220000220000220000200CF
:10573000000000000000000008000007000000C09A
:10574000000038000006000001C000003000000E1C
:105750000000010000000000000000002000022006
:1057600000022000022000022000023FFFFE000095
:105770000000000000000000000000000000000029
:105780000000000800001000003000002000003081
:1057900000001000000800000000000000000000F1
:1057A00001000001000001000001000001000001F3
:1057B00000000100000100000100000100000100E4
:1057C0000001000000000000000000200000200098
:1057D00000100000100000000000000000000000A9
:1057E0000000000000000000000000F00019F800B8
:1057F0001B18002208002608002408002410003F7F
:10580000F8001FF800000800001800000004000065
:1058100007FFF80FFFF0001818001008002008001C
:105820002008003018001FF0000FC000000000002A
:10583000000007C0001FF0001830002008002008FA
:10584000002008003C08001C100000600000000060
:1058500000000000000007C0001FF0003818002002
:105860000800200800200804101007FFF80FFFF0C0
:105870000000100000000000000000000007C00051
:105880001FF0001230002218002208002208003207
:1058900008001E10000E2000000000000000200084
:1058A00000200800200801FFF803FFF80620080484
:1058B000200804200807200003000000000000006A
:1058C0000000000E000E6E001FF30031B10020B189
:1058D0000020B1003191001F13002E1E00200E0089
:1058E000300000000004000807FFF80FFFF8001068
:1058F00008002000002000002008003FF8001FF8EA
:105900000000080000000000000000000020080067
:105910002008002008063FF8063FF80000080000B5
:105920000800000800000000000000000000000067
:1059300000000300000300200100200100200306F6
:105940003FFE063FFC0000000000000000000000D9
:105950000004000807FFF80FFFF8000188000300AB
:10596000002FC00038F80020380020080000080090
:10597000000000000000000004000804000804000B
:105980000807FFF80FFFF8000008000008000008F3
:10599000000000000000002008003FF8003FF80071
:1059A0001008002000003FF8003FF8001008002019
:1059B00000003FF8003FF800000800000000200849
:1059C000003FF8003FF80010080010000020000021
:1059D0002008003FF8001FF8000008000000000049
:1059E000000007C0000FF000183000300800200849
:1059F000002008003008001830000FF00007C00039
:105A00000000000000002001003FFF003FFF0010E9
:105A100011002009002008002008003038001FF085
:105A2000000FC00000000000000007C0001FF000D1
:105A30003818002008002008002009001011001F5D
:105A4000FF003FFF000001000000002008002008C8
:105A5000002008003FF8003FF80008080010080088
:105A6000200800200000300000300000000000008E
:105A700000000000000C78001E1800330800230806
:105A80000021080021880021980030F000386000D3
:105A9000000000000000200000200000200000FFA7
:105AA000F003FFF800200800200800200800003064
:105AB000000000000000000000002000003FF00097
:105AC0007FF8000018000008000008002010003FC8
:105AD000F8007FF00000100000000000000020002F
