:10044F0000402060105030700848286818583878DD
:10045F0004442464145434740C4C2C6C1C5C3C7C8D
:10046F0002422262125232720A4A2A6A1A5A3A7A9D
:10047F0006462666165636760E4E2E6E1E5E3E7E4D
:10048F00014121611151317109492969195939798D
:10049F0005452565155535750D4D2D6D1D5D3D7D3D
:1004AF0003432363135333730B4B2B6B1B5B3B7B4D
:1004BF0007472767175737770F4F2F6F1F5F3F7FFD
:1004CF0000060C12181E242A30363B41464B50555D
:1004DF00595E6266696C70727577797B7C7D7E7E02
:1004EF007E7E7E7D7C7B79777572706C6966625ECD
:1004FF005955504B46413B36302A241E18120C06D4
:10050F0000FAF4EEE8E2DCD6D0CAC5BFBAB5B0AB9C
:10051F00A7A29E9A9794908E8B89878584838282D7
:10052F0082828283848587898B8E9094979A9EA2EC
:10053F00A7ABB0B5BABFC5CAD0D6DCE2E8EEF4FAC5
:10054F007F7E7E7D7C7B79777572706C6966625E6B
:10055F005955504B46413B36302A241E18120C0673
:10056F0000FAF4EEE8E2DCD6D0CAC5BFBAB5B0AB3C
:10057F00A7A29E9A9794908E8B8987858483828277
:10058F0082828283848587898B8E9094979A9EA28C
:10059F00A7ABB0B5BABFC5CAD0D6DCE2E8EEF4FA65
:1005AF0000060C12181E242A30363B41464B50557C
:1005BF00595E6266696C70727577797B7C7D7E7E21
:1005CF000000FE403040FE00FC020202FC0064927C
:1005DF0092924C000082FE8200007C828282440054
:1005EF00000000FE8282827C000082FE8200006496
:1005FF009292924C00FE9090906000FE02020202D6
:10060F00003E4888483E00C0201E20C00000000069
:10061F0000000000000000000000000000000000CB
:0B062F000000000000000000000000C0
:0A0D9A00082A0103070F1F3F7FFF27
:100D72001FEF6013E4FCFDC3ED9432EC940050F0DD
:070D82000DBD00010C80F023
:010D89002247
:100CD100E4F5A0D2B2D2B1D2B0D2C7D297D296D2D5
:100CE10095D294D2B3D2B4D2B5D2B6D2B7D282D23F
:100CF10081D280D283D284D285D286D287D2C6D203
:040D0100C5D2C42271
:100B28008DA0EF14B418004003020BE8900B427537
:100B3800F003A4C58325F0C58373020B8A020B8ECC
:100B4800020B92020B96020B9A020B9E020BA20258
:100B58000BA6020BAA020BAE020BB2020BB6020BDB
:100B6800BA020BBE020BC2020BC6020BCA020BCEA4
:100B7800020BD2020BD6020BDA020BDE020BE202E8
:100B88000BE6C2C4805AC2C58056C2C68052C2870C
:100B9800804EC286804AC2858046C2848042C28313
:100BA800803EC280803AC2818036C2828032C2B71B
:100BB800802EC2B6802AC2B58026C2B48022C2B3B3
:100BC800801EC294801AC2958016C2968012C2975F
:100BD800800EC2C7800AC2B08006C2B18002C2B20B
:080BE8007F09120D72020CD10D
:100D5500E4FE7B0C7A01AF02EA2E9005CE93FD12DC
:0C0D65000B280ABA19F0DBEC0EBE50E6B9
:010D7100225F
:100A5100E4FF74802FF582E43402F583E0FE740034
:100A61002FF582E43401F583E0C39E4003020B12AB
:100A710074002FF582E43403F583E004F074002F51
:100A8100F582E43403F583E064016003020B1E90F8
:100A91000280E07060A3E0705CA3E07058A3E07096
:100AA10054A3E07050A3E0704CA3E07048A3E07041
:100AB10044A3E07040A3E0703CA3E07038A3E07071
:100AC10034A3E07030A3E0702CA3E07028A3E070A1
:100AD10024A3E07020A3E0701CA3E07018A3E070D1
:100AE10014A3E07010A3E0700CA3E07008A3E07001
:100AF10004A3E0602874802FF582E43402F583E0DA
:100B010014FEF074002FF582E43401F583EEF080D9
:100B11000074002FF582E43403F583E4F00FEF64F1
:060B2100186003020A53F4
:010B270022AB
:10063A000536E536B41903753601D2B2D2B1D2B055
:10064A00D2C7D297D296D295D294D2B3D2B4D2B5D7
:10065A00D2B6D2B7D282D281D280D283D284D28584
:10066A00D286D287D2C6D2C5D2C4120A51E536146E
:10067A00B4180040030207D190069075F003A4C590
:10068A008325F0C583730206D80206E30206EE024A
:10069A0006F902070402070F02071A0207250207D2
:1006AA003002073B02074602075102075B02076551
:1006BA0002076F02077902078302078D0207970272
:1006CA0007A10207AB0207B50207BF0207C99001DB
:1006DA0000E0F533C2C40207D1900101E0F533C24C
:1006EA00C50207D1900102E0F533C2C60207D190D4
:1006FA000103E0F533C2870207D1900104E0F53324
:10070A00C2860207D1900105E0F533C2850207D1FE
:10071A00900106E0F533C2840207D1900107E0F5A3
:10072A0033C2830207D1900108E0F533C280020781
:10073A00D1900109E0F533C2810207D190010AE0A4
:10074A00F533C2820207D190010BE0F533C2B780BC
:10075A007690010CE0F533C2B6806C90010DE0F59D
:10076A0033C2B5806290010EE0F533C2B48058906E
:10077A00010FE0F533C2B3804E900110E0F533C2A9
:10078A00948044900111E0F533C295803A900112A9
:10079A00E0F533C2968030900113E0F533C29780BA
:1007AA0026900114E0F533C2C7801C900115E0F5CC
:1007BA0033C2B08012900116E0F533C2B1800890BE
:1007CA000117E0F533C2B2E533C394084003753329
:0A07DA0007742A2533F8E6F5A02283
:100D8A00759D01E4F5BDF5BE75BCC07F05020D7207
:100D2F0075BCC80000000000E5BC30E4FB53BCEF0D
:100D3F00AFBDEF75F004A4ADBE7C002DFDEC35F01A
:060D4F00FCE412093B2246
:0807E4008F1F8E1E8D1D8C1C61
:1007EC00E4FFFEFDFCAB1FAA1EA91DA81CC3120A28
:1007FC001A7003FEFF22E4F520F521AF1FAE1EADEB
:10080C001DAC1C781E120A2B8F258E248D238C2256
:10081C00AF1FAE1EAD1DAC1C7802120A3E8F1F8E90
:10082C001E8D1D8C1CE47F01FEFDFCAB25AA24A9AA
:10083C0023A822D3120A1A40230521E521700205B0
:10084C0020AE20FBAA06E5259BF525E5249AF52488
:10085C00E5239400F523E5229400F52290000FE5A2
:10086C002125E0F521E52033F520AF25AE24AD237D
:10087C00AC227802120A3E8F258E248D238C22AF57
:10088C001FAE1EAD1DAC1C781E120A2BE5252FF5D4
:10089C0025E5243EF524E5233DF523E5223CF52210
:1008AC00E4852129852028F527F526AF29AE28AD2A
:1008BC0027AC267801120A3EEF2401F529E43EF517
:1008CC0028E43DF527E43CF526AF1FAE1EAD1DAC6C
:1008DC001C7802120A3E8F1F8E1E8D1D8C1CAF2998
:1008EC00AE28AD27AC26AB25AA24A923A822C31277
:1008FC000A1A4020E5259529F525E5249528F524A7
:10090C00E5239527F523E5229526F5220521E521FA
:10091C0070020520E582158270021583E5824583FD
:09092C00600302086BAE20AF214C
:01093500229F
:10000E00E4F508120D2F120974E50890044F93259C
:10001E00E02480F582E43401F583EEF0A3EFF0E501
:10002E000825E02400F582E43400F583E4F0A3F023
:10003E000508E508C3948040CA750801750901E5F5
:10004E000814FFE509A807088002C333D8FCF50998
:10005E00E4F50AE50914FFE50AD39F4003020344C1
:10006E00750C01C374069508FFE50CA807088002FD
:10007E00C333D8FCF50C850AF0A4F50C850A0BE504
:10008E000BC39480400302033FE50B25E02480F56B
:10009E0082E43401F583E0F50DA3E0F50EE50B25C2
:1000AE00E02400F582E43400F583E0F50FA3E0F5DB
:1000BE0010E50B2509F925E02480F582E43401F5DD
:1000CE0083E0FCA3E0FD8C11F512E50C90054F9337
:1000DE00FF3395E0FE1209ABEF7807CEA2E713CE01
:1000EE0013D8F8FFE50B25E02480F582E43401F502
:1000FE0083E0FCA3E02FFBEC3EFAE925E02400F5BB
:10010E0082E43400F583E0FCA3E0FDE50C9004CF1F
:10011E0093FF3395E0FE1209ABEF7807CEA2E713FB
:10012E00CE13D8F82BFFEA3EFEE50B25E02480F532
:10013E0082E43401F583EEF0A3EFF0E925E02480AC
:10014E00F582E43401F583E0FCA3E0FDE50C9004B8
:10015E00CF93FF3395E0FE1209ABEF7807CEA2E7FF
:10016E0013CE13D8F8FFE50B25E02400F582E43416
:10017E0000F583E0FCA3E0C39FFBEC9EFAE925E0CB
:10018E002400F582E43400F583E0FCA3E0FDE50CE9
:10019E0090054F93FF3395E0FE1209ABEF7807CE33
:1001AE00A2E713CE13D8F82BFFEA3EFEE50B25E0AF
:1001BE002400F582E43400F583EEF0A3EFF0E92598
:1001CE00E02480F582E43401F583E0FCA3E0FDE554
:1001DE000C90054F93FF3395E0FE1209ABEF7807B5
:1001EE00CEA2E713CE13D8F8FFC3E50E9FFBE50DA5
:1001FE009EFAE925E02400F582E43400F583E0FC64
:10020E00A3E0FDE50C9004CF93FF3395E0FE1209B9
:10021E00ABEF7807CEA2E713CE13D8F8FFC3EB9F50
:10022E00FFEA9EFEE925E02480F582E43401F583A1
:10023E00EEF0A3EFF0E50C9004CF93FF3395E0FEC4
:10024E00AC11AD121209ABEF7807CEA2E713CE13A5
:10025E00D8F82510FBE50F3EFAE925E02400F582DB
:10026E00E43400F583E0FCA3E0FDE50C90054F932C
:10027E00FF3395E0FE1209ABEF7807CEA2E713CE5F
:10028E0013D8F8FFC3EB9FFFEA9EFEE925E024009A
:10029E00F582E43400F583EEF0A3EFF0E50B25E0F4
:1002AE002480F582E43401F583C083C082E0A2E7A6
:1002BE0013FFA3E013D082D083CFF0A3EFF0E50BB2
:1002CE0025E02400F582E43400F583C083C082E08B
:1002DE00A2E713FFA3E013D082D083CFF0A3EFF0F9
:1002EE00E50B2509FD25E02480F582E43401F58334
:1002FE00C083C082E0A2E713FFA3E013D082D083B5
:10030E00CFF0A3EFF0ED25E02400F582E43400F504
:10031E0083C083C082E0A2E713FFA3E013D082D094
:10032E0083CFF0A3EFF0E50925E0250BF50B0200D6
:10033E008D050A0200610508E508640760030200E6
:10034E004AE4F508E50825E02482F582E43401F557
:10035E0083E0FEA3E0FFEE3395E08F168E15F514C5
:10036E00F513FDAC13A804F9AA06AB071209BD8F4D
:10037E00168E158D148C13E50825E02402F582E403
:10038E003400F583E0FEA3E0FFEE3395E08F1A8E86
:10039E0019F518F517FDAC17A804F9AA06AB071244
:1003AE0009BD8F1A8E198D188C17E516251AFFE5C3
:1003BE00153519FEE5143518FDE5133517FC120732
:1003CE00E474002508F582E43401F583EFF00508A6
:1003DE00E508C39418500302035274002508F582F1
:1003EE00E43401F583E0701BF508E508C39418505A
:1003FE00E974002508F582E43401F583E004F00584
:10040E000880E7E4F50874002508F582E43401F568
:10041E0083E0D39407402274002508F582E434016A
:10042E00F5837407F074002508F582E43401F58332
:10043E00E0FFD3951B40028F1B0508E508B418C6D4
:01044E00228B
:100D05007596FFE4F59575B2FFF5B17592FE75918F
:100D15000175BB70120D8A758901758CF7758AFF8F
:0A0D2500D2AFD2A9120D55D28C22D4
:08000300120D0512000E80FB36
:03000B00020C7C68
:100C7C00C0E0C0F0C083C082C0D075D000C000C03E
:030C8C0006C00798
:100C8F000535E535B41821E4FF74002FF582E434FF
:100C9F0001F583E0FE74802FF582E43402F583EED4
:100CAF00F00FBF18E475350012063A758CF7758A88
:010CBF00FF35
:100CC000D007D006D000D0D0D082D083D0F0D0E0F2
:010CD00032F1
:1009360075F020800E75F010800575F0087D007E3C
:10094600007F003392D530D503120A0CEC334010E9
:10095600EF33FFEE33FEED33FDEC33FCD5F0ED2245
:0E096600E5F0247EA2D513CC92E7CDCEFF2281
:10097400EDD2E7CD33EC3392D524814006E4FFFE7B
:10098400FDFC22FCE4CFCECDCC24E0501174FF80DA
:10099400EDC3CC13CCCD13CDCE13CECF13CF047077
:0709A400F030D5DE020A0C61
:03000000020BF000
:0C0BF000787FE4F6D8FD758137020C37E1
:1009AB00EF8DF0A4A8F0CF8CF0A428CE8DF0A42E60
:0209BB00FE221A
:1009BD00E88FF0A4CC8BF0A42CFCE98EF0A42CFCD9
:1009CD008AF0EDA42CFCEA8EF0A4CDA8F08BF0A457
:1009DD002DCC3825F0FDE98FF0A42CCD35F0FCEBB6
:1009ED008EF0A4FEA9F0EB8FF0A4CFC5F02ECD397B
:0F09FD00FEE43CFCEAA42DCE35F0FDE43CFC22E8
:0E0A0C00C3E49FFFE49EFEE49DFDE49CFC22FB
:100A1A00EB9FF5F0EA9E42F0E99D42F0E89C45F032
:010A2A0022A9
:100A2B00E8600FECC313FCED13FDEE13FEEF13FFA9
:030A3B00D8F122CD
:100A3E00E8600FEFC333FFEE33FEED33FDEC33FC16
:030A4E00D8F122BA
:100BFC00020003E493A3F8E493A34003F68001F20C
:100C0C0008DFF48029E493A3F85407240CC8C333F9
:100C1C00C4540F4420C8834004F456800146F6DFC8
:100C2C00E4800B0102040810204080900D9AE47EB1
:100C3C00019360BCA3FF543F30E509541FFEE493BD
:100C4C00A360010ECF54C025E060A840B8E493A384
:100C5C00FAE493A3F8E493A3C8C582C8CAC583CAAF
:100C6C00F0A3C8C582C8CAC583CADFE9DEE780BE67
:010DA400004E
:00000001FF
