:100A8A00000000000000000000000000000000005C
:100A9A0000000000000000000000007F5050003EEF
:100AAA00223E003E1020003E2A3A003C023C003E14
:100ABA002A3A003E102000407E40003E223E003F7F
:100ACA00243C000000007E42001C101C101C005C2C
:100ADA00001C101C005C00003E2828003E2828004C
:100AEA00203E2000427E00000000001C1C1C1C1C32
:100AFA001C1C5D7F3E1C08000000081C3E7F5D1C1C
:100B0A001C1C1C1C1C00000010207FFF7F201000F2
:100B1A0000000804FEFFFE040800000000000000B8
:100B2A0000000000000000000000000000000000BB
:100B3A000000000000000000000000000000003F6C
:100B4A00800000000000003F7EC56DBDC8B4393F7B
:100B5A007B15B5BE47C84B3F74F766BE94A2343FB7
:100B6A006C84B6BEC3F1413F61C433BEF15B573FEB
:100B7A0054DD2FBF0E3BCD3F45E354BF22680A3FE9
:100B8A00350481BF3504813F22680ABF45E3543FDB
:100B9A000E3BCDBF54DD2F3EF15B57BF61C4333EE0
:100BAA00C3F141BF6C84B63E94A234BF74F7663E6B
:100BBA0047C84BBF7B15B53DC8B439BF7EC56D006C
:100BCA00000000BF800000BDC8B439BF7EC56DBE3D
:100BDA0047C84BBF7B15B5BE94A2343F74F766BEB7
:100BEA00C3F141BF6C84B6BEF15B57BF61C433BF6A
:100BFA000E3BCDBF54DD2FBF22680ABF45E354BF69
:100C0A00350481BF350481BF45E354BF22680ABF5A
:100C1A0054DD2FBF0E3BCDBF61C433BEF15B57BF5E
:100C2A006C84B6BEC3F141BF74F766BE94A234BFEA
:0F0C3A007B15B5BE47C84BBF7EC56DBDC8B4396D
:10121B00010809013B40010A06010902040B000009
:0E122B00000001170042000000004100020117
:100DBA0075F008E544A42403F582E5F03400F583D0
:100DCA00E0FCA3E0FDA3E0FEA3E0FFE4FBFAF97870
:100DDA004212021FE4FBFA7980783F1200250203CF
:100DEA006775F008A4FF90020BE0FBA3E0FAA3E00A
:100DFA0022F583120614900213E0F8A3E0F9A3E0A7
:100E0A00FAA3E0FB0201167E007F081204B8E54946
:100E1A002401FFE433FEEF780322E54475F008A4C9
:100E2A002403F582E5F03400F583227418253CF892
:100E3A00E6553EF580AF087E0012123AE4F580E5E9
:100E4A003E25E0F53E2274182544F876FF745B25AA
:100E5A0044F8E622E0FCA3E0FDA3E0FEA3E0FFA83D
:100E6A0004A905AA06FB020116900217E075F0080C
:100E7A00A42275F008E544A42407F582E5F03400BD
:100E8A00F583227B007E007F080204B87F077E007C
:100E9A0012123AE54425E0F54422F9E54775F008CF
:100EAA00A4F5822274182544F8E6F4F605440544AC
:100EBA002274182544F876FF22E53D25E0F53D0524
:100ECA003C053C222FF9EA3EA801FCAD03222FF98A
:0F0EDA00EA35F0FA22900000120545FEE5F022FD
:10123A00EF1F70011E144E6013E4FCFDC3ED94050C
:0C124A00EC940050EB0DBD00010C80F096
:011256002275
:10125700EF1F70011E144E6013E4FCFDC3ED940FE5
:0C126700EC940050EB0DBD00010C80F079
:011273002258
:1012A300900218EFF01212E0900218E0FF12128F72
:0312B3000212E044
:10128F00EF4488F5BC00000000E5BC30E4FB53BC24
:04129F00EFAFBD22CE
:0F12B60075985A758920758BFB758DFBD28E222A
:0C12D400E4F5BD75BC807F02FE021274C0
:0812E0003099FDC2998F99229B
:10127400EF1FAA0670011E4A60107C137D88ED1DC5
:0A128400AA0470011C4A60E880F41F
:01128E00223D
:10118A00E4F545754402E4F546E544C39423501852
:10119A00E5462545900A8A93FF74182544F8A60760
:1011AA0005440544054680E17F287E23121257052F
:0811BA0045E545C3949C40CBC0
:0111C200220A
:10102100120E73244DF582E4340B120DFBC004C083
:1010310005C006C007120E732449F582E4340BF58E
:101041008312061490020F120E03D003D002D001B6
:10105100D0001200218F128E118D108C0F120E7381
:101061002449F582E4340B120DFBC004C005C0060F
:10107100C007120E73244DF582E4340BF58312067A
:101081001490020F120E03D003D002D001D000122F
:0B10910000258F168E158D148C132285
:0411F000AB05AA079A
:1011F400755800755901E4F55AE55AC39B5013AE6E
:1012040058AF59EAFD7C001204DE8E588F59055AF6
:0612140080E7AE58AF595F
:01121A0022B1
:0E06B10090020BEBF0A3EAF0A3E9F0A3EDF04A
:1006BF00F546754B01AF467E01EF7801088002C306
:1006CF0013D8FCF54664016004054B80E8E4F54956
:1006DF0090020EE014FFE549D39F400302078B857C
:1006EF00494CE4F548854B47E547D394004020E556
:1006FF004714FFE54C5401FEA807088002C333D806
:10070F00FC2548F548E54CC313F54C154780D9E552
:10071F0049C395485061E548120E1AC333CE33CE04
:10072F00D8F9120DEF2FF9EA3EFA78507C007D00D0
:10073F00120E11C333CE33CED8F9120DEF2FF9EAC3
:10074F003EFAC003C002C001E548120E1AC333CEF1
:10075F0033CED8F9120DEF120ECED001D002D00346
:10076F00120E11C333CE33CED8F9120DEF120ECEB7
:10077F007A007950120E8D05490206DF754A01E5A0
:10078F004AD3954B40030208CAAD4A7F021211F0BB
:10079F008F4DE54DC313F54E754801E548D3954E82
:1007AF0040030208C585484790020EE0FFE547C3A6
:1007BF009F40030208C0E547254EF54F120DEB127F
:1007CF000ED8780F7C027D01120E8FE54824FFFFB3
:1007DF00E434FFFE90020EE0FD7C001204DEAD4D0E
:1007EF001204F0900217EFF012102178507C007D68
:1007FF00007A00790F120E8D120DF0120EA485F0F3
:10080F008312059AAB53AA52A951A8501200211274
:10081F000DF0F9E54F120EA785F0831205E4E547B9
:10082F0075F008A429F9EA35F0FA90000412059A38
:10083F00AB57AA56A955A854120021C006C007E508
:10084F004F120DEB120ED8900004D007D0061205F0
:10085F00E4120DF0120EA4E92582F9EA35F0FAC080
:10086F0003C002C00112057AAB53AA52A951A85076
:10087F00120025D001D002D0031205CAE547120D90
:10088F00EB120ED8E92404F9E43AFAC003C002C00F
:10089F000112057AAB57AA56A955A854120025D0B4
:1008AF0001D002D0031205CAE54D2547F5470207CF
:0B08BF00B705480207AA054A02078E91
:0108CA00220B
:100C4900E4F544754401120E7C12065000000000C0
:100C59000544E544B441EF7B017A0079037D4012F4
:100C690006B1754401120E7C120E5EC004C005C0A7
:100C790006C007120E24120E5ED003D002D001D096
:100C890000120025120EED120E241206440544E549
:100C990044C3944140CFE50964017032754402E5CB
:100CA90044C394224003020DB9120DBA8F45120EA6
:100CB900BBE545C39401401174182544F8C000E60A
:100CC90025E0D000F6154580E8120EAE80D1E50981
:100CD9006402706E754402E544C394224003020D18
:100CE900B9120DBA8F45120E57C395455027120EEA
:100CF900BBE545D39401401174182544F8C000E6BA
:100D090025E0D000F6154580E8120DBA745B25443C
:100D1900F8A6078026120E57D39401400116120E29
:100D290050F545E545D39401401174182544F8C0A0
:100D390000E625E0D000F6154580E80544054402A3
:100D49000CE0E509706A754402E544C394225060D9
:100D5900120DBA8F45120E57C395455027120EBB77
:100D6900E545C39401401174182544F8C000E625EF
:100D7900E0D000F6154580E8120DBA745B2544F8F9
:100D8900A6078026120E57D39401400116120E5061
:100D9900F545E545C39401401174182544F8C00090
:100DA900E625E0D000F6154580E8120EAE020D5298
:010DB9002217
:10000300E4F5D975E9EF75F9EF75DA4275EAEF753D
:05001300FAFFD2DE221D
:0512E8008FEA8FFA22DD
:1011C30075BBFFE4F5B375B480C2C7F5937594FF9F
:1011D300F5807591437592347590B7F5957596FFC3
:0D11E300F5A0F5B175B2FFF5B0759D0322C2
:10110200753D01753E01753D01753C02E53D601678
:10111200F5A0753E01E53E6005120E3580F7E4F557
:10112200A0120EC380E6753D01E53DC394805017C1
:10113200853DB0753E01E53E6005120E3580F7E44F
:07114200F5B0120EC380E2BC
:011149002283
:03001B0002109C34
:10109C00C0E0C0F0C083C082C0D075D000C000C01A
:0710AC0004C005C006C007E7
:1010B300758B00853B8D900002E06011E475F001B3
:1010C300120EDFF44E7017900002F0801174FFF5DA
:1010D300F0120EDF64CF4E700590000204F0900012
:0A10E30000A3E0FF1212E812110250
:1010ED00D007D006D005D004D000D0D0D082D08388
:0510FD00D0F0D0E0324C
:0F12C500758911D2AFE4F58DF58BD2ABD28E22A5
:10114A00754401754501754501E5456032F58075BF
:10115A004401E5446007F5A0120E9680F5E4F5A077
:10116A00754401E544C3948050088544B0120E9634
:0F117A0080F1E4F5B0F580E54525E0F54580CA44
:011189002243
:1008CB00753F027540BCE4F5431211C31212D4E517
:1008DB004015407002153F14453F600512114A80C8
:1008EB00EEE4F541745B2541F876090541E541B429
:1008FB0028F2C2947FA07E0F12123AD294120003F8
:10090B007FFB1212E81212C5E4F54174182541F869
:10091B00E4F60541E541B422F212118AE4F5417F78
:10092B000112128FEFFD7C00E4FF12128FEF2DFFEF
:10093B00E433FEEFA80A088005C333CE33CED8F9D3
:10094B00FDAC06EC12032EE541120E2612064405F1
:10095B0041E541C3944140C7120C49309617E51746
:10096B006002C294780B120624E4FB7AFFF9F8C3F9
:10097B0012056950E6D2943096190509E509B404BD
:10098B0003E4F509C294D2C77F587E1B12123AD2E8
:10099B0094C2C7E4F50EF50DF50CF50B20970CE59D
:1009AB001770047F0180027F008F17E4FFFEFD7C30
:1009BB0042900013E0F8A3E0F9A3E0FAA3E0FB12E6
:1009CB0002BC502A0540E5407002053F642C7004C0
:1009DB00E53F64016003020927F53FF540750A0600
:1009EB00C2947FE87E0312123AD294020927753F14
:1009FB00007540010543E54364AF6003020927F529
:100A0B0043C2947FBC7E0212123AD294E4FBFAF9F1
:100A1B007842900013E0FCA3E0FDA3E0FEA3E0FF0F
:100A2B0012021F1203678F427407C3954250047F53
:100A3B000180027F00D3EF648094885006750A040E
:100A4B000209277404C3954250047F0180027F0082
:100A5B00D3EF648094865006750A05020927740249
:100A6B00C3954250047F0180027F00D3EF648094D2
:0F0A7B00845006750A06020927750A0702092723
:03000000020F9557
:0C0F9500787FE4F6D8FD758182020FDC45
:10001E000203D3E86480F8E933E83360110460F03A
:10002E00ED33EC337009E8FCE9FDEAFEEBFF220448
:10003E0060DED3EB9FEA9EE99DE8C2E78CF0C2F743
:10004E0095F0400CE8CCF8E9CDF9EACEFAEBCFFB0F
:10005E0012039E85D0F05804700320D5B3E80470C7
:10006E00075002B2D50203DD92D5EC0460F7E4CC62
:10007E00C0E0C398F8603B94186008400DD0E0FBD8
:10008E000203B5E4FBFAC9FC8028E830E406E4C9B3
:10009E00FBE4CAFCE830E305E4C9CACBFCE854072C
:1000AE006010F8C3E913F9EA13FAEB13FBEC13FC37
:1000BE00D8F130F52FC3E49CFCEF9BFFEE9AFEEDDA
:1000CE0099FDD0E0FBEF4E4D4C701222DB03020384
:1000DE00DAEC2CFCEF33FFEE33FEED33FDED30E7C3
:1000EE00EB0203B5EF2BFFEE3AFEED39FDD0E0FB50
:1000FE0050130BBB00030203DDED13FDEE13FEEFF9
:08010E0013FFEC13FC0203B522
:10011600EC4D6011E8497017ED33EC3304600DE4E3
:10012600FCFFFEFD22E933E8330470F80203D31224
:10013600039E58046009E4CC248150062850090225
:1001460003DD2840030203DAC0E0EB4A7044B980BD
:1001560006D0E0FB0203C9EF4E701CBD8008EBFF22
:10016600EAFEE9FD80EBE98DF0A4FEE5F00201FF71
:10017600E9CDF9EAFEEBFFEF89F0A4FCE5F0CE89C4
:10018600F0A42EFFE435F0CD89F0A42DFEE435F081
:100196008067EF4E7005BD80D780C3EF8BF0A4ACAF
:1001A600F0EE8BF0A42CFCE435F0F8EF8AF0A42CEA
:1001B600E5F038FCE433CB8DF0A42CFCE5F03BF8FD
:1001C600EE8AF0A42CFCE5F038F8E433CF89F0A4ED
:1001D6002CFCE5F038CF3400CE89F0A42FFFE5F0F3
:1001E6003EFEE433C98DF0A42EFEE5F039CD8AF04B
:1001F600A42FFFE5F03EFEE43DFD33D0E0FB5007C3
:100206000BBB000F0203DDEC2CFCEF33FFEE33FEDD
:06021600ED33FD0203B50B
:10021C000203DDEC5D046005E8590470030203D3AE
:10022C0012039E580460F6EC4860F2EC7004FDFE7C
:10023C00FF22C860DB2481C85009C39860025006B5
:10024C000203DA9850CAF582E9294B4A7005AB8251
:10025C000203C975F0007C1A7880C3EF9BEE9AED0F
:10026C0099400DC3EF9BFFEE9AFEED99FDE842F02D
:10027C00DC23ACF0D0E0FFD0E0FED0E0FDAB822080
:10028C00E7101BEB60BAEC2CFCEF33FFEE33FEED0A
:10029C0033FD0203B5E803F830E705C0F075F00054
:1002AC00EF2FFFEE33FEED33FD40B830E7C280AAEE
:1002BC0074F8CC6480CCC86480C8F582046043C3F5
:1002CC00EB9FF5F0EA9E42F0E99D42F0E89C45F088
:1002DC0060305018E5825FFFE582F42B5582FB50AD
:1002EC00210ABA001D09B90019088016E5825BFBCA
:1002FC00E582F42F5582FF50090EBE00050DBD009E
:10030C00010CC3EB9FF5F0EA9E42F0E99D42F0E848
:0D031C009C45F06007CC4820E701B3EC22BF
:1003290075F020800E75F010800575F0087D007E4F
:10033900007F003392D530D50312055BEC334010B2
:10034900EF33FFEE33FEED33FDEC33FCD5F0ED2258
:0E035900E5F0247EA2D513CC92E7CDCEFF2294
:10036700EDD2E7CD33EC3392D524814006E4FFFE8E
:10037700FDFC22FCE4CFCECDCC24E0501174FF80ED
:10038700EDC3CC13CCCD13CDCE13CECF13CF04708A
:07039700F030D5DE02055B2A
:100EE9000203D322EDA2E7D2E7F9EC3340F260F333
:100EF900B4FF08ED547F70E80203DDF82481C2E0F5
:100F0900C0E0F40428FAC313FCED92E7FD90020B4C
:100F1900120644EEA2E7E9BA7F02C3133400940033
:100F2900FA75F091A4E5F013F494FE8AF0A433E580
:100F3900F033248CD313FDE492E7FE7F007C3F75E8
:100F49008302ECC0E0F8EDC0E0F9EEC0E0FAEFC0D2
:100F5900E0FB8583F090020B12060885F0831202EC
:100F69001FD0E0FBD0E0FAD0E0F9D0E0F81200257C
:100F7900ED6480FD30E7011CD583C7ED33CC33F830
:0C0F8900D0E0A2E71328C313CC13FD2214
:10039E00E9D2E7C933E833F892D5EDD2E7CD33ECA5
:0703AE0033FC5002B2D5221E
:1003B500EC30E7100FBF000C0EBE00080DBD0004A9
:1003C5000BEB6014A2D5EB13FCED92E7FD2274FF55
:1003D500FCFDFEFF22E480F8A2D574FF13FC7D80AE
:0303E500E480EFC2
:100FA1000208CBE493A3F8E493A34003F68001F293
:100FB10008DFF48029E493A3F85407240CC8C33351
:100FC100C4540F4420C8834004F456800146F6DF20
:100FD100E4800B010204081020408090121BE47E83
:100FE100019360BCA3FF543F30E509541FFEE49315
:100FF100A360010ECF54C025E060A840B8E493A3DC
:10100100FAE493A3F8E493A3C8C582C8CAC583CA06
:10101100F0A3C8C582C8CAC583CADFE9DEE780BEBE
:0112390000B4
:1003E800E709F608DFFA8046E709F208DFFA803EF7
:1003F80088828C83E709F0A3DFFA8032E309F608E4
:10040800DFFA8078E309F208DFFA807088828C834B
:10041800E309F0A3DFFA806489828A83E0A3F608FF
:10042800DFFA805889828A83E0A3F208DFFA804CD9
:1004380080D280FA80C680D4806980F280338010B0
:1004480080A680EA809A80A880DA80E280CA803319
:1004580089828A83ECFAE493A3C8C582C8CCC58391
:10046800CCF0A3C8C582C8CCC583CCDFE9DEE78061
:100478000D89828A83E493A3F608DFF9ECFAA9F0E0
:10048800EDFB2289828A83ECFAE0A3C8C582C8CC36
:10049800C583CCF0A3C8C582C8CCC583CCDFEADE4F
:1004A800E880DB89828A83E493A3F208DFF980CCB1
:1004B80088F0EF60010E4E60C388F0ED2402B404AA
:1004C8000050B9F582EB2402B4040050AF23234551
:0604D8008223900438733A
:1004DE00EF8DF0A4A8F0CF8CF0A428CE8DF0A42E32
:0204EE00FE22EC
:1004F000BC000BBE0029EF8DF084FFADF022E4CCF0
:10050000F875F008EF2FFFEE33FEEC33FCEE9DECB8
:10051000984005FCEE9DFE0FD5F0E9E4CEFD22EDFE
:10052000F8F5F0EE8420D21CFEADF075F008EF2F48
:10053000FFED33FD4007985006D5F0F222C398FD39
:050540000FD5F0EA22D6
:10054500C5F0F8A3E028F0C5F0F8E5821582700241
:060555001583E038F022DE
:0E055B00C3E49FFFE49EFEE49DFDE49CFC22B1
:10056900EB9FF5F0EA9E42F0E99D42F0E89C45F0E8
:01057900225F
:10057A00BB010789828A830206085005E9F8020648
:10058A0081BBFE05E9F802068D89828A8302061478
:10059A00BB010DE58229F582E5833AF58302060857
:1005AA005007E92582F8020681BBFE07E92582F891
:1005BA0002068DE58229F582E5833AF5830206145F
:1005CA00BB010789828A830206445005E9F80206BC
:0A05DA0099BBFE05E9F80206A52210
:1005E400BB010DE58229F582E5833AF583020644D1
:1005F4005007E92582F8020699BBFE07E92582F82F
:040604000206A52223
:0C060800E0FCA3E0FDA3E0FEA3E0FF2265
:10061400E493FC740193FD740293FE740393FF222C
:100624007401FF3395E0FEFDFC080808E62FFFF691
:1006340018E63EFEF618E63DFDF618E63CFCF6220A
:0C064400ECF0A3EDF0A3EEF0A3EFF02229
:10065000A8828583F0D083D08212066712066712C3
:100660000667120667E473E493A3C583C5F0C583E8
:10067000C8C582C8F0A3C583C5F0C583C8C582C8F4
:010680002257
:0C068100E6FC08E6FD08E6FE08E6FF22A5
:0C068D00E2FC08E2FD08E2FE08E2FF22A9
:0C069900ECF608EDF608EEF608EFF6228D
:0C06A500ECF208EDF208EEF208EFF22291
:00000001FF
