:100CEE003F800000000000003F7EC56DBDC8B439D6
:100CFE003F7B15B5BE47C84B3F74F766BE94A23412
:100D0E003F6C84B6BEC3F1413F61C433BEF15B5745
:100D1E003F54DD2FBF0E3BCD3F45E354BF22680A43
:100D2E003F350481BF3504813F22680ABF45E35435
:100D3E003F0E3BCDBF54DD2F3EF15B57BF61C43339
:100D4E003EC3F141BF6C84B63E94A234BF74F766C5
:100D5E003E47C84BBF7B15B53DC8B439BF7EC56D88
:100D6E0000000000BF800000BDC8B439BF7EC56D55
:100D7E00BE47C84BBF7B15B5BE94A2343F74F76611
:100D8E00BEC3F141BF6C84B6BEF15B57BF61C433C5
:100D9E00BF0E3BCDBF54DD2FBF22680ABF45E354C3
:100DAE00BF350481BF350481BF45E354BF22680AB5
:100DBE00BF54DD2FBF0E3BCDBF61C433BEF15B57B9
:100DCE00BF6C84B6BEC3F141BF74F766BE94A23445
:100DDE00BF7B15B5BE47C84BBF7EC56DBDC8B43908
:0C11FE0001080A013645010A0101090040
:100DEE0075F008E544A42403F582E5F03400F5839C
:100DFE00E0FCA3E0FDA3E0FEA3E0FFE4FBFAF9783C
:100E0E004212021FE4FBFA7980783F12002502039A
:100E1E006775F008A4FF900210E0FBA3E0FAA3E0D0
:100E2E0022F5831205ED900218E0F8A3E0F9A3E095
:100E3E00FAA3E0FB0201167E007F081204B8E54912
:100E4E002401FFE433FEEF780322E54475F008A495
:100E5E002407F582E5F03400F58322E54475F008A9
:100E6E00A42403F582E5F03400F58322741325449F
:100E7E00F876FF745B2544F8E622E0FCA3E0FDA3C0
:100E8E00E0FEA3E0FFA804A905AA06FB0201169046
:100E9E00021CE075F008A4227B007E007F0802048D
:100EAE00B8F9E54775F008A4F5822274132544F8C5
:100EBE00E6F4F6054405442274132544F876FF2221
:100ECE002FF9EA3EA801FCAD03222FF9EA35F0FA1C
:010EDE0022F1
:1011A800EF1F70011E144E6013E4FCFDC3ED94059F
:0C11B800EC940050EB0DBD00010C80F029
:0111C4002208
:10000300EF4488F5BC00000000E5BC30E4FB53BCC2
:04001300EFAFBD226C
:0F11E000759D01E4F5BD75BC807F02FE0211C54F
:1011C500EF1FAA0670011E4A60107C137D88ED1D75
:0A11D500AA0470011C4A60E880F4CF
:0111DF0022ED
:10101700120E9D24F2F582E4340C120E2FC004C088
:1010270005C006C007120E9D24EEF582E4340CF5C8
:10103700831205ED900214120E37D003D002D001AF
:10104700D0001200218F0E8E0D8D0C8C0B120E9D71
:1010570024EEF582E4340C120E2FC004C005C0063E
:10106700C007120E9D24F2F582E4340CF5831205B5
:10107700ED900214120E37D003D002D001D0001227
:0B10870000258F128E118D108C0F229F
:04117D00AB05AA070D
:10118100755800755901E4F55AE55AC39B5013AEE1
:1011910058AF59EAFD7C001204DE8E588F59055A6A
:0611A10080E7AE58AF59D3
:0111A7002225
:0E066A00900210EBF0A3EAF0A3E9F0A3EDF08C
:10067800F546754B01AF467E01EF7801088002C34D
:1006880013D8FCF54664016004054B80E8E4F5499D
:10069800900213E014FFE549D39F40030207448505
:1006A800494CE4F548854B47E547D394004020E59D
:1006B8004714FFE54C5401FEA807088002C333D84D
:1006C800FC2548F548E54CC313F54C154780D9E59A
:1006D80049C395485061E548120E4EC333CE33CE18
:1006E800D8F9120E232FF9EA3EFA78507C007D00E3
:1006F800120E45C333CE33CED8F9120E232FF9EAA2
:100708003EFAC003C002C001E548120E4EC333CE04
:1007180033CED8F9120E23120ECED001D002D00358
:10072800120E45C333CE33CED8F9120E23120ECE95
:100738007A007950120EA60549020698754A01E515
:100748004AD3954B4003020883AD4A7F0212117DBC
:100758008F4DE54DC313F54E754801E548D3954EC9
:10076800400302087E854847900213E0FFE547C32F
:100778009F4003020879E547254EF54F120E1F12D8
:100788000ED878147C027D01120EA8E54824FFFFDC
:10079800E434FFFE900213E0FD7C001204DEAD4D50
:1007A8001204F090021CEFF012101778507C007DB4
:1007B800007A00790B120EA6120E24120EAF85F0E5
:1007C80083120573AB53AA52A951A85012002112E3
:1007D8000E24F9E54F120EB285F0831205BDE547E8
:1007E80075F008A429F9EA35F0FA900004120573A7
:1007F800AB57AA56A955A854120021C006C007E550
:100808004F120E1F120ED8900004D007D006120502
:10081800BD120E24120EAFE92582F9EA35F0FAC0AE
:1008280003C002C001120553AB53AA52A951A850E4
:10083800120025D001D002D0031205A3E547120EFD
:100848001F120ED8E92404F9E43AFAC003C002C022
:1008580001120553AB57AA56A955A854120025D022
:1008680001D002D0031205A3E54D2547F54702073D
:0B087800700548020763054A020747AD
:010883002252
:100A3F00E4F544754401120E581206090000000037
:100A4F000544E544B441EF7B017A0079037D401200
:100A5F00066A9000071206090000000090000312BA
:100A6F00060900000000754401120E58120E88C0CE
:100A7F0004C005C006C007120E69120E88D003D03D
:100A8F0002D001D000120025120EE3120E691205DA
:100A9F00FD0544E544C3944140CFE509640170323C
:100AAF00754402E544C394224003020BC3120DEEBA
:100ABF008F45120EC6E545C39401401174132544AA
:100ACF00F8C000E625E0D000F6154580E8120EB913
:100ADF0080D1E5096402706E754402E544C3942227
:100AEF004003020BC3120DEE8F45120E81C39545C5
:100AFF005027120EC6E545D39401401174132544B7
:100B0F00F8C000E625E0D000F6154580E8120DEE9E
:100B1F00745B2544F8A6078026120E81D3940140FA
:100B2F000116120E7AF545E545D394014011741361
:100B3F002544F8C000E625E0D000F6154580E8050D
:100B4F00440544020AEAE509706A754402E544C3A4
:100B5F0094225060120DEE8F45120E81C3954550B1
:100B6F0027120EC6E545C39401401174132544F8AE
:100B7F00C000E625E0D000F6154580E8120DEE74B2
:100B8F005B2544F8A6078026120E81D394014001FD
:100B9F0016120E7AF545E545C394014011741325DD
:100BAF0044F8C000E625E0D000F6154580E8120EA7
:040BBF00B9020B5C10
:010BC300220F
:0A120B00EF1F70011E144E70F72251
:0D08840090020CEDF0A3EBF090020BEFF0F2
:10089100E4F53A753BFF753CFF753DFFEF1460458C
:1008A10014603C24FE603224FC602824F8601E247D
:1008B100F0601424E0600A24C0702EC291C2B0809E
:1008C10028C292C2B18022C296C2B5801CC285C222
:1008D100A58016C297C2B68010C283C2A7800AC281
:1008E10082C2C48004C294C2B390020CE014603787
:1008F10014603024FE602824FC602024F860182451
:10090100F0601024E0600824C0701ED2C7801AD2A3
:10091100938016D2878012D295800ED280800AD21F
:10092100868006D2818002D28490020DE014603765
:1009310014603024FE602824FC602024F860182410
:10094100F0601024E0600824C0701ED2B7801AD273
:10095100B28016D2A38012D2B4800ED2C6800AD23F
:10096100A48006D2C58002D2A690020EE0FEA3E0CA
:10097100FF12120B90020BE014604514603C24FE40
:10098100603224FC602824F8601E24F0601424E006
:10099100600A24C0702ED291D2B08028D292D2B1F6
:1009A1008022D296D2B5801CD285D2A58016D2974C
:1009B100D2B68010D283D2A7800AD282D2C4800458
:1009C100D294D2B390020CE014603714603024FE4C
:1009D100602824FC602024F8601824F0601024E0D2
:1009E100600824C0701EC2C7801AC2938016C287D5
:1009F1008012C295800EC280800AC2868006C281A2
:100A01008002C28490020DE014603014602A24FE3A
:100A1100602324FC601C24F8601524F0600E24E09F
:100A2100600724C07017C2B722C2B222C2A322C279
:0D0A3100B422C2C622C2A422C2C522C2A69F
:010A3E002295
:10110000753801753901753901753702E539603B6C
:10111000753801E538602874132537F8E65538FD31
:1011200074232537F8E65538FB90020EE4F0A374DB
:10113000C8F0AF39120884E53825E0F53880D4E5E9
:0B1140003925E0F5390537053780C17F
:01114B002281
:1010920075BBFFE4F5937594FF7591017592FEF5AA
:1010A200B375B4FFF5957596F9F5B175B2FF758014
:1010B200FF7590FE75C0FF75A0FC75B0FFC284C2BB
:1010C200A6C281C2C5C286C2A4C280C2C6C295C21D
:1010D200B4C287C2A3C293C2B2C2C7C2B7D294D2A9
:1010E200B3D282D2C4D283D2A7D297D2B6D285D279
:0E10F200A5D296D2B5D292D2B1D291D2B0226E
:03001B0002114C83
:10114C00C0E0C083C082C0D075D000C000C003C056
:10115C0005C006C007758B0085368D121100D007AF
:10116C00D006D005D003D000D0D0D082D083D0E030
:01117C003240
:0F11EF00758911D2AFE4F58DF58BD2ABD28E227C
:100BC400753E02753FBCE4F542F5431210921211D2
:100BD400E0E4F540745B2540F876090540E540B44F
:100BE40028F2C2A01211EFE4F540E4FF1200037EE4
:100BF40000EFA80A088005C333CE33CED8F9FDAC84
:100C040006EC12032EE540120E6B1205FDE54012B0
:100C14000E5A120609000000000540E540C3944145
:100C240040C8120A3FE54270047F0180027F008FB2
:100C340042E4FFFEFD7C42900013E0F8A3E0F9A338
:100C4400E0FAA3E0FB1202BC5006754201020CE577
:100C5400753E00753F010543E54364AF6003020C34
:100C6400E5F5437596FBD2A17FD07E071211A8C289
:100C7400A17596F9E4FBFAF97842900013E0FCA31D
:100C8400E0FDA3E0FEA3E0FF12021F1203678F4101
:100C94007407C3954150047F0180027F00D3EF6441
:100CA4008094885005750A0280377404C3954150B6
:100CB400047F0180027F00D3EF6480948650057521
:100CC4000A03801D7402C3954150047F0180027F92
:100CD40000D3EF648094845005750A048003750A78
:0A0CE40005E54224FF92A1020BEB8C
:03000000020F8B61
:0C0F8B00787FE4F6D8FD758182020FD259
:10001E000203D3E86480F8E933E83360110460F03A
:10002E00ED33EC337009E8FCE9FDEAFEEBFF220448
:10003E0060DED3EB9FEA9EE99DE8C2E78CF0C2F743
:10004E0095F0400CE8CCF8E9CDF9EACEFAEBCFFB0F
:10005E0012039E85D0F05804700320D5B3E80470C7
:10006E00075002B2D50203DD92D5EC0460F7E4CC62
:10007E00C0E0C398F8603B94186008400DD0E0FBD8
:10008E000203B5E4FBFAC9FC8028E830E406E4C9B3
:10009E00FBE4CAFCE830E305E4C9CACBFCE854072C
:1000AE006010F8C3E913F9EA13FAEB13FBEC13FC37
:1000BE00D8F130F52FC3E49CFCEF9BFFEE9AFEEDDA
:1000CE0099FDD0E0FBEF4E4D4C701222DB03020384
:1000DE00DAEC2CFCEF33FFEE33FEED33FDED30E7C3
:1000EE00EB0203B5EF2BFFEE3AFEED39FDD0E0FB50
:1000FE0050130BBB00030203DDED13FDEE13FEEFF9
:08010E0013FFEC13FC0203B522
:10011600EC4D6011E8497017ED33EC3304600DE4E3
:10012600FCFFFEFD22E933E8330470F80203D31224
:10013600039E58046009E4CC248150062850090225
:1001460003DD2840030203DAC0E0EB4A7044B980BD
:1001560006D0E0FB0203C9EF4E701CBD8008EBFF22
:10016600EAFEE9FD80EBE98DF0A4FEE5F00201FF71
:10017600E9CDF9EAFEEBFFEF89F0A4FCE5F0CE89C4
:10018600F0A42EFFE435F0CD89F0A42DFEE435F081
:100196008067EF4E7005BD80D780C3EF8BF0A4ACAF
:1001A600F0EE8BF0A42CFCE435F0F8EF8AF0A42CEA
:1001B600E5F038FCE433CB8DF0A42CFCE5F03BF8FD
:1001C600EE8AF0A42CFCE5F038F8E433CF89F0A4ED
:1001D6002CFCE5F038CF3400CE89F0A42FFFE5F0F3
:1001E6003EFEE433C98DF0A42EFEE5F039CD8AF04B
:1001F600A42FFFE5F03EFEE43DFD33D0E0FB5007C3
:100206000BBB000F0203DDEC2CFCEF33FFEE33FEDD
:06021600ED33FD0203B50B
:10021C000203DDEC5D046005E8590470030203D3AE
:10022C0012039E580460F6EC4860F2EC7004FDFE7C
:10023C00FF22C860DB2481C85009C39860025006B5
:10024C000203DA9850CAF582E9294B4A7005AB8251
:10025C000203C975F0007C1A7880C3EF9BEE9AED0F
:10026C0099400DC3EF9BFFEE9AFEED99FDE842F02D
:10027C00DC23ACF0D0E0FFD0E0FED0E0FDAB822080
:10028C00E7101BEB60BAEC2CFCEF33FFEE33FEED0A
:10029C0033FD0203B5E803F830E705C0F075F00054
:1002AC00EF2FFFEE33FEED33FD40B830E7C280AAEE
:1002BC0074F8CC6480CCC86480C8F582046043C3F5
:1002CC00EB9FF5F0EA9E42F0E99D42F0E89C45F088
:1002DC0060305018E5825FFFE582F42B5582FB50AD
:1002EC00210ABA001D09B90019088016E5825BFBCA
:1002FC00E582F42F5582FF50090EBE00050DBD009E
:10030C00010CC3EB9FF5F0EA9E42F0E99D42F0E848
:0D031C009C45F06007CC4820E701B3EC22BF
:1003290075F020800E75F010800575F0087D007E4F
:10033900007F003392D530D503120545EC334010C8
:10034900EF33FFEE33FEED33FDEC33FCD5F0ED2258
:0E035900E5F0247EA2D513CC92E7CDCEFF2294
:10036700EDD2E7CD33EC3392D524814006E4FFFE8E
:10037700FDFC22FCE4CFCECDCC24E0501174FF80ED
:10038700EDC3CC13CCCD13CDCE13CECF13CF04708A
:07039700F030D5DE02054540
:100EDF000203D322EDA2E7D2E7F9EC3340F260F33D
:100EEF00B4FF08ED547F70E80203DDF82481C2E0FF
:100EFF00C0E0F40428FAC313FCED92E7FD90021052
:100F0F001205FDEEA2E7E9BA7F02C3133400940085
:100F1F00FA75F091A4E5F013F494FE8AF0A433E58A
:100F2F00F033248CD313FDE492E7FE7F007C3F75F2
:100F3F008302ECC0E0F8EDC0E0F9EEC0E0FAEFC0DC
:100F4F00E0FB8583F09002101205E185F083120219
:100F5F001FD0E0FBD0E0FAD0E0F9D0E0F812002586
:100F6F00ED6480FD30E7011CD583C7ED33CC33F83A
:0C0F7F00D0E0A2E71328C313CC13FD221E
:10039E00E9D2E7C933E833F892D5EDD2E7CD33ECA5
:0703AE0033FC5002B2D5221E
:1003B500EC30E7100FBF000C0EBE00080DBD0004A9
:1003C5000BEB6014A2D5EB13FCED92E7FD2274FF55
:1003D500FCFDFEFF22E480F8A2D574FF13FC7D80AE
:0303E500E480EFC2
:100F9700020BC4E493A3F8E493A34003F68001F2A1
:100FA70008DFF48029E493A3F85407240CC8C3335B
:100FB700C4540F4420C8834004F456800146F6DF2A
:100FC700E4800B01020408102040809011FEE47EAB
:100FD700019360BCA3FF543F30E509541FFEE4931F
:100FE700A360010ECF54C025E060A840B8E493A3E6
:100FF700FAE493A3F8E493A3C8C582C8CAC583CA11
:10100700F0A3C8C582C8CAC583CADFE9DEE780BEC8
:01120A0000E3
:1003E800E709F608DFFA8046E709F208DFFA803EF7
:1003F80088828C83E709F0A3DFFA8032E309F608E4
:10040800DFFA8078E309F208DFFA807088828C834B
:10041800E309F0A3DFFA806489828A83E0A3F608FF
:10042800DFFA805889828A83E0A3F208DFFA804CD9
:1004380080D280FA80C680D4806980F280338010B0
:1004480080A680EA809A80A880DA80E280CA803319
:1004580089828A83ECFAE493A3C8C582C8CCC58391
:10046800CCF0A3C8C582C8CCC583CCDFE9DEE78061
:100478000D89828A83E493A3F608DFF9ECFAA9F0E0
:10048800EDFB2289828A83ECFAE0A3C8C582C8CC36
:10049800C583CCF0A3C8C582C8CCC583CCDFEADE4F
:1004A800E880DB89828A83E493A3F208DFF980CCB1
:1004B80088F0EF60010E4E60C388F0ED2402B404AA
:1004C8000050B9F582EB2402B4040050AF23234551
:0604D8008223900438733A
:1004DE00EF8DF0A4A8F0CF8CF0A428CE8DF0A42E32
:0204EE00FE22EC
:1004F000BC000BBE0029EF8DF084FFADF022E4CCF0
:10050000F875F008EF2FFFEE33FEEC33FCEE9DECB8
:10051000984005FCEE9DFE0FD5F0E9E4CEFD22EDFE
:10052000F8F5F0EE8420D21CFEADF075F008EF2F48
:10053000FFED33FD4007985006D5F0F222C398FD39
:050540000FD5F0EA22D6
:0E054500C3E49FFFE49EFEE49DFDE49CFC22C7
:10055300BB010789828A830205E15005E9F8020697
:100563003ABBFE05E9F802064689828A830205ED55
:10057300BB010DE58229F582E5833AF5830205E1A6
:100583005007E92582F802063ABBFE07E92582F8FF
:10059300020646E58229F582E5833AF5830205EDF5
:1005A300BB010789828A830205FD5005E9F802062B
:0A05B30052BBFE05E9F802065E22C5
:1005BD00BB010DE58229F582E5833AF5830205FD40
:1005CD005007E92582F8020652BBFE07E92582F89D
:0405DD0002065E2292
:0C05E100E0FCA3E0FDA3E0FEA3E0FF228D
:1005ED00E493FC740193FD740293FE740393FF2254
:0C05FD00ECF0A3EDF0A3EEF0A3EFF02271
:10060900A8828583F0D083D0821206201206201298
:100619000620120620E473E493A3C583C5F0C583BD
:10062900C8C582C8F0A3C583C5F0C583C8C582C83B
:01063900229E
:0C063A00E6FC08E6FD08E6FE08E6FF22EC
:0C064600E2FC08E2FD08E2FE08E2FF22F0
:0C065200ECF608EDF608EEF608EFF622D4
:0C065E00ECF208EDF208EEF208EFF222D8
:00000001FF
