:030000000209E50D
:0C09E500787FE4F6D8FD7581200208D46C
:10096C002052656420436F6E74726F6C20002020DF
:0F097C0049522D434F44453A202D2D482020004D
:1009D300AD071FED600BE4FEEEC3940D50F20E80E5
:0109E300F71C
:0109E40022F0
:10098B00EF1FAA0670011E4A600FE4FDEDC394FA37
:09099B0050EE000000000D80F395
:0109A4002230
:1009BF00C2A6D2A5D2A700000000E580339201C2E3
:0309CF00A7A201DB
:0109D2002202
:090947007F057E0012098B7F3848
:100950001209BF40FBC2A6C2A5C2A700008F80003B
:0C096000000000D2A700000000C2A72287
:1009A5001209BF40FBD2A6C2A5C2A78F80000000D6
:0A09B50000D2A700000000C2A72234
:100912007F0F1209491209471209477F057E00120B
:10092200098B7F0C1209507F057E0012098B7F060E
:100932001209501F7E0012098B7F011209507F0598
:050942007E0002098B9C
:0709F100EF4480FF020950F2
:1008D400D2B27F0A7E0012098B120912E4FF1209B8
:1008E400F1E4FEEE90096C93FF60061209A50E80F8
:1008F400F27F401209F1E4FEEE90097A93FF60065C
:0E0904001209A50E80F275A88175880180FE8B
:03000300020800F0
:07080000C0E0C0D075D0007C
:10080700751000C2A87F0F1209D330B205D2A80213
:1008170008CF20B2077F011209D380F6E4FC750FD9
:100827000030B2077F011209D380F620B2077F019B
:100837001209D380F630B2127F011209D30510E5F1
:1008470010C3941E40EFD2A8807E74082CF8C00015
:10085700E6FFC313D000F6E510C3940840087408F8
:100867002CF8E64480F6751000050FE50FC39408D1
:1008770040AF0CEC640470A6E50BF4650A6004D283
:10088700A88045E50A540FF50DE50AC4540FF50E87
:10089700E50DD394094004743780027430250DF5B3
:1008A7000DE50ED394094004743780027430250E89
:1008B700F50E7F4B1209F1AF0E1209A57F4C1209F5
:0808C700F1AF0D1209A5D2A842
:0508CF00D0D0D0E032A2
:00000001FF
