:03000000020800F3
:0C080000787FE4F6D8FD758142020847BD
:1009110011212020202077656C636F6D65202020D8
:100921002020001132202020346C696E65204D6F2B
:0609310064652020200097
:07097E00E4FD1208C47F0A2A
:10098500E4FDFCC3ED9FEC9E500900000DBD000188
:030995000C80F0E3
:01099800223C
:1009B200C280D281D282E580C4131313540124FF72
:0609C2009200C282A200B7
:0109C800220C
:0808BC0014F9120999FF7D01F6
:1008C400ED7004C2808002D280C281C282EFC4541F
:1008D4000FF580D28200C282C282EFC454F0F58048
:0608E400D28200C2822254
:10088C00E4FD7F281208C47F147E00120985E4FD64
:10089C007F281208C47F141209857F0C12097E7FF1
:1008AC000612097EE4FD7F011208C47F0A02098545
:1009C900BD0104EF247FFFBD0204EF24BFFFE4FD56
:0309D9000208C44D
:0E09DC00E4FD7F011208C47FDC7E0502098560
:10095C008B0E8A0F89101209C9AB0EAA0FA910129F
:10096C000999600D0510E5107002050F1208BC8086
:02097C00E8226F
:060938008B0A8A0B890CFA
:10093E001209C9E4FEEEC3950D5012AB0A050CE583
:0D094E000CAA0B7002050B1208BC0E80E80D
:01095B002279
:1008EA0012088C1209DC75C7027B007A0079217D17
:1008FA00017F0112095C7B007A0079327D027F0157
:07090A0012095CB29080E2CB
:10080C000208EAE493A3F8E493A34003F68001F210
:10081C0008DFF48029E493A3F85407240CC8C333ED
:10082C00C4540F4420C8834004F456800146F6DFBC
:10083C00E4800B0102040810204080900911E47E32
:10084C00019360BCA3FF543F30E509541FFEE493B1
:10085C00A360010ECF54C025E060A840B8E493A378
:10086C00FAE493A3F8E493A3C8C582C8CAC583CAA3
:10087C00F0A3C8C582C8CAC583CADFE9DEE780BE5B
:0109370000BF
:10099900BB010689828A83E0225002E722BBFE025C
:0909A900E32289828A83E493228F
:00000001FF
