:100A3B00000103070F1F3F7FFFFEFDFBF7EFDFBF3B
:100A4B007F01020408102040803F8000000000005E
:100A5B00003F7EC56DBDC8B4393F7B15B5BE47C8D9
:100A6B004B3F74F766BE94A2343F6C84B6BEC3F1A1
:100A7B00413F61C433BEF15B573F54DD2FBF0E3B8B
:100A8B00CD3F45E354BF22680A3F350481BF35048F
:100A9B00813F22680ABF45E3543F0E3BCDBF54DD77
:100AAB002F3EF15B57BF61C4333EC3F141BF6C8432
:100ABB00B63E94A234BF74F7663E47C84BBF7B1556
:100ACB00B53DC8B439BF7EC56D00000000BF8000C6
:100ADB0000BDC8B439BF7EC56DBE47C84BBF7B15C3
:100AEB00B5BE94A2343F74F766BEC3F141BF6C84AC
:100AFB00B6BEF15B57BF61C433BF0E3BCDBF54DDF8
:100B0B002FBF22680ABF45E354BF350481BF3504AC
:100B1B0081BF45E354BF22680ABF54DD2FBF0E3B94
:100B2B00CDBF61C433BEF15B57BF6C84B6BEC3F19E
:100B3B0041BF74F766BE94A234BF7B15B5BE47C8E0
:090B4B004BBF7EC56DBDC8B43975
:100D6300120E59120E68120003120DE920B003751A
:100D7300C760E4F5127F07120E457E00C006C00768
:100D83007F06120E45EFFDD0E02DFFD0E03400FECC
:100D9300EF25E0FDEE33FC12022175F008E512A405
:100DA3002450F582E5F03400F5831205900512E531
:0B0DB30012C3944140BF1208D180B170
:0F0E59007591C0E4F592F5B175B2FF759DC02299
:100CCB00E4F5937594FF7595FF7596FFF510E51098
:100CDB00900A4493F5A0E4F51174462510F8E690BC
:100CEB000A3B93FFE511900A4C93FEEF5EF58012E1
:100CFB000E80E4F5800511E511C3940840DB051067
:100D0B00E510C3940840C7E4F580F5A07593FF7513
:100D1B0094FFF5957596FFF510E510900A4493F541
:100D2B0080E4F511744E2510F8E6900A3B93FFE52D
:100D3B0011900A4C93FEEF5EF5A0120E80E4F5A025
:100D4B000511E511C3940840DB0510E510C39408A9
:070D5B0040C7E4F5A0F5809C
:010D6200226E
:03001B00020E0FC3
:100E0F00C0E0C0F0C083C082C0D075D008120CCB38
:0B0E1F00D0D0D082D083D0F0D0E032E1
:10000300D2AFD2AB538EBFE4F589F58B758D10C299
:040013008FD28E22D8
:0C0E6800E4F5BD75BC807F02FE020E2A7E
:100E4500EF4488F5BC00000000E5BC30E4FB53BC72
:040E5500EFAFBD221C
:100E2A00EF1FAA0670011E4A60107C137D88ED1D13
:0A0E3A00AA0470011C4A60E880F46D
:010E4400228B
:100DE900E4FF74362FF8E4F674582FF582E43402E0
:100DF900F583E4F074402FF582E43400F583E4F0E0
:050E09000FEFB410DD45
:010E0E0022C1
:100B5400900274E075F008A42458F582E4340AF590
:100B640083120580900270E0F8A3E0F9A3E0FAA3F1
:100B7400E0FB120116C004C005C006C00790027451
:100B8400E075F008A42454F582E4340AF5831205D0
:100B94008090026CE0F8A3E0F9A3E0FAA3E0FB1272
:100BA4000116D003D002D001D0001200218F318E63
:100BB400308D2F8C2E900274E075F008A42454F527
:100BC40082E4340AF583120580900270E0F8A3E011
:100BD400F9A3E0FAA3E0FB120116C004C005C006A5
:100BE400C007900274E075F008A42458F582E43438
:100BF4000AF58312058090026CE0F8A3E0F9A3E003
:100C0400FAA3E0FB120116D003D002D001D00012E7
:0B0C140000258F358E348D338C32228A
:040DBE00AB05AA07D0
:100DC200752B00752C01E4F52DE52DC39B5013AE58
:100DD2002BAF2CEAFD7C001204718E2B8F2C052D7B
:060DE20080E7AE2BAF2CF0
:010DE80022E8
:0E05FD00900268EBF0A3EAF0A3E9F0A3EDF0A2
:10060B00F519751E01AF197E01EF7801088002C341
:10061B0013D8FCF51964016004051E80E8E4F51C91
:10062B0090026BE014FFE51CD39F40030207368555
:10063B001C1FE4F51B851E1AE51AD394004020E518
:10064B001A14FFE51F5401FEA807088002C333D814
:10065B00FC251BF51BE51FC313F51F151A80D9E5E8
:10066B001CC3951B4003020731E51B2401FFE43338
:10067B00FEEF7803C333CE33CED8F9FF900268E098
:10068B00FBA3E0FAA3E02FF9EA3EFA78237C007D86
:10069B00007E007F0812044BE51C2401FFE433FEAF
:1006AB00EF7803C333CE33CED8F9FF900268E0FB6B
:1006BB00A3E0FAA3E02FF9EA3EFAC003C002C0019F
:1006CB00E51B2401FFE433FEEF7803C333CE33CEB7
:1006DB00D8F9FF900268E0FBA3E0FAA3E02FF9EA58
:1006EB003EA801FCAD03D001D002D0037E007F08F1
:1006FB0012044BE51C2401FFE433FEEF7803C333F4
:10070B00CE33CED8F9FF900268E0FBA3E0FAA3E06A
:10071B002FF9EA3EA801FCAD037B007A0079237E1A
:10072B00007F0812044B051C02062B751D01E51DED
:10073B00D3951E40030208D0AD1D7F02120DBE8F54
:10074B0020E520C313F521751B01E51BD395214033
:10075B00030208CB851B1A90026BE0FFE51AC39FBF
:10076B0040030208C6E51A2521F52275F008A4FFFF
:10077B00900268E0FBA3E0FAA3E02FF9EA35F0FA68
:10078B00786C7C027D017E007F0812044BE51B24F4
:10079B00FFFFE434FFFE90026BE0FD7C001204715E
:1007AB00AD20120483900274EFF0120B5478237C6B
:1007BB00007D007B007A00792E7E007F0812044BAF
:1007CB00900268E0FBA3E0FAA3E0F975F008E51AE4
:1007DB00A4F58285F083120506AB26AA25A924A8C9
:1007EB0023120021900268E0FBA3E0FAA3E0F97565
:1007FB00F008E522A4F58285F083120550E51A7501
:10080B00F008A429F9EA35F0FA900004120506ABBA
:10081B002AAA29A928A827120021C006C007E52269
:10082B0075F008A4FF900268E0FBA3E0FAA3E02FA9
:10083B00F9EA35F0FA900004D007D0061205509073
:10084B000268E0FBA3E0FAA3E0F975F008E51AA44F
:10085B00F582E92582F9EA35F0FAC003C002C0013E
:10086B001204E6AB26AA25A924A823120025D00141
:10087B00D002D003120536E51A75F008A4FF9002DA
:10088B0068E0FBA3E0FAA3E02FF9EA35F0FAE924DC
:10089B0004F9E43AFAC003C002C0011204E6AB2A21
:1008AB00AA29A928A827120025D001D002D003120B
:1008BB000536E520251AF51A020762051B020755B6
:0508CB00051D020739C4
:0108D0002205
:1008D100E4F513F51375F008E513A42454F582E546
:1008E100F03400F58312059C000000000513E513A8
:1008F100B441E27B017A0079507D401205FD751308
:1009010002E4F515E513C39422507C75F008E51354
:10091100A42454F582E5F03400F583E0FCA3E0FD66
:10092100A3E0FEA3E0FFA804A905AA06FB12011695
:10093100C004C005C006C00775F008E513A4245023
:10094100F582E5F03400F583E0FCA3E0FDA3E0FED1
:10095100A3E0FFA804A905AA06FB120116D003D043
:1009610002D001D000120025120C23AB150515EBA6
:1009710025E025E02400F582E43400F5831205909A
:1009810005130513020905E4F51575130FE515C3E4
:1009910094104003020A3AE51525E025E02400F50C
:1009A10082E43400F583E0FCA3E0FDA3E0FEA3E0D4
:1009B100FF12025AEFC4540FF514D394015003E40B
:1009C100F514E514D39516401AE5149516F517D3C9
:1009D1009403400FE51724FDF518C3E5149518F5A8
:1009E10014F516E514C395165018C3E5169514F5BC
:1009F10017D39403400CE51724FDF5182514F514BD
:100A0100F51674362515F8E6FFD395145004A6148F
:100A1100800FEFD3940040011674362515F8E6F5E2
:100A210014E514D39408400375140874462515F889
:090A3100A6140515151302098E27
:010A3A002299
:0A0E800000007F047E36DEFEDFFC7A
:010E8A002245
:10001E000202C6E86480F8E933E83360110460F048
:10002E00ED33EC337009E8FCE9FDEAFEEBFF220448
:10003E0060DED3EB9FEA9EE99DE8C2E78CF0C2F743
:10004E0095F0400CE8CCF8E9CDF9EACEFAEBCFFB0F
:10005E0012029185D0F05804700320D5B3E80470D5
:10006E00075002B2D50202D092D5EC0460F7E4CC70
:10007E00C0E0C398F8603B94186008400DD0E0FBD8
:10008E000202A8E4FBFAC9FC8028E830E406E4C9C1
:10009E00FBE4CAFCE830E305E4C9CACBFCE854072C
:1000AE006010F8C3E913F9EA13FAEB13FBEC13FC37
:1000BE00D8F130F52FC3E49CFCEF9BFFEE9AFEEDDA
:1000CE0099FDD0E0FBEF4E4D4C701222DB03020285
:1000DE00CDEC2CFCEF33FFEE33FEED33FDED30E7D0
:1000EE00EB0202A8EF2BFFEE3AFEED39FDD0E0FB5E
:1000FE0050130BBB00030202D0ED13FDEE13FEEF07
:08010E0013FFEC13FC0202A830
:10011600EC4D6011E8497017ED33EC3304600DE4E3
:10012600FCFFFEFD22E933E8330470F80202C61232
:10013600029158046009E4CC248150062850090233
:1001460002D02840030202CDC0E0EB4A7044B980D9
:1001560006D0E0FB0202BCEF4E701CBD8008EBFF30
:10016600EAFEE9FD80EBE98DF0A4FEE5F00201FF71
:10017600E9CDF9EAFEEBFFEF89F0A4FCE5F0CE89C4
:10018600F0A42EFFE435F0CD89F0A42DFEE435F081
:100196008067EF4E7005BD80D780C3EF8BF0A4ACAF
:1001A600F0EE8BF0A42CFCE435F0F8EF8AF0A42CEA
:1001B600E5F038FCE433CB8DF0A42CFCE5F03BF8FD
:1001C600EE8AF0A42CFCE5F038F8E433CF89F0A4ED
:1001D6002CFCE5F038CF3400CE89F0A42FFFE5F0F3
:1001E6003EFEE433C98DF0A42EFEE5F039CD8AF04B
:1001F600A42FFFE5F03EFEE43DFD33D0E0FB5007C3
:100206000BBB000F0202D0EC2CFCEF33FFEE33FEEB
:06021600ED33FD0202A819
:10021C0075F020800E75F010800575F0087D007E5D
:10022C00007F003392D530D5031204D8EC33401044
:10023C00EF33FFEE33FEED33FDEC33FCD5F0ED2266
:0E024C00E5F0247EA2D513CC92E7CDCEFF22A2
:10025A00EDD2E7CD33EC3392D524814006E4FFFE9C
:10026A00FDFC22FCE4CFCECDCC24E0501174FF80FB
:10027A00EDC3CC13CCCD13CDCE13CECF13CF047098
:07028A00F030D5DE0204D8BC
:100C1F000202C622EDA2E7D2E7F9EC3340F260F30D
:100C2F00B4FF08ED547F70E80202D0F82481C2E0CF
:100C3F00C0E0F40428FAC313FCED92E7FD900268BC
:100C4F00120590EEA2E7E9BA7F02C31334009400B5
:100C5F00FA75F091A4E5F013F494FE8AF0A433E54D
:100C6F00F033248CD313FDE492E7FE7F007C3F75B5
:100C7F008302ECC0E0F8EDC0E0F9EEC0E0FAEFC09F
:100C8F00E0FB8583F090026812057485F0831202F1
:100C9F00DED0E0FBD0E0FAD0E0F9D0E0F81200258A
:100CAF00ED6480FD30E7011CD583C7ED33CC33F8FD
:0C0CBF00D0E0A2E71328C313CC13FD22E1
:10029100E9D2E7C933E833F892D5EDD2E7CD33ECB3
:0702A10033FC5002B2D5222C
:1002A800EC30E7100FBF000C0EBE00080DBD0004B7
:1002B8000BEB6014A2D5EB13FCED92E7FD2274FF63
:1002C800FCFDFEFF22E480F8A2D574FF13FC7D80BC
:0302D800E480EFD0
:1002DB000202D0EC5D046005E8590470030202C60B
:1002EB00120291580460F6EC4860F2EC7004FDFECB
:1002FB00FF22C860DB2481C85009C39860025006F6
:10030B000202CD9850CAF582E9294B4A7005AB829F
:10031B000202BC75F0007C1A7880C3EF9BEE9AED5D
:10032B0099400DC3EF9BFFEE9AFEED99FDE842F06D
:10033B00DC23ACF0D0E0FFD0E0FED0E0FDAB8220C0
:10034B00E7101BEB60BAEC2CFCEF33FFEE33FEED4A
:10035B0033FD0202A8E803F830E705C0F075F000A2
:10036B00EF2FFFEE33FEED33FD40B830E7C280AA2E
:03000000020E7479
:0C0E7400787FE4F6D8FD758155020D630F
:10037B00E709F608DFFA8046E709F208DFFA803E64
:10038B0088828C83E709F0A3DFFA8032E309F60851
:10039B00DFFA8078E309F208DFFA807088828C83B9
:1003AB00E309F0A3DFFA806489828A83E0A3F6086D
:1003BB00DFFA805889828A83E0A3F208DFFA804C47
:1003CB0080D280FA80C680D4806980F2803380101E
:1003DB0080A680EA809A80A880DA80E280CA803387
:1003EB0089828A83ECFAE493A3C8C582C8CCC583FF
:1003FB00CCF0A3C8C582C8CCC583CCDFE9DEE780CF
:10040B000D89828A83E493A3F608DFF9ECFAA9F04D
:10041B00EDFB2289828A83ECFAE0A3C8C582C8CCA3
:10042B00C583CCF0A3C8C582C8CCC583CCDFEADEBC
:10043B00E880DB89828A83E493A3F208DFF980CC1E
:10044B0088F0EF60010E4E60C388F0ED2402B40417
:10045B000050B9F582EB2402B4040050AF232345BE
:06046B0082239003CB7315
:10047100EF8DF0A4A8F0CF8CF0A428CE8DF0A42E9F
:02048100FE2259
:10048300BC000BBE0029EF8DF084FFADF022E4CC5D
:10049300F875F008EF2FFFEE33FEEC33FCEE9DEC26
:1004A300984005FCEE9DFE0FD5F0E9E4CEFD22ED6C
:1004B300F8F5F0EE8420D21CFEADF075F008EF2FB6
:1004C300FFED33FD4007985006D5F0F222C398FDA7
:0504D3000FD5F0EA2244
:0E04D800C3E49FFFE49EFEE49DFDE49CFC2235
:1004E600BB010789828A830205745005E9F8020573
:1004F600CDBBFE05E9F80205D989828A830205800B
:10050600BB010DE58229F582E5833AF58302057480
:100516005007E92582F80205CDBBFE07E92582F8DA
:100526000205D9E58229F582E5833AF5830205803D
:10053600BB010789828A830205905005E9F8020506
:0A054600E5BBFE05E9F80205F1220D
:10055000BB010DE58229F582E5833AF5830205901A
:100560005007E92582F80205E5BBFE07E92582F878
:040570000205F1226D
:0C057400E0FCA3E0FDA3E0FEA3E0FF22FA
:10058000E493FC740193FD740293FE740393FF22C1
:0C059000ECF0A3EDF0A3EEF0A3EFF022DE
:10059C00A8828583F0D083D0821205B31205B312E2
:1005AC0005B31205B3E473E493A3C583C5F0C58307
:1005BC00C8C582C8F0A3C583C5F0C583C8C582C8A9
:0105CC00220C
:0C05CD00E6FC08E6FD08E6FE08E6FF225A
:0C05D900E2FC08E2FD08E2FE08E2FF225E
:0C05E500ECF608EDF608EEF608EFF62242
:0C05F100ECF208EDF208EEF208EFF22246
:00000001FF
