:10001E003F800000000000003F7EC56DBDC8B439B2
:10002E003F7B15B5BE47C84B3F74F766BE94A234EE
:10003E003F6C84B6BEC3F1413F61C433BEF15B5722
:10004E003F54DD2FBF0E3BCD3F45E354BF22680A20
:10005E003F350481BF3504813F22680ABF45E35412
:10006E003F0E3BCDBF54DD2F3EF15B57BF61C43316
:10007E003EC3F141BF6C84B63E94A234BF74F766A2
:10008E003E47C84BBF7B15B53DC8B439BF7EC56D65
:10009E0000000000BF800000BDC8B439BF7EC56D32
:1000AE00BE47C84BBF7B15B5BE94A2343F74F766EE
:1000BE00BEC3F141BF6C84B6BEF15B57BF61C433A2
:1000CE00BF0E3BCDBF54DD2FBF22680ABF45E354A0
:1000DE00BF350481BF350481BF45E354BF22680A92
:1000EE00BF54DD2FBF0E3BCDBF61C433BEF15B5796
:1000FE00BF6C84B6BEC3F141BF74F766BE94A23422
:10010E00BF7B15B5BE47C84BBF7EC56DBDC8B439E4
:10011E0000000000000000000000000000000000D1
:10012E0000000000000000000000000000000000C1
:10013E0000000000000000000000000000000000B1
:10014E0000000000000000000000000000000000A1
:10015E00FE00000000000000000000000000000093
:10016E000000000000000000000000000000000081
:10017E000000000000000000000000000000000071
:10018E000000000000000000000000000000000061
:10019E00FEFE000000000000000000000000000055
:1001AE000000000000000000000000000000000041
:1001BE000000000000000000000000000000000031
:1001CE000000000000000000000000000000000021
:1001DE00FEFEFE0000000000000000000000000017
:1001EE000000000000000000000000000000000001
:1001FE0000000000000000000000000000000000F1
:10020E0000000000000000000000000000000000E0
:10021E00FEFEFEFE000000000000000000000000D8
:10022E0000000000000000000000000000000000C0
:10023E0000000000000000000000000000000000B0
:10024E0000000000000000000000000000000000A0
:10025E00FEFEFEFEFE00000000000000000000009A
:10026E000000000000000000000000000000000080
:10027E000000000000000000000000000000000070
:10028E000000000000000000000000000000000060
:10029E00FEFEFEFEFEFE000000000000000000005C
:1002AE000000000000000000000000000000000040
:1002BE000000000000000000000000000000000030
:1002CE000000000000000000000000000000000020
:1002DE00FEFEFEFEFEFEFE0000000000000000001E
:1002EE000000000000000000000000000000000000
:1002FE0000000000000000000000000000000000F0
:10030E0000000000000000000000000000000000DF
:10031E00FEFEFEFEFEFEFEFE0000000000000000DF
:10032E0000000000000000000000000000000000BF
:10033E0000000000000000000000000000000000AF
:10034E00000000000000000000000000000000009F
:10035E00FEFEFEFEFEFEFEFEFE00000000000000A1
:10036E00000000000000000000000000000000007F
:10037E00000000000000000000000000000000006F
:10038E00000000000000000000000000000000005F
:10039E00FEFEFEFEFEFEFEFEFEFE00000000000063
:1003AE00000000000000000000000000000000003F
:1003BE00000000000000000000000000000000002F
:1003CE00000000000000000000000000000000001F
:1003DE00FEFEFEFEFEFEFEFEFEFEFE000000000025
:1003EE0000000000000000000000000000000000FF
:1003FE0000000000000000000000000000000000EF
:10040E0000000000000000000000000000000000DE
:10041E00FEFEFEFEFEFEFEFEFEFEFEFE00000000E6
:10042E0000000000000000000000000000000000BE
:10043E0000000000000000000000000000000000AE
:10044E00000000000000000000000000000000009E
:10045E00FEFEFEFEFEFEFEFEFEFEFEFEFE000000A8
:10046E00000000000000000000000000000000007E
:10047E00000000000000000000000000000000006E
:10048E00000000000000000000000000000000005E
:10049E00FEFEFEFEFEFEFEFEFEFEFEFEFEFE00006A
:1004AE00000000000000000000000000000000003E
:1004BE00000000000000000000000000000000002E
:1004CE00000000000000000000000000000000001E
:1004DE00FEFEFEFEFEFEFEFEFEFEFEFEFEFEFE002C
:1004EE0000000000000000000000000000000000FE
:1004FE0000000000000000000000000000000000EE
:10050E0000000000000000000000000000000000DD
:10051E00FEFEFEFEFEFEFEFEFEFEFEFEFEFEFEFEED
:10052E0000000000000000000000000000000000BD
:10053E0000000000000000000000000000000000AD
:10054E00000000000000000000000000000000009D
:10055E00FEFEFEFEFEFEFEFEFEFEFEFEFEFEFEFEAD
:10056E00FE0000000000000000000000000000007F
:10057E00000000000000000000000000000000006D
:10058E00000000000000000000000000000000005D
:10059E00FEFEFEFEFEFEFEFEFEFEFEFEFEFEFEFE6D
:1005AE00FEFE000000000000000000000000000041
:1005BE00000000000000000000000000000000002D
:1005CE00000000000000000000000000000000001D
:1005DE00FEFEFEFEFEFEFEFEFEFEFEFEFEFEFEFE2D
:1005EE00FEFEFE0000000000000000000000000003
:1005FE0000000000000000000000000000000000ED
:10060E0000000000000000000000000000000000DC
:10061E00FEFEFEFEFEFEFEFEFEFEFEFEFEFEFEFEEC
:10062E00FEFEFEFE000000000000000000000000C4
:10063E0000000000000000000000000000000000AC
:10064E00000000000000000000000000000000009C
:10065E00FEFEFEFEFEFEFEFEFEFEFEFEFEFEFEFEAC
:10066E00FEFEFEFEFE000000000000000000000086
:10067E00000000000000000000000000000000006C
:10068E00000000000000000000000000000000005C
:10069E00FEFEFEFEFEFEFEFEFEFEFEFEFEFEFEFE6C
:1006AE00FEFEFEFEFEFE0000000000000000000048
:1006BE00000000000000000000000000000000002C
:1006CE00000000000000000000000000000000001C
:1006DE00FEFEFEFEFEFEFEFEFEFEFEFEFEFEFEFE2C
:1006EE00FEFEFEFEFEFEFE0000000000000000000A
:1006FE0000000000000000000000000000000000EC
:10070E0000000000000000000000000000000000DB
:10071E00FEFEFEFEFEFEFEFEFEFEFEFEFEFEFEFEEB
:10072E00FEFEFEFEFEFEFEFE0000000000000000CB
:10073E0000000000000000000000000000000000AB
:10074E00000000000000000000000000000000009B
:10075E00FEFEFEFEFEFEFEFEFEFEFEFEFEFEFEFEAB
:10076E00FEFEFEFEFEFEFEFEFE000000000000008D
:10077E00000000000000000000000000000000006B
:10078E00000000000000000000000000000000005B
:10079E00FEFEFEFEFEFEFEFEFEFEFEFEFEFEFEFE6B
:1007AE00FEFEFEFEFEFEFEFEFEFE0000000000004F
:1007BE00000000000000000000000000000000002B
:1007CE00000000000000000000000000000000001B
:1007DE00FEFEFEFEFEFEFEFEFEFEFEFEFEFEFEFE2B
:1007EE00FEFEFEFEFEFEFEFEFEFEFE000000000011
:1007FE0000000000000000000000000000000000EB
:10080E0000000000000000000000000000000000DA
:10081E00FEFEFEFEFEFEFEFEFEFEFEFEFEFEFEFEEA
:10082E00FEFEFEFEFEFEFEFEFEFEFEFE00000000D2
:10083E0000000000000000000000000000000000AA
:10084E00000000000000000000000000000000009A
:10085E00FEFEFEFEFEFEFEFEFEFEFEFEFEFEFEFEAA
:10086E00FEFEFEFEFEFEFEFEFEFEFEFEFE00000094
:10087E00000000000000000000000000000000006A
:10088E00000000000000000000000000000000005A
:10089E00FEFEFEFEFEFEFEFEFEFEFEFEFEFEFEFE6A
:1008AE00FEFEFEFEFEFEFEFEFEFEFEFEFEFE000056
:1008BE00000000000000000000000000000000002A
:1008CE00000000000000000000000000000000001A
:1008DE00FEFEFEFEFEFEFEFEFEFEFEFEFEFEFEFE2A
:1008EE00FEFEFEFEFEFEFEFEFEFEFEFEFEFEFE0018
:1008FE0000000000000000000000000000000000EA
:10090E0000000000000000000000000000000000D9
:10091E00FEFEFEFEFEFEFEFEFEFEFEFEFEFEFEFEE9
:10092E00FEFEFEFEFEFEFEFEFEFEFEFEFEFEFEFED9
:10093E0000000000000000000000000000000000A9
:10094E000000000000000000000000000000000099
:10095E00FEFEFEFEFEFEFEFEFEFEFEFEFEFEFEFEA9
:10096E00FEFEFEFEFEFEFEFEFEFEFEFEFEFEFEFE99
:10097E00FE0000000000000000000000000000006B
:10098E000000000000000000000000000000000059
:10099E00FEFEFEFEFEFEFEFEFEFEFEFEFEFEFEFE69
:1009AE00FEFEFEFEFEFEFEFEFEFEFEFEFEFEFEFE59
:1009BE00FEFE00000000000000000000000000002D
:1009CE000000000000000000000000000000000019
:1009DE00FEFEFEFEFEFEFEFEFEFEFEFEFEFEFEFE29
:1009EE00FEFEFEFEFEFEFEFEFEFEFEFEFEFEFEFE19
:1009FE00FEFEFE00000000000000000000000000EF
:100A0E0000000000000000000000000000000000D8
:100A1E00FEFEFEFEFEFEFEFEFEFEFEFEFEFEFEFEE8
:100A2E00FEFEFEFEFEFEFEFEFEFEFEFEFEFEFEFED8
:100A3E00FEFEFEFE000000000000000000000000B0
:100A4E000000000000000000000000000000000098
:100A5E00FEFEFEFEFEFEFEFEFEFEFEFEFEFEFEFEA8
:100A6E00FEFEFEFEFEFEFEFEFEFEFEFEFEFEFEFE98
:100A7E00FEFEFEFEFE000000000000000000000072
:100A8E000000000000000000000000000000000058
:100A9E00FEFEFEFEFEFEFEFEFEFEFEFEFEFEFEFE68
:100AAE00FEFEFEFEFEFEFEFEFEFEFEFEFEFEFEFE58
:100ABE00FEFEFEFEFEFE0000000000000000000034
:100ACE000000000000000000000000000000000018
:100ADE00FEFEFEFEFEFEFEFEFEFEFEFEFEFEFEFE28
:100AEE00FEFEFEFEFEFEFEFEFEFEFEFEFEFEFEFE18
:100AFE00FEFEFEFEFEFEFE000000000000000000F6
:100B0E0000000000000000000000000000000000D7
:100B1E00FEFEFEFEFEFEFEFEFEFEFEFEFEFEFEFEE7
:100B2E00FEFEFEFEFEFEFEFEFEFEFEFEFEFEFEFED7
:100B3E00FEFEFEFEFEFEFEFE0000000000000000B7
:100B4E000000000000000000000000000000000097
:100B5E00FEFEFEFEFEFEFEFEFEFEFEFEFEFEFEFEA7
:100B6E00FEFEFEFEFEFEFEFEFEFEFEFEFEFEFEFE97
:100B7E00FEFEFEFEFEFEFEFEFE0000000000000079
:100B8E000000000000000000000000000000000057
:100B9E00FEFEFEFEFEFEFEFEFEFEFEFEFEFEFEFE67
:100BAE00FEFEFEFEFEFEFEFEFEFEFEFEFEFEFEFE57
:100BBE00FEFEFEFEFEFEFEFEFEFE0000000000003B
:100BCE000000000000000000000000000000000017
:100BDE00FEFEFEFEFEFEFEFEFEFEFEFEFEFEFEFE27
:100BEE00FEFEFEFEFEFEFEFEFEFEFEFEFEFEFEFE17
:100BFE00FEFEFEFEFEFEFEFEFEFEFE0000000000FD
:100C0E0000000000000000000000000000000000D6
:100C1E00FEFEFEFEFEFEFEFEFEFEFEFEFEFEFEFEE6
:100C2E00FEFEFEFEFEFEFEFEFEFEFEFEFEFEFEFED6
:100C3E00FEFEFEFEFEFEFEFEFEFEFEFE00000000BE
:100C4E000000000000000000000000000000000096
:100C5E00FEFEFEFEFEFEFEFEFEFEFEFEFEFEFEFEA6
:100C6E00FEFEFEFEFEFEFEFEFEFEFEFEFEFEFEFE96
:100C7E00FEFEFEFEFEFEFEFEFEFEFEFEFE00000080
:100C8E000000000000000000000000000000000056
:100C9E00FEFEFEFEFEFEFEFEFEFEFEFEFEFEFEFE66
:100CAE00FEFEFEFEFEFEFEFEFEFEFEFEFEFEFEFE56
:100CBE00FEFEFEFEFEFEFEFEFEFEFEFEFEFE000042
:100CCE000000000000000000000000000000000016
:100CDE00FEFEFEFEFEFEFEFEFEFEFEFEFEFEFEFE26
:100CEE00FEFEFEFEFEFEFEFEFEFEFEFEFEFEFEFE16
:100CFE00FEFEFEFEFEFEFEFEFEFEFEFEFEFEFE0004
:100D0E0000000000000000000000000000000000D5
:100D1E00FEFEFEFEFEFEFEFEFEFEFEFEFEFEFEFEE5
:100D2E00FEFEFEFEFEFEFEFEFEFEFEFEFEFEFEFED5
:100D3E00FEFEFEFEFEFEFEFEFEFEFEFEFEFEFEFEC5
:100D4E000000000000000000000000000000000095
:100D5E00FEFEFEFEFEFEFEFEFEFEFEFEFEFEFEFEA5
:100D6E00FEFEFEFEFEFEFEFEFEFEFEFEFEFEFEFE95
:100D7E00FEFEFEFEFEFEFEFEFEFEFEFEFEFEFEFE85
:100D8E00FE00000000000000000000000000000057
:100D9E00FEFEFEFEFEFEFEFEFEFEFEFEFEFEFEFE65
:100DAE00FEFEFEFEFEFEFEFEFEFEFEFEFEFEFEFE55
:100DBE00FEFEFEFEFEFEFEFEFEFEFEFEFEFEFEFE45
:100DCE00FEFE000000000000000000000000000019
:100DDE00FEFEFEFEFEFEFEFEFEFEFEFEFEFEFEFE25
:100DEE00FEFEFEFEFEFEFEFEFEFEFEFEFEFEFEFE15
:100DFE00FEFEFEFEFEFEFEFEFEFEFEFEFEFEFEFE05
:100E0E00FEFEFE00000000000000000000000000DA
:100E1E00FEFEFEFEFEFEFEFEFEFEFEFEFEFEFEFEE4
:100E2E00FEFEFEFEFEFEFEFEFEFEFEFEFEFEFEFED4
:100E3E00FEFEFEFEFEFEFEFEFEFEFEFEFEFEFEFEC4
:100E4E00FEFEFEFE0000000000000000000000009C
:100E5E00FEFEFEFEFEFEFEFEFEFEFEFEFEFEFEFEA4
:100E6E00FEFEFEFEFEFEFEFEFEFEFEFEFEFEFEFE94
:100E7E00FEFEFEFEFEFEFEFEFEFEFEFEFEFEFEFE84
:100E8E00FEFEFEFEFE00000000000000000000005E
:100E9E00FEFEFEFEFEFEFEFEFEFEFEFEFEFEFEFE64
:100EAE00FEFEFEFEFEFEFEFEFEFEFEFEFEFEFEFE54
:100EBE00FEFEFEFEFEFEFEFEFEFEFEFEFEFEFEFE44
:100ECE00FEFEFEFEFEFE0000000000000000000020
:100EDE00FEFEFEFEFEFEFEFEFEFEFEFEFEFEFEFE24
:100EEE00FEFEFEFEFEFEFEFEFEFEFEFEFEFEFEFE14
:100EFE00FEFEFEFEFEFEFEFEFEFEFEFEFEFEFEFE04
:100F0E00FEFEFEFEFEFEFE000000000000000000E1
:100F1E00FEFEFEFEFEFEFEFEFEFEFEFEFEFEFEFEE3
:100F2E00FEFEFEFEFEFEFEFEFEFEFEFEFEFEFEFED3
:100F3E00FEFEFEFEFEFEFEFEFEFEFEFEFEFEFEFEC3
:100F4E00FEFEFEFEFEFEFEFE0000000000000000A3
:100F5E00FEFEFEFEFEFEFEFEFEFEFEFEFEFEFEFEA3
:100F6E00FEFEFEFEFEFEFEFEFEFEFEFEFEFEFEFE93
:100F7E00FEFEFEFEFEFEFEFEFEFEFEFEFEFEFEFE83
:100F8E00FEFEFEFEFEFEFEFEFE0000000000000065
:100F9E00FEFEFEFEFEFEFEFEFEFEFEFEFEFEFEFE63
:100FAE00FEFEFEFEFEFEFEFEFEFEFEFEFEFEFEFE53
:100FBE00FEFEFEFEFEFEFEFEFEFEFEFEFEFEFEFE43
:100FCE00FEFEFEFEFEFEFEFEFEFE00000000000027
:100FDE00FEFEFEFEFEFEFEFEFEFEFEFEFEFEFEFE23
:100FEE00FEFEFEFEFEFEFEFEFEFEFEFEFEFEFEFE13
:100FFE00FEFEFEFEFEFEFEFEFEFEFEFEFEFEFEFE03
:10100E00FEFEFEFEFEFEFEFEFEFEFE0000000000E8
:10101E00FEFEFEFEFEFEFEFEFEFEFEFEFEFEFEFEE2
:10102E00FEFEFEFEFEFEFEFEFEFEFEFEFEFEFEFED2
:10103E00FEFEFEFEFEFEFEFEFEFEFEFEFEFEFEFEC2
:10104E00FEFEFEFEFEFEFEFEFEFEFEFE00000000AA
:10105E00FEFEFEFEFEFEFEFEFEFEFEFEFEFEFEFEA2
:10106E00FEFEFEFEFEFEFEFEFEFEFEFEFEFEFEFE92
:10107E00FEFEFEFEFEFEFEFEFEFEFEFEFEFEFEFE82
:10108E00FEFEFEFEFEFEFEFEFEFEFEFEFE0000006C
:10109E00FEFEFEFEFEFEFEFEFEFEFEFEFEFEFEFE62
:1010AE00FEFEFEFEFEFEFEFEFEFEFEFEFEFEFEFE52
:1010BE00FEFEFEFEFEFEFEFEFEFEFEFEFEFEFEFE42
:1010CE00FEFEFEFEFEFEFEFEFEFEFEFEFEFE00002E
:1010DE00FEFEFEFEFEFEFEFEFEFEFEFEFEFEFEFE22
:1010EE00FEFEFEFEFEFEFEFEFEFEFEFEFEFEFEFE12
:1010FE00FEFEFEFEFEFEFEFEFEFEFEFEFEFEFEFE02
:10110E00FEFEFEFEFEFEFEFEFEFEFEFEFEFEFE00EF
:10111E00FEFEFEFEFEFEFEFEFEFEFEFEFEFEFEFEE1
:10112E00FEFEFEFEFEFEFEFEFEFEFEFEFEFEFEFED1
:10113E00FEFEFEFEFEFEFEFEFEFEFEFEFEFEFEFEC1
:10114E00FEFEFEFEFEFEFEFEFEFEFEFEFEFEFEFEB1
:10173D006400026A000000000000000000000000CC
:10174D00000000000000000000000000000000008C
:10175D00000000000000000000000000000000007C
:10176D00000000000000000000000000000000006C
:10177D00000000000000000000000000000000005C
:0C1B3D0000000000013C004200500020AD
:1022FE0012000612247A1223491221971224A020CA
:10230E00B00375C760E4781AF67F07122428AC066E
:10231E00AD07E4121361781AE675F008A42452F59D
:10232E0082E5F03400F5831216D0781A06E6C394CF
:0B233E004140D6121E1E12219780C4E1
:10229100E47818F6E47819F67819E6FFC313FE1806
:1022A100E6FD245DF8E675F040A4241EF582E5F014
:1022B1003401F583E5822EF582E43583F583E493D9
:1022C100FCC3743F9FFFE49400FEEFC4F8540FC8B1
:1022D10068FFEEC454F048FE746A2FF58274023E22
:1022E100F583E5822DF582E43583F583ECF07819E9
:0C22F10006E6B420A3781806E6B41098A6
:0122FD0022BE
:10222200E47818F6E47819F67819E6FF75F0038475
:10223200FE18E6FD245DF8E675F040A4241EF58242
:10224200E5F03401F583E5822EF582E43583F583EA
:10225200E493FCC3743F9FFFE49400FEEFC4F85480
:102262000FC868FFEEC454F048FE746A2FF58274FA
:10227200023EF583E5822DF582E43583F583ECF0A9
:0E228200781906E6B440A1781806E6B4109666
:01229000222B
:102349007F281224DDD2907F011224DDC2927F0101
:102359001224DDD2927F0A1224DDC2007F361223B5
:10236900DD7F641224DDC2007F361223DD7F251252
:1023790024DDC2007F3E1223DD7F641224DDC2000A
:0A2389007F011223DD7F640224DDD2
:1023CD00F583E5822FF582E43583F583E0FFD200B6
:1023DD0090066AEFF0C2A6A20092A57F181224DD26
:1023ED0090066AE0F580D2A77F181224DDC2A722DD
:10219700E4781BF6781BE6FFC394205038EF2480C1
:1021A700FFC2001223DDC2007F801223DDE4781C0A
:1021B700F6781CE6FFC39410501618E675F010A4C5
:1021C700246AF582E5F034021223CD781C0680E1FB
:1021D700781B0680BFE4781BF6781BE6FFC39420C4
:1021E7005038EF2480FFC2001223DDC2007F88121F
:1021F70023DDE4781CF6781CE6FFC394105016180C
:10220700E675F010A4246AF582E5F034041223CDB4
:0A221700781C0680E1781B0680BFEA
:01222100229A
:0D24DD00AE071FEE60060000000080F42234
:10242800EF44E8F5BC00000000E5BC30E4FB53BC19
:10243800EFAFBD7E00E5BE2402FDEFA805088005CC
:09244800C333CE33CED8F9FF22D4
:10247A00E4FF744D2FF8E4F6745A2FF582E434021F
:10248A00F583E4F074402FF582E43400F583E4F038
:05249A000FEFB410DD9E
:01249F00221A
:101F9400900676E075F008A42422F582E43400F576
:101FA400831216C0900672E0F8A3E0F9A3E0FAA346
:101FB400E0FB121256C004C005C006C007900676A6
:101FC400E075F008A4241EF582E43400F5831216AB
:101FD400C090066EE0F8A3E0F9A3E0FAA3E0FB12D8
:101FE4001256D003D002D001D0001211618F138E8B
:101FF400128D118C10900676E075F008A4241EF55D
:1020040082E43400F5831216C0900672E0F8A3E06F
:10201400F9A3E0FAA3E0FB121256C004C005C006FF
:10202400C007900676E075F008A42422F582E43413
:1020340000F5831216C090066EE0F8A3E0F9A3E061
:10204400FAA3E0FB121256D003D002D001D0001242
:0B20540011658F178E168D158C14225D
:0423FD00AB05AA077B
:10240100753900753A01E4F53BE53BC39B5013AECA
:1024110039AF3AEAFD7C001215B18E398F3A053B8E
:0624210080E7AE39AF3A7E
:012427002292
:0E1B4A0090066AEBF0A3EAF0A3E9F0A3EDF039
:101B5800F527752C01AF277E01EF7801088002C3B5
:101B680013D8FCF52764016004052C80E8E4F52A05
:101B780090066DE014FFE52AD39F4003021C83857D
:101B88002A2DE4F529852C28E528D394004020E562
:101B98002814FFE52D5401FEA807088002C333D896
:101BA800FC2529F529E52DC313F52D152880D9E540
:101BB8002AC395294003021C7EE5292401FFE4334A
:101BC800FEEF7803C333CE33CED8F9FF90066AE030
:101BD800FBA3E0FAA3E02FF9EA3EFA78317C007D16
:101BE800007E007F0812158BE52A2401FFE433FEEE
:101BF800EF7803C333CE33CED8F9FF90066AE0FB03
:101C0800A3E0FAA3E02FF9EA3EFAC003C002C0013C
:101C1800E5292401FFE433FEEF7803C333CE33CE46
:101C2800D8F9FF90066AE0FBA3E0FAA3E02FF9EAEF
:101C38003EA801FCAD03D001D002D0037E007F088E
:101C480012158BE52A2401FFE433FEEF7803C33332
:101C5800CE33CED8F9FF90066AE0FBA3E0FAA3E002
:101C68002FF9EA3EA801FCAD037B007A0079317EAA
:101C7800007F0812158B052A021B78752B01E52BAE
:101C8800D3952C4003021E1DAD2B7F021223FD8F1E
:101C98002EE52EC313F52F752901E529D3952F407D
:101CA80003021E1885292890066DE0FFE528C39FCA
:101CB8004003021E13E528252FF53075F008A4FF10
:101CC80090066AE0FBA3E0FAA3E02FF9EA35F0FA00
:101CD800786E7C067D017E007F0812158BE529242D
:101CE800FFFFE434FFFE90066DE0FD7C001215B1A5
:101CF800AD2E1215C3900676EFF0121F9478317C42
:101D0800007D007B007A0079107E007F0812158B19
:101D180090066AE0FBA3E0FAA3E0F975F008E5286D
:101D2800A4F58285F083121646AB34AA33A932A8EB
:101D38003112116190066AE0FBA3E0FAA3E0F9759D
:101D4800F008E530A4F58285F083121690E5287531
:101D5800F008A429F9EA35F0FA900004121646AB07
:101D680038AA37A936A835121161C006C007E53070
:101D780075F008A4FF90066AE0FBA3E0FAA3E02F41
:101D8800F9EA35F0FA900004D007D00612169090C0
:101D9800066AE0FBA3E0FAA3E0F975F008E528A4D9
:101DA800F582E92582F9EA35F0FAC003C002C001DC
:101DB800121626AB34AA33A932A831121165D00104
:101DC800D002D003121676E52875F008A4FF900615
:101DD8006AE0FBA3E0FAA3E02FF9EA35F0FAE92478
:101DE80004F9E43AFAC003C002C001121626AB385F
:101DF800AA37A936A835121165D001D002D003122E
:101E08001676E52E2528F528021CAF0529021CA206
:051E1800052B021C86F1
:011E1D0022A2
:101E1E00E4F521F52175F008E521A42456F582E5B7
:101E2E00F03400F5831216DC000000000521E521D8
:101E3E00B441E27B017A0079527D40121B4A752132
:101E4E0002E4F523E521C39422507C75F008E521C8
:101E5E00A42456F582E5F03400F583E0FCA3E0FD02
:101E6E00A3E0FEA3E0FFA804A905AA06FB121256E2
:101E7E00C004C005C006C00775F008E521A42452B1
:101E8E00F582E5F03400F583E0FCA3E0FDA3E0FE6F
:101E9E00A3E0FFA804A905AA06FB121256D003D090
:101EAE0002D001D000121165122063AB230523EB83
:101EBE0025E025E02400F582E43400F5831216D0E7
:101ECE0005210521021E52E4F52375210FE523C3DA
:101EDE0094104003021F93E52325E025E02400F52E
:101EEE0082E43400F583E0FCA3E0FDA3E0FEA3E072
:101EFE00FF12139AEFC4540FF522D394015003E44A
:101F0E00F522E522D39524401AE5229524F525D312
:101F1E009403400FE52524FDF526C3E5229526F50D
:101F2E0022F524E522C395245018C3E5249522F505
:101F3E0025D39403400CE52524FDF5262522F52214
:101F4E00F524744D2523F8E6FFD395225004A622DE
:101F5E00800FEFD39400400116744D2523F8E6F55B
:101F6E0022900050E0FCA3E0FDC395227480F8ECB3
:101F7E0064809850028D22745D2523F8A6220523D5
:051F8E001521021EDB1D
:011F9300222B
:1024C200EF1FAA0670011E4A60107C137D88ED1D65
:0A24D200AA0470011C4A60E880F4BF
:0124DC0022DD
:10000600759D80E4F5BDF5BE75BC807F02FE0224B9
:01001600C227
:1024A000E4F593F5947591C0F592D2AFD288D2A895
:1024B000D2AB538EBFF589758BC0758D63C28FD239
:0224C0008E226A
:0300030002239342
:10239300C0E0C083C082C0D075D000C000C007C2F7
:1023A300A8783C06E6FFB40109900050E4F0A3745A
:1023B30040F0EFD39401400375C760D2A8D007D093
:0A23C30000D0D0D082D083D0E032E9
:03001B000224516B
:10245100C0E0C0F0C083C082C0D075D008783CE62F
:102461001460080470081222918003122222D0D035
:09247100D082D083D0F0D0E0321B
:10115E00021406E86480F8E933E83360110460F0A5
:10116E00ED33EC337009E8FCE9FDEAFEEBFF2204F7
:10117E0060DED3EB9FEA9EE99DE8C2E78CF0C2F7F2
:10118E0095F0400CE8CCF8E9CDF9EACEFAEBCFFBBE
:10119E001213D185D0F05804700320D5B3E8047033
:1011AE00075002B2D502141092D5EC0460F7E4CCCD
:1011BE00C0E0C398F8603B94186008400DD0E0FB87
:1011CE000213E8E4FBFAC9FC8028E830E406E4C91F
:1011DE00FBE4CAFCE830E305E4C9CACBFCE85407DB
:1011EE006010F8C3E913F9EA13FAEB13FBEC13FCE6
:1011FE00D8F130F52FC3E49CFCEF9BFFEE9AFEED89
:10120E0099FDD0E0FBEF4E4D4C701222DB03021421
:10121E000DEC2CFCEF33FFEE33FEED33FDED30E73E
:10122E00EB0213E8EF2BFFEE3AFEED39FDD0E0FBBB
:10123E0050130BBB0003021410ED13FDEE13FEEF63
:08124E0013FFEC13FC0213E88E
:10125600EC4D6011E8497017ED33EC3304600DE492
:10126600FCFFFEFD22E933E8330470F8021406128F
:1012760013D158046009E4CC248150062850090291
:10128600141028400302140DC0E0EB4A7044B980E4
:1012960006D0E0FB0213FCEF4E701CBD8008EBFF8E
:1012A600EAFEE9FD80EBE98DF0A4FEE5F002133FCE
:1012B600E9CDF9EAFEEBFFEF89F0A4FCE5F0CE8973
:1012C600F0A42EFFE435F0CD89F0A42DFEE435F030
:1012D6008067EF4E7005BD80D780C3EF8BF0A4AC5E
:1012E600F0EE8BF0A42CFCE435F0F8EF8AF0A42C99
:1012F600E5F038FCE433CB8DF0A42CFCE5F03BF8AC
:10130600EE8AF0A42CFCE5F038F8E433CF89F0A49B
:101316002CFCE5F038CF3400CE89F0A42FFFE5F0A1
:101326003EFEE433C98DF0A42EFEE5F039CD8AF0F9
:10133600A42FFFE5F03EFEE43DFD33D0E0FB500771
:101346000BBB000F021410EC2CFCEF33FFEE33FE48
:06135600ED33FD0213E877
:10135C0075F020800E75F010800575F0087D007E0C
:10136C00007F003392D530D503121618EC334010A1
:10137C00EF33FFEE33FEED33FDEC33FCD5F0ED2215
:0E138C00E5F0247EA2D513CC92E7CDCEFF2251
:10139A00EDD2E7CD33EC3392D524814006E4FFFE4B
:1013AA00FDFC22FCE4CFCECDCC24E0501174FF80AA
:1013BA00EDC3CC13CCCD13CDCE13CECF13CF047047
:0713CA00F030D5DE02161819
:10205F0002140622EDA2E7D2E7F9EC3340F260F367
:10206F00B4FF08ED547F70E8021410F82481C2E029
:10207F00C0E0F40428FAC313FCED92E7FD90066A62
:10208F001216D0EEA2E7E9BA7F02C3133400940010
:10209F00FA75F091A4E5F013F494FE8AF0A433E5F9
:1020AF00F033248CD313FDE492E7FE7F007C3F7561
:1020BF008302ECC0E0F8EDC0E0F9EEC0E0FAEFC04B
:1020CF00E0FB8583F090066A1216B485F083121434
:1020DF001ED0E0FBD0E0FAD0E0F9D0E0F8121165A5
:1020EF00ED6480FD30E7011CD583C7ED33CC33F8A9
:0C20FF00D0E0A2E71328C313CC13FD228D
:1013D100E9D2E7C933E833F892D5EDD2E7CD33EC62
:0713E10033FC5002B2D522DB
:1013E800EC30E7100FBF000C0EBE00080DBD000466
:1013F8000BEB6014A2D5EB13FCED92E7FD2274FF12
:10140800FCFDFEFF22E480F8A2D574FF13FC7D806A
:03141800E480EF7E
:10141B00021410EC5D046005E85904700302140615
:10142B001213D1580460F6EC4860F2EC7004FDFE28
:10143B00FF22C860DB2481C85009C39860025006A4
:10144B0002140D9850CAF582E9294B4A7005AB82FC
:10145B000213FC75F0007C1A7880C3EF9BEE9AEDBB
:10146B0099400DC3EF9BFFEE9AFEED99FDE842F01C
:10147B00DC23ACF0D0E0FFD0E0FED0E0FDAB82206F
:10148B00E7101BEB60BAEC2CFCEF33FFEE33FEEDF9
:10149B0033FD0213E8E803F830E705C0F075F00000
:1014AB00EF2FFFEE33FEED33FD40B830E7C280AADD
:0300000002210BCF
:0C210B00787FE4F6D8FD75816C0221524B
:1014BB00E709F608DFFA8046E709F208DFFA803E13
:1014CB0088828C83E709F0A3DFFA8032E309F60800
:1014DB00DFFA8078E309F208DFFA807088828C8368
:1014EB00E309F0A3DFFA806489828A83E0A3F6081C
:1014FB00DFFA805889828A83E0A3F208DFFA804CF6
:10150B0080D280FA80C680D4806980F280338010CC
:10151B0080A680EA809A80A880DA80E280CA803335
:10152B0089828A83ECFAE493A3C8C582C8CCC583AD
:10153B00CCF0A3C8C582C8CCC583CCDFE9DEE7807D
:10154B000D89828A83E493A3F608DFF9ECFAA9F0FC
:10155B00EDFB2289828A83ECFAE0A3C8C582C8CC52
:10156B00C583CCF0A3C8C582C8CCC583CCDFEADE6B
:10157B00E880DB89828A83E493A3F208DFF980CCCD
:10158B0088F0EF60010E4E60C388F0ED2402B404C6
:10159B000050B9F582EB2402B4040050AF2323456D
:0615AB00822390150B7372
:1015B100EF8DF0A4A8F0CF8CF0A428CE8DF0A42E4E
:0215C100FE2208
:1015C300BC000BBE0029EF8DF084FFADF022E4CC0C
:1015D300F875F008EF2FFFEE33FEEC33FCEE9DECD5
:1015E300984005FCEE9DFE0FD5F0E9E4CEFD22ED1B
:1015F300F8F5F0EE8420D21CFEADF075F008EF2F65
:10160300FFED33FD4007985006D5F0F222C398FD55
:051613000FD5F0EA22F2
:0E161800C3E49FFFE49EFEE49DFDE49CFC22E3
:10162600BB010789828A830216B45005E9F80217BE
:101636000DBBFE05E9F802171989828A830216C0D6
:10164600BB010DE58229F582E5833AF5830216B4DE
:101656005007E92582F802170DBBFE07E92582F837
:10166600021719E58229F582E5833AF5830216C049
:10167600BB010789828A830216D05005E9F8021752
:0A16860025BBFE05E9F8021731222A
:10169000BB010DE58229F582E5833AF5830216D078
:1016A0005007E92582F8021725BBFE07E92582F8D5
:0416B00002173122CA
:0C16B400E0FCA3E0FDA3E0FEA3E0FF22A9
:1016C000E493FC740193FD740293FE740393FF2270
:0C16D000ECF0A3EDF0A3EEF0A3EFF0228D
:1016DC00A8828583F0D083D0821216F31216F312EF
:1016EC0016F31216F3E473E493A3C583C5F0C58314
:1016FC00C8C582C8F0A3C583C5F0C583C8C582C858
:01170C0022BA
:102117000222FEE493A3F8E493A34003F68001F2BE
:1021270008DFF48029E493A3F85407240CC8C333C9
:10213700C4540F4420C8834004F456800146F6DF98
:10214700E4800B010204081020408090173DE47ED4
:10215700019360BCA3FF543F30E509541FFEE4938D
:10216700A360010ECF54C025E060A840B8E493A354
:10217700FAE493A3F8E493A3C8C582C8CAC583CA7F
:10218700F0A3C8C582C8CAC583CADFE9DEE780BE37
:011B4900009B
:0C170D00E6FC08E6FD08E6FE08E6FF2208
:0C171900E2FC08E2FD08E2FE08E2FF220C
:0C172500ECF608EDF608EEF608EFF622F0
:0C173100ECF208EDF208EEF208EFF222F4
:00000001FF
