:0A08A800C2008F993000FDC200224B
:1008370012087A120861E508650960FA740025084C
:10084700F582E43400F583E0FF1208A80508E508FF
:0A085700C3948040E1E4F50880DC62
:10087A00E58954FC4401F589758CDCE4F58AD2A932
:05088A00D28CD2AF2268
:03000B0002088F59
:0D088F00C28C758CDC758A00D28CB2903260
:100861004387807598505389BFE58954CF4420F55B
:0908710089758DFAD28ED2AC22F9
:03002300020800D0
:10080000C0E0C083C082C0D030981CC2987400255C
:1008100009F582E43400F583E599F00509E509C39B
:1008200094804003750900309904C299D200D0D059
:07083000D082D083D0E0323A
:0300000002089C57
:0C089C00787FE4F6D8FD75812002083753
:00000001FF
