:1013C300000000000000001F0000000000001F1FBD
:1013D3000000000000001F1F000000001F001F1F6F
:1013E3000000001F1F001F1F0000001F1F001F1F02
:1013F300001F001F1F001F1F1F1F001F1F001F1F95
:101479007580FFC2B5D2B61214032087FDC2B72208
:101442007F381214567F0C1214567F061214567FE0
:041452000102145629
:101456008F37121479853780C2B5C2B6121403C20B
:02146600B722AB
:101468008F37121479853780D2B5C2B6D2B7C2B7D2
:011478002251
:10137E00E4F525E52575F008A42440FF121456E483
:10138E00F526E52575F008A424C3F582E43413F59B
:10139E0083E5822526F582E43583F583E493FF12F7
:1013AE0014680526E526C3940840D70525E525C310
:0413BE00940840BF90
:0113C2002208
:021423008B3507
:10142500ED14600A04700CEF2480F5368005EF2476
:0D143500C0F536AF36121456AF35021468FC
:06140300D2B77F017E005C
:10140900EF1FAA0670011E4A600F7DB9EDD3940043
:0914190040EE7C01DCFE1D80F3B5
:0114220022A7
:100AD600E4F529F52AF52BF52C752501E525C394B2
:060AE600204003020D2A6E
:100AEC00E4F530F52FF52EF52DF534F533F532F51B
:100AFC003175F008E525A4240CF582E5F03400F5F9
:100B0C0083E0FCA3E0FDA3E0FEA3E0FF75F008E5A5
:100B1C0025A42404F582E5F03400F583E0F8A3E085
:100B2C00F9A3E0FAA3E0FB12000AE4F561F560F525
:100B3C005F755E40120FCEC004C005C006C00775BD
:100B4C00F008E525A42408F582E5F03400F583E0EF
:100B5C00FCA3E0FDA3E0FEA3E0FF75F008E525A4EF
:100B6C002400F582E5F03400F583E0F8A3E0F9A366
:100B7C00E0FAA3E0FB12000AE4F561F560F55F759D
:100B8C005E40120FCED003D002D001D00012000A6A
:100B9C001211A6E4FBFAF978401202048F308E2F62
:100BAC008D2E8C2D75F008E525A4241CF582E5F01E
:100BBC003400F583E0FCA3E0FDA3E0FEA3E0FF75A9
:100BCC00F008E525A42414F582E5F03400F583E063
:100BDC00F8A3E0F9A3E0FAA3E0FB12000AE4F56144
:100BEC00F560F55F755E40120FCEC004C005C006FF
:100BFC00C00775F008E525A42418F582E5F034004B
:100C0C00F583E0FCA3E0FDA3E0FEA3E0FF75F00894
:100C1C00E525A42410F582E5F03400F583E0F8A373
:100C2C00E0F9A3E0FAA3E0FB12000AE4F561F56039
:100C3C00F55F755E40120FCED003D002D001D0000C
:100C4C0012000A1211A6E4FBFAF978401202048F82
:100C5C00348E338D328C31E4FBFAF97840AF30AE00
:100C6C002FAD2EAC2D1202041202F08E298F2AE425
:100C7C00FBFAF97840AF34AE33AD32AC311202042A
:100C8C001202F08E2B8F2C752602C3E52A9408E5F0
:100C9C00299400401175270774F8252AF52A74FF4A
:100CAC003529F5298015E52A4529700575272080F9
:100CBC000AE52A14F527E4F529F52AE525C313FFDF
:100CCC00E52614FDAB27121423C3E52C9408E52B61
:100CDC009400401175280774F8252CF52C74FF35F9
:100CEC002BF52B8015E52C452B7005752820800ADB
:100CFC00E52C14F528E4F52BF52CE525C31304FF9E
:100D0C00E52614FDAB281214231526E526D39400F2
:050D1C004003020C96EB
:090D210074042525F525020AE2FF
:010D2A0022A6
:0F12E60078627C007D007B007E007F081205157A
:1012F500AF69AE68AD67AC66AB61AA60A95FA85E71
:101305001200FBC004C005C006C007AF65AE64ADE2
:1013150063AC62AB5DAA5CA95BA85A1200FBD00363
:10132500D002D001D0001200068F6D8E6C8D6B8CB3
:101335006AAF65AE64AD63AC62AB61AA60A95FA834
:101345005E1200FBC004C005C006C007AF69AE68E9
:10135500AD67AC66AB5DAA5CA95BA85A1200FBD071
:1013650003D002D001D00012000A8F718E708D6FEC
:081375008C6E7B007A00796A9E
:01137D00224D
:0A06FB008B258A2689278C288D297B
:10070500753400753501AE28AF297C007D021205D0
:100715003B8E2C8F2DAF29AE28752A00752B017CB9
:10072500007D0212053BEF64014E600A052BE52BA7
:1007350070ED052A80E9E52924FFF52FE52834FF2A
:10074500F52EE4F530F531C3E531952FE52E6480BE
:10075500F8E530648098400302084CC3E5319535CF
:10076500E5346480F8E53064809840030207FDE5D0
:1007750035AE347803C333CE33CED8F9AB25252730
:10078500F9E5263EFA78487C007D007E007F081258
:100795000515E531AE307803C333CE33CED8F9AB8A
:1007A500252527F9E5263EFAC003C002C001E53537
:1007B500AE347803C333CE33CED8F92527F9E526F1
:1007C5003EA801FCAD25D001D002D0037E007F08F4
:1007D500120515E531AE307803C333CE33CED8F9E3
:1007E5002527F9E5263EA801FCAD257B007A007991
:1007F500487E007F08120515852C32852D33C3E50B
:10080500339535E5346480F8E532648098501EC32D
:10081500E5359533F535E5349532F534AE32AF33FC
:100825007C007D0212053B8E328F3380D1E5332566
:1008350035F535E5323534F5340531E531600302FA
:10084500074C053002074C753600753701D3E5377F
:10085500952BE52A6480F8E5366480984003020A02
:10086500D5AC36AD37EC1202B78F618E608D5F8CDB
:100875005E7F007E007D007C40120FCE1202F08E5E
:10088500508F517C007D0212053B8E528F53755956
:10089500DB75580F755749755640E4F53BF53A75C4
:1008A500398075383FF53FF53EF53DF53CAC52AD29
:1008B50053EC1202B7A804A905AA06AB07AF59AEB7
:1008C50058AD57AC56120204120D738F438E428DEC
:1008D500418C40AC52AD53EC1202B7A804A905AA4D
:1008E50006AB07AF59AE58AD57AC56120204120D00
:1008F500891202A18F478E468D458C44753400754B
:100905003501D3E5359553E5526480F8E5346480C7
:10091500984003020ACAE53524FFF531E53434FF72
:10092500F530C3E5319529E5286480F8E530648024
:10093500984003020A98E5312553F555E5303552BF
:10094500F554E555AE547803C333CE33CED8F9AB61
:10095500252527F9E5263EFA785A7C007D007E009C
:100965007F081205157A0079381212E678487C005E
:100975007D007E007F08120515E531AE307803C392
:1009850033CE33CED8F9AB25AA26A927F5828E8397
:1009950012059FAB4BAA4AA949A848120006C004F4
:1009A500C005C006C007E555AE547803C333CE3342
:1009B500CED8F9AB25AA26A927F5828E83D007D0F4
:1009C50006D005D0041205E9E531AE307803C3330E
:1009D500CE33CED8F929F9EA3EFA90000412059FE4
:1009E500AB4FAA4EA94DA84C120006C004C005C0C5
:1009F50006C007E555AE547803C333CE33CED8F9D8
:100A0500AB252527F9E5263EFA900004D007D00648
:100A1500D005D0041205E9E531AE307803C333CEF5
:100A250033CED8F9AB252527F9E5263EFAC003C014
:100A350002C00112057FAB4BAA4AA949A84812007A
:100A45000AD001D002D0031205CFE531AE307803CC
:100A5500C333CE33CED8F9AB252527F9E5263EFAA3
:100A6500E92404F9E43AFAC003C002C00112057F83
:100A7500AB4FAA4EA94DA84C12000AD001D002D006
:100A8500031205CFE5512531F531E5503530F53007
:100A9500020927785A7C007D007B007A0079387E30
:100AA500007F081205157A0079401212E678387C25
:100AB500007D007E007F081205150535E5357002BD
:100AC50005340209070537E5377002053602085275
:010AD50022FE
:1010E5007521007522407580FF75A0FF121442120C
:1010F500137E759D01759201759101E4F523F52423
:10110500C3E5249522E5216480F8E52364809850A1
:101115007975BCC8E5BC30E4FBACBDE41202BCE4A7
:10112500FBFA798078401200FBC004C005C006C0F8
:1011350007ACBEE41202BCD003D002D001D000122D
:10114500000AC004C005C006C007E524AE23780325
:10115500C333CE33CED8F9FBAA062400F58274003A
:101165003AF583D007D006D005D00412062D7404B5
:101175002BF58274003AF58312063900000000054C
:1011850024E524700205230211057B017A0079000C
:0D119500AD22AC211206FB120AD602110099
:1000030002035CE86480F8E933E83360110460F0CC
:10001300ED33EC337009E8FCE9FDEAFEEBFF220463
:1000230060DED3EB9FEA9EE99DE8C2E78CF0C2F75E
:1000330095F0400CE8CCF8E9CDF9EACEFAEBCFFB2A
:1000430012032785D0F05804700320D5B3E8047059
:10005300075002B2D502036692D5EC0460F7E4CCF4
:10006300C0E0C398F8603B94186008400DD0E0FBF3
:1000730002033EE4FBFAC9FC8028E830E406E4C945
:10008300FBE4CAFCE830E305E4C9CACBFCE8540747
:100093006010F8C3E913F9EA13FAEB13FBEC13FC52
:1000A300D8F130F52FC3E49CFCEF9BFFEE9AFEEDF5
:1000B30099FDD0E0FBEF4E4D4C701222DB0302039F
:1000C30063EC2CFCEF33FFEE33FEED33FDED30E755
:1000D300EB02033EEF2BFFEE3AFEED39FDD0E0FBE2
:1000E30050130BBB0003020366ED13FDEE13FEEF8B
:0800F30013FFEC13FC02033EB5
:1000FB00EC4D6011E8497017ED33EC3304600DE4FF
:10010B00FCFFFEFD22E933E8330470F802035C12B6
:10011B00032758046009E4CC2481500628500902B7
:10012B000366284003020363C0E0EB4A7044B980C6
:10013B0006D0E0FB020352EF4E701CBD8008EBFFB4
:10014B00EAFEE9FD80EBE98DF0A4FEE5F00201E4A7
:10015B00E9CDF9EAFEEBFFEF89F0A4FCE5F0CE89DF
:10016B00F0A42EFFE435F0CD89F0A42DFEE435F09C
:10017B008067EF4E7005BD80D780C3EF8BF0A4ACCA
:10018B00F0EE8BF0A42CFCE435F0F8EF8AF0A42C05
:10019B00E5F038FCE433CB8DF0A42CFCE5F03BF818
:1001AB00EE8AF0A42CFCE5F038F8E433CF89F0A408
:1001BB002CFCE5F038CF3400CE89F0A42FFFE5F00E
:1001CB003EFEE433C98DF0A42EFEE5F039CD8AF066
:1001DB00A42FFFE5F03EFEE43DFD33D0E0FB5007DE
:1001EB000BBB000F020366EC2CFCEF33FFEE33FE70
:0601FB00ED33FD02033E9E
:10020100020366EC5D046005E85904700302035CB7
:10021100120327580460F6EC4860F2EC7004FDFE0E
:10022100FF22C860DB2481C85009C39860025006D0
:100231000203639850CAF582E9294B4A7005AB82E3
:1002410002035275F0007C1A7880C3EF9BEE9AEDA1
:1002510099400DC3EF9BFFEE9AFEED99FDE842F048
:10026100DC23ACF0D0E0FFD0E0FED0E0FDAB82209B
:10027100E7101BEB60BAEC2CFCEF33FFEE33FEED25
:1002810033FD02033EE803F830E705C0F075F000E6
:10029100EF2FFFEE33FEED33FD40B830E7C280AA09
:1002A100ED33EC33600A047003BD8004ECB2E7FC6B
:0102B100222A
:1002B20075F020800E75F010800575F0087D007EC7
:1002C200007F003392D530D503120571EC33401014
:1002D200EF33FFEE33FEED33FDEC33FCD5F0ED22D0
:0E02E200E5F0247EA2D513CC92E7CDCEFF220C
:1002F000EDD2E7CD33EC3392D524814006E4FFFE06
:10030000FDFC22FCE4CFCECDCC24E0501174FF8064
:10031000EDC3CC13CCCD13CDCE13CECF13CF047001
:07032000F030D5DE0205718B
:1011A20002035C22EDA2E7D2E7F9EC3340F260F3EE
:1011B200B4FF08ED547F70E8020366F82481C2E0B0
:1011C200C0E0F40428FAC313FCED92E7FD8C358DE0
:1011D200368E378F38EEA2E7E9BA7F02C3133400A6
:1011E2009400FA75F091A4E5F013F494FE8AF0A449
:1011F20033E5F033248CD313FDE492E7FE7F007CC9
:101202003F758302ECC0E0F8EDC0E0F9EEC0E0FA11
:10121200EFC0E0FBAC35AD36AE37AF38120204D0CA
:10122200E0FBD0E0FAD0E0F9D0E0F812000AED6479
:1012320080FD30E7011CD583CBED33CC33F8D0E011
:0A124200A2E71328C313CC13FD220A
:100D2B003A70FA83BCAAE9E43E81E0F8BF9DE9E69C
:100D3B003F80000039283C1ABB9969663DA335E317
:100D4B00BF255DE73FC90FDB418DDBCCC44936EED8
:100D5B0045C9913FC5B0F83D3F800000C317F5343E
:100D6B00452FFA73C60AFDDD120E1A04A2E192009A
:100D7B001420E015900D2B74041203F88026120E2C
:100D8B001A30E102B20020E0EB8C5A8D5B8E5C8F47
:100D9B005D900D3F74041203F8A85AA95BAA5CABD3
:100DAB005D1200FBED4C6007300004EC6480FC220C
:100DBB00120E1AC0E08C5A8D5B8E5C8F5D900D63AA
:100DCB0074031203F8A85AA95BAA5CAB5D1200FB73
:100DDB00ECC55AFCEDC55BFDEEC55CFEEFC55DFFDA
:100DEB00900D5374031203F8D082A85AA95BAA5C26
:100DFB00AB5DE58230E007120204B20080A6EFCBB8
:100E0B00FFEECAFEEDC9FDECC8FC1202048095EDA5
:100E1B0033EC547FCC33920024605007D0E0D0E009
:100E2B0002035C7B837AF97922783E1200FBEDF9A1
:100E3B0033ECF83324815011EFFBEEFA1202F0126F
:100E4B0002B2ECB2E7FC12000AED33EC33602F2454
:100E5B0003F8C313FCED92E7FDE82481E4501FEC8B
:100E6B00F8EDF9EEFAEFFB1202F0EF04C2E0FCF53D
:100E7B00821202BCECB2E7FC12000AE58203FAED27
:0E0E8B0033EC3360071413FCED92E7FDEA220E
:100FCE008F5D8E5C8D5B8C5AE4FFFE7D807C3FAB2B
:100FDE005DAA5CA95BA85A12038B7009AF5DAE5C6B
:100FEE00AD5BAC5A22AF5DAE5CAD5BAC5A12037119
:100FFE00FBAF61AE60AD5FAC5E120371FFBF010867
:10100E00E4FFFE7D807C3F22EF64046022EB6404EB
:10101E00601DBB0127E4FFFEFDFCAB61AA60A95F6A
:10102E00A85E12038B60084006E4FFFEFDFC2274EE
:10103E00FFF561F560F55FF55E0210DCE4F562F533
:10104E0063FFFEFDFCAB5DAA5CA95BA85A12038B85
:10105E00504BAF61AE60AD5FAC5E1202F08E628F30
:10106E0063AC62AD63EC1202B7C8ECC8C9EDC9CA75
:10107E00EECACBEFCBAF61AE60AD5FAC5E120006D9
:10108E00E4FBFAF9F812038B70A5AF5DAE5CAD5BB5
:10109E00AC5A1202A18F5D8E5C8D5B8C5AAF5DAE29
:1010AE005CAD5BAC5A120ECDAB61AA60A95FA85EB7
:1010BE001200FB1212848F618E608D5F8C5EE56371
:1010CE0030E00B1202A18F618E608D5F8C5EAF617E
:0710DE00AE60AD5FAC5E22C5
:10032700E9D2E7C933E833F892D5EDD2E7CD33EC1C
:0703370033FC5002B2D52295
:10033E00EC30E7100FBF000C0EBE00080DBD000420
:10034E000BEB6014A2D5EB13FCED92E7FD2274FFCC
:10035E00FCFDFEFF22E480F8A2D574FF13FC7D8025
:03036E00E480EF39
:10037100ED33EC33601004700FED547F700574029F
:0A03810092E0227404220422E42218
:10038B0074F8CC6480CCC86480C8F582046043C325
:10039B00EB9FF5F0EA9E42F0E99D42F0E89C45F0B8
:1003AB0060305018E5825FFFE582F42B5582FB50DD
:1003BB00210ABA001D09B90019088016E5825BFBFA
:1003CB00E582F42F5582FF50090EBE00050DBD00CE
:1003DB00010CC3EB9FF5F0EA9E42F0E99D42F0E879
:0D03EB009C45F06007CC4820E701B3EC22F0
:1003F800C0E0EFFBEEFAEDF9ECF81200FBD0E0F507
:10040800F0EFFBEEFAEDF9ECF812060DA3A3A3A3A7
:10041800E8C0E0E9C0E0EAC0E0EBC0E0C0F01200EC
:10042800FB12061DA3A3A3A312000AD0F0D0E0FB81
:0D043800D0E0FAD0E0F9D0E0F8D5F0D42201
:10124C0033DA929E35B16011377FE5FE39218489FE
:10125C003AAEC3FF3C1D955B3D6358473E75FDF0B0
:10126C003F3172183F800000C2D502036602035C56
:10127C00BD80FA50F3020363ED33EC330460F17B71
:10128C003B7AAA79B8783F1200FBED33EC3392D558
:10129C00247B5011A2D570DB500BED4480240450FC
:1012AC0004A2D580CEEFFBEEFAEDF9ECF81202F0C9
:1012BC00EFF582F404FC1202BC12000AC0829012F8
:1012CC004C7409120407ED33CC33D0F092D525F0D1
:0A12DC00A2D57001C313CC13FD224C
:100E99003E9248DA3ECCCCCD3F2AAAAB40000000B6
:100EA9003F8000003F9837F03FB504F33FD744FC3B
:100EB9003E3172173EB172173F0515913EDE5BD97F
:100EC900D2008002C200EDD2E7F8CD33EC330470D2
:100ED9000BBD800592D502036602035C40FBD31467
:100EE90060F2F5F07C3FEE7A00C39496C8948B408B
:100EF900230AC89469C8941A401A0AC89468C894FD
:100F09001F40110AC8945AC89425400805F07A0070
:100F1900CDC2E7CDC0F08C648D658E668F67EA23FC
:100F290023C0E024A9F582E4340EF58312061D12CC
:100F3900000AECC0E0EDC0E0EEC0E0EFC0E0120650
:100F49000DA864A965AA66AB67120006D0E0FBD0BC
:100F5900E0FAD0E0F9D0E0B2E7F81202048C648D2F
:100F6900658E668F67900E9974031203F8A864A9B9
:100F790065AA66AB671200FBD0E0600F24B5F58265
:100F8900E4340EF58312061D12000A8C648D658EF9
:100F9900668F67D0E0C3947FFDE49400FC1202B72A
:100FA9007B187A727931783F1200FBA864A965AA87
:100FB90066AB6712000A30000B7BD97A5B79DE7861
:050FC9003E1200FB22B6
:030000000214895E
:0C148900787FE4F6D8FD7581710210E553
:10044500E709F608DFFA8046E709F208DFFA803E99
:1004550088828C83E709F0A3DFFA8032E309F60886
:10046500DFFA8078E309F208DFFA807088828C83EE
:10047500E309F0A3DFFA806489828A83E0A3F608A2
:10048500DFFA805889828A83E0A3F208DFFA804C7C
:1004950080D280FA80C680D4806980F28033801053
:1004A50080A680EA809A80A880DA80E280CA8033BC
:1004B50089828A83ECFAE493A3C8C582C8CCC58334
:1004C500CCF0A3C8C582C8CCC583CCDFE9DEE78004
:1004D5000D89828A83E493A3F608DFF9ECFAA9F083
:1004E500EDFB2289828A83ECFAE0A3C8C582C8CCD9
:1004F500C583CCF0A3C8C582C8CCC583CCDFEADEF2
:10050500E880DB89828A83E493A3F208DFF980CC53
:1005150088F0EF60010E4E60C388F0ED2402B4044C
:100525000050B9F582EB2402B4040050AF232345F3
:060535008223900495737F
:10053B00C2D5EC30E709B2D5E4C39DFDE49CFCEEDB
:10054B0030E715B2D5E4C39FFFE49EFE12066AC3E3
:10055B00E49DFDE49CFC800312066A30D507C3E4DE
:06056B009FFFE49EFE224A
:0E057100C3E49FFFE49EFEE49DFDE49CFC229B
:10057F00BB010789828A830206CB5005E9F8020680
:10058F00BFBBFE05E9F80206D789828A8302060DF2
:10059F00BB010DE58229F582E5833AF5830206CB8F
:1005AF005007E92582F80206BFBBFE07E92582F84E
:1005BF000206D7E58229F582E5833AF58302060D17
:1005CF00BB010789828A8302062D5005E9F80206CE
:0A05DF00E3BBFE05E9F80206EF2277
:1005E900BB010DE58229F582E5833AF58302062DE3
:1005F9005007E92582F80206E3BBFE07E92582F8E0
:040609000206EF22D4
:10060D00E493FC740193FD740293FE740393FF2233
:10061D00E493F8740193F9740293FA740393FB2233
:0C062D00ECF0A3EDF0A3EEF0A3EFF02240
:10063900A8828583F0D083D0821206501206501208
:100649000650120650E473E493A3C583C5F0C5832D
:10065900C8C582C8F0A3C583C5F0C583C8C582C80B
:01066900226E
:10066A00BC000BBE0029EF8DF084FFADF022E4CC74
:10067A00F875F008EF2FFFEE33FEEC33FCEE9DEC3D
:10068A00984005FCEE9DFE0FD5F0E9E4CEFD22ED83
:10069A00F8F5F0EE8420D21CFEADF075F008EF2FCD
:1006AA00FFED33FD4007985006D5F0F222C398FDBE
:0506BA000FD5F0EA225B
:0C06BF00E6FC08E6FD08E6FE08E6FF2267
:0C06CB00E0FCA3E0FDA3E0FEA3E0FF22A2
:0C06D700E2FC08E2FD08E2FE08E2FF225F
:0C06E300ECF608EDF608EEF608EFF62243
:0C06EF00ECF208EDF208EEF208EFF22247
:00000001FF
