:10089D0057656C636F6D6520746F207573652100EE
:0C08AD00426565746C652076302E3100C9
:100800001208D27F801208EA7BFF7A08799D1208CD
:10081000377FC51208EA7BFF7A0879AD120837C224
:10082000A0D2A17FE87E0312085DD2A0C2A17FE81A
:070830007E0312085D80E861
:10085D00E4FDFCC3ED9FEC9E5015E4FBFA0BBB00D1
:0F086D00010AEB647B4A70F50DBD00010C80E4BD
:01087C002259
:10087D00E4FDFCC3ED9FEC9E5015E4FBFA0BBB00B1
:0F088D00010AEB647B4A70F50DBD00010C80E49D
:01089C002239
:1008EA00A907C2A57F017E0012087DD2A7898012BE
:0508FA00087DC2A722E9
:1008FF00A907D2A57F017E0012087D8980D2A71299
:05090F00087DC2A722D3
:100837008B088A09890AAB08AA09A90A1208B9FF0D
:10084700D3940040101208FF7401250AF50AE43515
:0608570009F50980E12211
:1008D200C2A7C2A67F381208EA7F0C1208EA7F0676
:0808E2001208EA7F010208EA96
:03000000020914DE
:0C091400787FE4F6D8FD75810A02080027
:1008B900BB010689828A83E0225002E722BBFE023D
:0908C900E32289828A83E4932270
:00000001FF
